{
	"SimpleStorage.sol": {
		"SimpleStorage": {
			"abi": [
				{
					"inputs": [
						{
							"internalType": "string",
							"name": "_name",
							"type": "string"
						},
						{
							"internalType": "uint256",
							"name": "_number",
							"type": "uint256"
						}
					],
					"name": "addPerson",
					"outputs": [],
					"stateMutability": "nonpayable",
					"type": "function"
				},
				{
					"inputs": [],
					"name": "getter",
					"outputs": [
						{
							"internalType": "uint256",
							"name": "",
							"type": "uint256"
						}
					],
					"stateMutability": "view",
					"type": "function"
				},
				{
					"inputs": [
						{
							"internalType": "uint256",
							"name": "",
							"type": "uint256"
						}
					],
					"name": "myFriends",
					"outputs": [
						{
							"internalType": "uint256",
							"name": "favoriteNumber",
							"type": "uint256"
						},
						{
							"internalType": "string",
							"name": "name",
							"type": "string"
						}
					],
					"stateMutability": "view",
					"type": "function"
				},
				{
					"inputs": [
						{
							"internalType": "string",
							"name": "",
							"type": "string"
						}
					],
					"name": "nameToFavoriteNumber",
					"outputs": [
						{
							"internalType": "uint256",
							"name": "",
							"type": "uint256"
						}
					],
					"stateMutability": "view",
					"type": "function"
				},
				{
					"inputs": [
						{
							"internalType": "uint256",
							"name": "_favoriteNumber",
							"type": "uint256"
						}
					],
					"name": "stroe",
					"outputs": [],
					"stateMutability": "nonpayable",
					"type": "function"
				}
			],
			"devdoc": {
				"kind": "dev",
				"methods": {},
				"version": 1
			},
			"evm": {
				"assembly": "    /* \"SimpleStorage.sol\":85:992  contract SimpleStorage{... */\n  mstore(0x40, 0x80)\n  callvalue\n  dup1\n  iszero\n  tag_1\n  jumpi\n  0x00\n  dup1\n  revert\ntag_1:\n  pop\n  dataSize(sub_0)\n  dup1\n  dataOffset(sub_0)\n  0x00\n  codecopy\n  0x00\n  return\nstop\n\nsub_0: assembly {\n        /* \"SimpleStorage.sol\":85:992  contract SimpleStorage{... */\n      mstore(0x40, 0x80)\n      callvalue\n      dup1\n      iszero\n      tag_1\n      jumpi\n      0x00\n      dup1\n      revert\n    tag_1:\n      pop\n      jumpi(tag_2, lt(calldatasize, 0x04))\n      shr(0xe0, calldataload(0x00))\n      dup1\n      0x1d3849e4\n      eq\n      tag_3\n      jumpi\n      dup1\n      0x6663e66d\n      eq\n      tag_4\n      jumpi\n      dup1\n      0x6f760f41\n      eq\n      tag_5\n      jumpi\n      dup1\n      0x8bab8dd5\n      eq\n      tag_6\n      jumpi\n      dup1\n      0x993a04b7\n      eq\n      tag_7\n      jumpi\n    tag_2:\n      0x00\n      dup1\n      revert\n        /* \"SimpleStorage.sol\":570:668  function stroe(uint256 _favoriteNumber) public {... */\n    tag_3:\n      tag_8\n      0x04\n      dup1\n      calldatasize\n      sub\n      dup2\n      add\n      swap1\n      tag_9\n      swap2\n      swap1\n      tag_10\n      jump\t// in\n    tag_9:\n      tag_11\n      jump\t// in\n    tag_8:\n      stop\n        /* \"SimpleStorage.sol\":405:430  Person[] public myFriends */\n    tag_4:\n      tag_12\n      0x04\n      dup1\n      calldatasize\n      sub\n      dup2\n      add\n      swap1\n      tag_13\n      swap2\n      swap1\n      tag_10\n      jump\t// in\n    tag_13:\n      tag_14\n      jump\t// in\n    tag_12:\n      mload(0x40)\n      tag_15\n      swap3\n      swap2\n      swap1\n      tag_16\n      jump\t// in\n    tag_15:\n      mload(0x40)\n      dup1\n      swap2\n      sub\n      swap1\n      return\n        /* \"SimpleStorage.sol\":766:989  function addPerson(string calldata _name, uint256 _number) public{... */\n    tag_5:\n      tag_17\n      0x04\n      dup1\n      calldatasize\n      sub\n      dup2\n      add\n      swap1\n      tag_18\n      swap2\n      swap1\n      tag_19\n      jump\t// in\n    tag_18:\n      tag_20\n      jump\t// in\n    tag_17:\n      stop\n        /* \"SimpleStorage.sol\":509:563  mapping(string => uint256) public nameToFavoriteNumber */\n    tag_6:\n      tag_21\n      0x04\n      dup1\n      calldatasize\n      sub\n      dup2\n      add\n      swap1\n      tag_22\n      swap2\n      swap1\n      tag_23\n      jump\t// in\n    tag_22:\n      tag_24\n      jump\t// in\n    tag_21:\n      mload(0x40)\n      tag_25\n      swap2\n      swap1\n      tag_26\n      jump\t// in\n    tag_25:\n      mload(0x40)\n      dup1\n      swap2\n      sub\n      swap1\n      return\n        /* \"SimpleStorage.sol\":674:760  function getter() public view returns(uint256){... */\n    tag_7:\n      tag_27\n      tag_28\n      jump\t// in\n    tag_27:\n      mload(0x40)\n      tag_29\n      swap2\n      swap1\n      tag_26\n      jump\t// in\n    tag_29:\n      mload(0x40)\n      dup1\n      swap2\n      sub\n      swap1\n      return\n        /* \"SimpleStorage.sol\":570:668  function stroe(uint256 _favoriteNumber) public {... */\n    tag_11:\n        /* \"SimpleStorage.sol\":646:661  _favoriteNumber */\n      dup1\n        /* \"SimpleStorage.sol\":627:643  myFavoriteNumber */\n      0x00\n        /* \"SimpleStorage.sol\":627:661  myFavoriteNumber = _favoriteNumber */\n      dup2\n      swap1\n      sstore\n      pop\n        /* \"SimpleStorage.sol\":570:668  function stroe(uint256 _favoriteNumber) public {... */\n      pop\n      jump\t// out\n        /* \"SimpleStorage.sol\":405:430  Person[] public myFriends */\n    tag_14:\n      0x01\n      dup2\n      dup2\n      sload\n      dup2\n      lt\n      tag_31\n      jumpi\n      0x00\n      dup1\n      revert\n    tag_31:\n      swap1\n      0x00\n      mstore\n      keccak256(0x00, 0x20)\n      swap1\n      0x02\n      mul\n      add\n      0x00\n      swap2\n      pop\n      swap1\n      pop\n      dup1\n      0x00\n      add\n      sload\n      swap1\n      dup1\n      0x01\n      add\n      dup1\n      sload\n      tag_33\n      swap1\n      tag_34\n      jump\t// in\n    tag_33:\n      dup1\n      0x1f\n      add\n      0x20\n      dup1\n      swap2\n      div\n      mul\n      0x20\n      add\n      mload(0x40)\n      swap1\n      dup2\n      add\n      0x40\n      mstore\n      dup1\n      swap3\n      swap2\n      swap1\n      dup2\n      dup2\n      mstore\n      0x20\n      add\n      dup3\n      dup1\n      sload\n      tag_35\n      swap1\n      tag_34\n      jump\t// in\n    tag_35:\n      dup1\n      iszero\n      tag_36\n      jumpi\n      dup1\n      0x1f\n      lt\n      tag_37\n      jumpi\n      0x0100\n      dup1\n      dup4\n      sload\n      div\n      mul\n      dup4\n      mstore\n      swap2\n      0x20\n      add\n      swap2\n      jump(tag_36)\n    tag_37:\n      dup3\n      add\n      swap2\n      swap1\n      0x00\n      mstore\n      keccak256(0x00, 0x20)\n      swap1\n    tag_38:\n      dup2\n      sload\n      dup2\n      mstore\n      swap1\n      0x01\n      add\n      swap1\n      0x20\n      add\n      dup1\n      dup4\n      gt\n      tag_38\n      jumpi\n      dup3\n      swap1\n      sub\n      0x1f\n      and\n      dup3\n      add\n      swap2\n    tag_36:\n      pop\n      pop\n      pop\n      pop\n      pop\n      swap1\n      pop\n      dup3\n      jump\t// out\n        /* \"SimpleStorage.sol\":766:989  function addPerson(string calldata _name, uint256 _number) public{... */\n    tag_20:\n        /* \"SimpleStorage.sol\":841:850  myFriends */\n      0x01\n        /* \"SimpleStorage.sol\":856:934  Person({... */\n      mload(0x40)\n      dup1\n      0x40\n      add\n      0x40\n      mstore\n      dup1\n        /* \"SimpleStorage.sol\":892:899  _number */\n      dup4\n        /* \"SimpleStorage.sol\":856:934  Person({... */\n      dup2\n      mstore\n      0x20\n      add\n        /* \"SimpleStorage.sol\":918:923  _name */\n      dup6\n      dup6\n        /* \"SimpleStorage.sol\":856:934  Person({... */\n      dup1\n      dup1\n      0x1f\n      add\n      0x20\n      dup1\n      swap2\n      div\n      mul\n      0x20\n      add\n      mload(0x40)\n      swap1\n      dup2\n      add\n      0x40\n      mstore\n      dup1\n      swap4\n      swap3\n      swap2\n      swap1\n      dup2\n      dup2\n      mstore\n      0x20\n      add\n      dup4\n      dup4\n      dup1\n      dup3\n      dup5\n      calldatacopy\n      0x00\n      dup2\n      dup5\n      add\n      mstore\n      not(0x1f)\n      0x1f\n      dup3\n      add\n      and\n      swap1\n      pop\n      dup1\n      dup4\n      add\n      swap3\n      pop\n      pop\n      pop\n      pop\n      pop\n      pop\n      pop\n      dup2\n      mstore\n      pop\n        /* \"SimpleStorage.sol\":841:935  myFriends.push(Person({... */\n      swap1\n      dup1\n      0x01\n      dup2\n      sload\n      add\n      dup1\n      dup3\n      sstore\n      dup1\n      swap2\n      pop\n      pop\n      0x01\n      swap1\n      sub\n      swap1\n      0x00\n      mstore\n      keccak256(0x00, 0x20)\n      swap1\n      0x02\n      mul\n      add\n      0x00\n      swap1\n      swap2\n      swap1\n      swap2\n      swap1\n      swap2\n      pop\n      0x00\n      dup3\n      add\n      mload\n      dup2\n      0x00\n      add\n      sstore\n      0x20\n      dup3\n      add\n      mload\n      dup2\n      0x01\n      add\n      swap1\n      dup2\n      tag_41\n      swap2\n      swap1\n      tag_42\n      jump\t// in\n    tag_41:\n      pop\n      pop\n      pop\n        /* \"SimpleStorage.sol\":975:982  _number */\n      dup1\n        /* \"SimpleStorage.sol\":945:965  nameToFavoriteNumber */\n      0x02\n        /* \"SimpleStorage.sol\":966:971  _name */\n      dup5\n      dup5\n        /* \"SimpleStorage.sol\":945:972  nameToFavoriteNumber[_name] */\n      mload(0x40)\n      tag_43\n      swap3\n      swap2\n      swap1\n      tag_44\n      jump\t// in\n    tag_43:\n      swap1\n      dup2\n      mstore\n      0x20\n      add\n      mload(0x40)\n      dup1\n      swap2\n      sub\n      swap1\n      keccak256\n        /* \"SimpleStorage.sol\":945:982  nameToFavoriteNumber[_name] = _number */\n      dup2\n      swap1\n      sstore\n      pop\n        /* \"SimpleStorage.sol\":766:989  function addPerson(string calldata _name, uint256 _number) public{... */\n      pop\n      pop\n      pop\n      jump\t// out\n        /* \"SimpleStorage.sol\":509:563  mapping(string => uint256) public nameToFavoriteNumber */\n    tag_24:\n      0x02\n      dup2\n      dup1\n      mload\n      0x20\n      dup2\n      add\n      dup3\n      add\n      dup1\n      mload\n      dup5\n      dup3\n      mstore\n      0x20\n      dup4\n      add\n      0x20\n      dup6\n      add\n      keccak256\n      dup2\n      dup4\n      mstore\n      dup1\n      swap6\n      pop\n      pop\n      pop\n      pop\n      pop\n      pop\n      0x00\n      swap2\n      pop\n      swap1\n      pop\n      sload\n      dup2\n      jump\t// out\n        /* \"SimpleStorage.sol\":674:760  function getter() public view returns(uint256){... */\n    tag_28:\n        /* \"SimpleStorage.sol\":712:719  uint256 */\n      0x00\n        /* \"SimpleStorage.sol\":737:753  myFavoriteNumber */\n      dup1\n      sload\n        /* \"SimpleStorage.sol\":730:753  return myFavoriteNumber */\n      swap1\n      pop\n        /* \"SimpleStorage.sol\":674:760  function getter() public view returns(uint256){... */\n      swap1\n      jump\t// out\n        /* \"#utility.yul\":7:82   */\n    tag_46:\n        /* \"#utility.yul\":40:46   */\n      0x00\n        /* \"#utility.yul\":73:75   */\n      0x40\n        /* \"#utility.yul\":67:76   */\n      mload\n        /* \"#utility.yul\":57:76   */\n      swap1\n      pop\n        /* \"#utility.yul\":7:82   */\n      swap1\n      jump\t// out\n        /* \"#utility.yul\":88:205   */\n    tag_47:\n        /* \"#utility.yul\":197:198   */\n      0x00\n        /* \"#utility.yul\":194:195   */\n      dup1\n        /* \"#utility.yul\":187:199   */\n      revert\n        /* \"#utility.yul\":211:328   */\n    tag_48:\n        /* \"#utility.yul\":320:321   */\n      0x00\n        /* \"#utility.yul\":317:318   */\n      dup1\n        /* \"#utility.yul\":310:322   */\n      revert\n        /* \"#utility.yul\":334:411   */\n    tag_49:\n        /* \"#utility.yul\":371:378   */\n      0x00\n        /* \"#utility.yul\":400:405   */\n      dup2\n        /* \"#utility.yul\":389:405   */\n      swap1\n      pop\n        /* \"#utility.yul\":334:411   */\n      swap2\n      swap1\n      pop\n      jump\t// out\n        /* \"#utility.yul\":417:539   */\n    tag_50:\n        /* \"#utility.yul\":490:514   */\n      tag_94\n        /* \"#utility.yul\":508:513   */\n      dup2\n        /* \"#utility.yul\":490:514   */\n      tag_49\n      jump\t// in\n    tag_94:\n        /* \"#utility.yul\":483:488   */\n      dup2\n        /* \"#utility.yul\":480:515   */\n      eq\n        /* \"#utility.yul\":470:533   */\n      tag_95\n      jumpi\n        /* \"#utility.yul\":529:530   */\n      0x00\n        /* \"#utility.yul\":526:527   */\n      dup1\n        /* \"#utility.yul\":519:531   */\n      revert\n        /* \"#utility.yul\":470:533   */\n    tag_95:\n        /* \"#utility.yul\":417:539   */\n      pop\n      jump\t// out\n        /* \"#utility.yul\":545:684   */\n    tag_51:\n        /* \"#utility.yul\":591:596   */\n      0x00\n        /* \"#utility.yul\":629:635   */\n      dup2\n        /* \"#utility.yul\":616:636   */\n      calldataload\n        /* \"#utility.yul\":607:636   */\n      swap1\n      pop\n        /* \"#utility.yul\":645:678   */\n      tag_97\n        /* \"#utility.yul\":672:677   */\n      dup2\n        /* \"#utility.yul\":645:678   */\n      tag_50\n      jump\t// in\n    tag_97:\n        /* \"#utility.yul\":545:684   */\n      swap3\n      swap2\n      pop\n      pop\n      jump\t// out\n        /* \"#utility.yul\":690:1019   */\n    tag_10:\n        /* \"#utility.yul\":749:755   */\n      0x00\n        /* \"#utility.yul\":798:800   */\n      0x20\n        /* \"#utility.yul\":786:795   */\n      dup3\n        /* \"#utility.yul\":777:784   */\n      dup5\n        /* \"#utility.yul\":773:796   */\n      sub\n        /* \"#utility.yul\":769:801   */\n      slt\n        /* \"#utility.yul\":766:885   */\n      iszero\n      tag_99\n      jumpi\n        /* \"#utility.yul\":804:883   */\n      tag_100\n      tag_47\n      jump\t// in\n    tag_100:\n        /* \"#utility.yul\":766:885   */\n    tag_99:\n        /* \"#utility.yul\":924:925   */\n      0x00\n        /* \"#utility.yul\":949:1002   */\n      tag_101\n        /* \"#utility.yul\":994:1001   */\n      dup5\n        /* \"#utility.yul\":985:991   */\n      dup3\n        /* \"#utility.yul\":974:983   */\n      dup6\n        /* \"#utility.yul\":970:992   */\n      add\n        /* \"#utility.yul\":949:1002   */\n      tag_51\n      jump\t// in\n    tag_101:\n        /* \"#utility.yul\":939:1002   */\n      swap2\n      pop\n        /* \"#utility.yul\":895:1012   */\n      pop\n        /* \"#utility.yul\":690:1019   */\n      swap3\n      swap2\n      pop\n      pop\n      jump\t// out\n        /* \"#utility.yul\":1025:1143   */\n    tag_52:\n        /* \"#utility.yul\":1112:1136   */\n      tag_103\n        /* \"#utility.yul\":1130:1135   */\n      dup2\n        /* \"#utility.yul\":1112:1136   */\n      tag_49\n      jump\t// in\n    tag_103:\n        /* \"#utility.yul\":1107:1110   */\n      dup3\n        /* \"#utility.yul\":1100:1137   */\n      mstore\n        /* \"#utility.yul\":1025:1143   */\n      pop\n      pop\n      jump\t// out\n        /* \"#utility.yul\":1149:1248   */\n    tag_53:\n        /* \"#utility.yul\":1201:1207   */\n      0x00\n        /* \"#utility.yul\":1235:1240   */\n      dup2\n        /* \"#utility.yul\":1229:1241   */\n      mload\n        /* \"#utility.yul\":1219:1241   */\n      swap1\n      pop\n        /* \"#utility.yul\":1149:1248   */\n      swap2\n      swap1\n      pop\n      jump\t// out\n        /* \"#utility.yul\":1254:1423   */\n    tag_54:\n        /* \"#utility.yul\":1338:1349   */\n      0x00\n        /* \"#utility.yul\":1372:1378   */\n      dup3\n        /* \"#utility.yul\":1367:1370   */\n      dup3\n        /* \"#utility.yul\":1360:1379   */\n      mstore\n        /* \"#utility.yul\":1412:1416   */\n      0x20\n        /* \"#utility.yul\":1407:1410   */\n      dup3\n        /* \"#utility.yul\":1403:1417   */\n      add\n        /* \"#utility.yul\":1388:1417   */\n      swap1\n      pop\n        /* \"#utility.yul\":1254:1423   */\n      swap3\n      swap2\n      pop\n      pop\n      jump\t// out\n        /* \"#utility.yul\":1429:1675   */\n    tag_55:\n        /* \"#utility.yul\":1510:1511   */\n      0x00\n        /* \"#utility.yul\":1520:1633   */\n    tag_107:\n        /* \"#utility.yul\":1534:1540   */\n      dup4\n        /* \"#utility.yul\":1531:1532   */\n      dup2\n        /* \"#utility.yul\":1528:1541   */\n      lt\n        /* \"#utility.yul\":1520:1633   */\n      iszero\n      tag_109\n      jumpi\n        /* \"#utility.yul\":1619:1620   */\n      dup1\n        /* \"#utility.yul\":1614:1617   */\n      dup3\n        /* \"#utility.yul\":1610:1621   */\n      add\n        /* \"#utility.yul\":1604:1622   */\n      mload\n        /* \"#utility.yul\":1600:1601   */\n      dup2\n        /* \"#utility.yul\":1595:1598   */\n      dup5\n        /* \"#utility.yul\":1591:1602   */\n      add\n        /* \"#utility.yul\":1584:1623   */\n      mstore\n        /* \"#utility.yul\":1556:1558   */\n      0x20\n        /* \"#utility.yul\":1553:1554   */\n      dup2\n        /* \"#utility.yul\":1549:1559   */\n      add\n        /* \"#utility.yul\":1544:1559   */\n      swap1\n      pop\n        /* \"#utility.yul\":1520:1633   */\n      jump(tag_107)\n    tag_109:\n        /* \"#utility.yul\":1667:1668   */\n      0x00\n        /* \"#utility.yul\":1658:1664   */\n      dup5\n        /* \"#utility.yul\":1653:1656   */\n      dup5\n        /* \"#utility.yul\":1649:1665   */\n      add\n        /* \"#utility.yul\":1642:1669   */\n      mstore\n        /* \"#utility.yul\":1491:1675   */\n      pop\n        /* \"#utility.yul\":1429:1675   */\n      pop\n      pop\n      pop\n      jump\t// out\n        /* \"#utility.yul\":1681:1783   */\n    tag_56:\n        /* \"#utility.yul\":1722:1728   */\n      0x00\n        /* \"#utility.yul\":1773:1775   */\n      0x1f\n        /* \"#utility.yul\":1769:1776   */\n      not\n        /* \"#utility.yul\":1764:1766   */\n      0x1f\n        /* \"#utility.yul\":1757:1762   */\n      dup4\n        /* \"#utility.yul\":1753:1767   */\n      add\n        /* \"#utility.yul\":1749:1777   */\n      and\n        /* \"#utility.yul\":1739:1777   */\n      swap1\n      pop\n        /* \"#utility.yul\":1681:1783   */\n      swap2\n      swap1\n      pop\n      jump\t// out\n        /* \"#utility.yul\":1789:2166   */\n    tag_57:\n        /* \"#utility.yul\":1877:1880   */\n      0x00\n        /* \"#utility.yul\":1905:1944   */\n      tag_112\n        /* \"#utility.yul\":1938:1943   */\n      dup3\n        /* \"#utility.yul\":1905:1944   */\n      tag_53\n      jump\t// in\n    tag_112:\n        /* \"#utility.yul\":1960:2031   */\n      tag_113\n        /* \"#utility.yul\":2024:2030   */\n      dup2\n        /* \"#utility.yul\":2019:2022   */\n      dup6\n        /* \"#utility.yul\":1960:2031   */\n      tag_54\n      jump\t// in\n    tag_113:\n        /* \"#utility.yul\":1953:2031   */\n      swap4\n      pop\n        /* \"#utility.yul\":2040:2105   */\n      tag_114\n        /* \"#utility.yul\":2098:2104   */\n      dup2\n        /* \"#utility.yul\":2093:2096   */\n      dup6\n        /* \"#utility.yul\":2086:2090   */\n      0x20\n        /* \"#utility.yul\":2079:2084   */\n      dup7\n        /* \"#utility.yul\":2075:2091   */\n      add\n        /* \"#utility.yul\":2040:2105   */\n      tag_55\n      jump\t// in\n    tag_114:\n        /* \"#utility.yul\":2130:2159   */\n      tag_115\n        /* \"#utility.yul\":2152:2158   */\n      dup2\n        /* \"#utility.yul\":2130:2159   */\n      tag_56\n      jump\t// in\n    tag_115:\n        /* \"#utility.yul\":2125:2128   */\n      dup5\n        /* \"#utility.yul\":2121:2160   */\n      add\n        /* \"#utility.yul\":2114:2160   */\n      swap2\n      pop\n        /* \"#utility.yul\":1881:2166   */\n      pop\n        /* \"#utility.yul\":1789:2166   */\n      swap3\n      swap2\n      pop\n      pop\n      jump\t// out\n        /* \"#utility.yul\":2172:2595   */\n    tag_16:\n        /* \"#utility.yul\":2313:2317   */\n      0x00\n        /* \"#utility.yul\":2351:2353   */\n      0x40\n        /* \"#utility.yul\":2340:2349   */\n      dup3\n        /* \"#utility.yul\":2336:2354   */\n      add\n        /* \"#utility.yul\":2328:2354   */\n      swap1\n      pop\n        /* \"#utility.yul\":2364:2435   */\n      tag_117\n        /* \"#utility.yul\":2432:2433   */\n      0x00\n        /* \"#utility.yul\":2421:2430   */\n      dup4\n        /* \"#utility.yul\":2417:2434   */\n      add\n        /* \"#utility.yul\":2408:2414   */\n      dup6\n        /* \"#utility.yul\":2364:2435   */\n      tag_52\n      jump\t// in\n    tag_117:\n        /* \"#utility.yul\":2482:2491   */\n      dup2\n        /* \"#utility.yul\":2476:2480   */\n      dup2\n        /* \"#utility.yul\":2472:2492   */\n      sub\n        /* \"#utility.yul\":2467:2469   */\n      0x20\n        /* \"#utility.yul\":2456:2465   */\n      dup4\n        /* \"#utility.yul\":2452:2470   */\n      add\n        /* \"#utility.yul\":2445:2493   */\n      mstore\n        /* \"#utility.yul\":2510:2588   */\n      tag_118\n        /* \"#utility.yul\":2583:2587   */\n      dup2\n        /* \"#utility.yul\":2574:2580   */\n      dup5\n        /* \"#utility.yul\":2510:2588   */\n      tag_57\n      jump\t// in\n    tag_118:\n        /* \"#utility.yul\":2502:2588   */\n      swap1\n      pop\n        /* \"#utility.yul\":2172:2595   */\n      swap4\n      swap3\n      pop\n      pop\n      pop\n      jump\t// out\n        /* \"#utility.yul\":2601:2718   */\n    tag_58:\n        /* \"#utility.yul\":2710:2711   */\n      0x00\n        /* \"#utility.yul\":2707:2708   */\n      dup1\n        /* \"#utility.yul\":2700:2712   */\n      revert\n        /* \"#utility.yul\":2724:2841   */\n    tag_59:\n        /* \"#utility.yul\":2833:2834   */\n      0x00\n        /* \"#utility.yul\":2830:2831   */\n      dup1\n        /* \"#utility.yul\":2823:2835   */\n      revert\n        /* \"#utility.yul\":2847:2964   */\n    tag_60:\n        /* \"#utility.yul\":2956:2957   */\n      0x00\n        /* \"#utility.yul\":2953:2954   */\n      dup1\n        /* \"#utility.yul\":2946:2958   */\n      revert\n        /* \"#utility.yul\":2984:3537   */\n    tag_61:\n        /* \"#utility.yul\":3042:3050   */\n      0x00\n        /* \"#utility.yul\":3052:3058   */\n      dup1\n        /* \"#utility.yul\":3102:3105   */\n      dup4\n        /* \"#utility.yul\":3095:3099   */\n      0x1f\n        /* \"#utility.yul\":3087:3093   */\n      dup5\n        /* \"#utility.yul\":3083:3100   */\n      add\n        /* \"#utility.yul\":3079:3106   */\n      slt\n        /* \"#utility.yul\":3069:3191   */\n      tag_123\n      jumpi\n        /* \"#utility.yul\":3110:3189   */\n      tag_124\n      tag_58\n      jump\t// in\n    tag_124:\n        /* \"#utility.yul\":3069:3191   */\n    tag_123:\n        /* \"#utility.yul\":3223:3229   */\n      dup3\n        /* \"#utility.yul\":3210:3230   */\n      calldataload\n        /* \"#utility.yul\":3200:3230   */\n      swap1\n      pop\n        /* \"#utility.yul\":3253:3271   */\n      0xffffffffffffffff\n        /* \"#utility.yul\":3245:3251   */\n      dup2\n        /* \"#utility.yul\":3242:3272   */\n      gt\n        /* \"#utility.yul\":3239:3356   */\n      iszero\n      tag_125\n      jumpi\n        /* \"#utility.yul\":3275:3354   */\n      tag_126\n      tag_59\n      jump\t// in\n    tag_126:\n        /* \"#utility.yul\":3239:3356   */\n    tag_125:\n        /* \"#utility.yul\":3389:3393   */\n      0x20\n        /* \"#utility.yul\":3381:3387   */\n      dup4\n        /* \"#utility.yul\":3377:3394   */\n      add\n        /* \"#utility.yul\":3365:3394   */\n      swap2\n      pop\n        /* \"#utility.yul\":3443:3446   */\n      dup4\n        /* \"#utility.yul\":3435:3439   */\n      0x01\n        /* \"#utility.yul\":3427:3433   */\n      dup3\n        /* \"#utility.yul\":3423:3440   */\n      mul\n        /* \"#utility.yul\":3413:3421   */\n      dup4\n        /* \"#utility.yul\":3409:3441   */\n      add\n        /* \"#utility.yul\":3406:3447   */\n      gt\n        /* \"#utility.yul\":3403:3531   */\n      iszero\n      tag_127\n      jumpi\n        /* \"#utility.yul\":3450:3529   */\n      tag_128\n      tag_60\n      jump\t// in\n    tag_128:\n        /* \"#utility.yul\":3403:3531   */\n    tag_127:\n        /* \"#utility.yul\":2984:3537   */\n      swap3\n      pop\n      swap3\n      swap1\n      pop\n      jump\t// out\n        /* \"#utility.yul\":3543:4217   */\n    tag_19:\n        /* \"#utility.yul\":3623:3629   */\n      0x00\n        /* \"#utility.yul\":3631:3637   */\n      dup1\n        /* \"#utility.yul\":3639:3645   */\n      0x00\n        /* \"#utility.yul\":3688:3690   */\n      0x40\n        /* \"#utility.yul\":3676:3685   */\n      dup5\n        /* \"#utility.yul\":3667:3674   */\n      dup7\n        /* \"#utility.yul\":3663:3686   */\n      sub\n        /* \"#utility.yul\":3659:3691   */\n      slt\n        /* \"#utility.yul\":3656:3775   */\n      iszero\n      tag_130\n      jumpi\n        /* \"#utility.yul\":3694:3773   */\n      tag_131\n      tag_47\n      jump\t// in\n    tag_131:\n        /* \"#utility.yul\":3656:3775   */\n    tag_130:\n        /* \"#utility.yul\":3842:3843   */\n      0x00\n        /* \"#utility.yul\":3831:3840   */\n      dup5\n        /* \"#utility.yul\":3827:3844   */\n      add\n        /* \"#utility.yul\":3814:3845   */\n      calldataload\n        /* \"#utility.yul\":3872:3890   */\n      0xffffffffffffffff\n        /* \"#utility.yul\":3864:3870   */\n      dup2\n        /* \"#utility.yul\":3861:3891   */\n      gt\n        /* \"#utility.yul\":3858:3975   */\n      iszero\n      tag_132\n      jumpi\n        /* \"#utility.yul\":3894:3973   */\n      tag_133\n      tag_48\n      jump\t// in\n    tag_133:\n        /* \"#utility.yul\":3858:3975   */\n    tag_132:\n        /* \"#utility.yul\":4007:4072   */\n      tag_134\n        /* \"#utility.yul\":4064:4071   */\n      dup7\n        /* \"#utility.yul\":4055:4061   */\n      dup3\n        /* \"#utility.yul\":4044:4053   */\n      dup8\n        /* \"#utility.yul\":4040:4062   */\n      add\n        /* \"#utility.yul\":4007:4072   */\n      tag_61\n      jump\t// in\n    tag_134:\n        /* \"#utility.yul\":3989:4072   */\n      swap4\n      pop\n      swap4\n      pop\n        /* \"#utility.yul\":3785:4082   */\n      pop\n        /* \"#utility.yul\":4121:4123   */\n      0x20\n        /* \"#utility.yul\":4147:4200   */\n      tag_135\n        /* \"#utility.yul\":4192:4199   */\n      dup7\n        /* \"#utility.yul\":4183:4189   */\n      dup3\n        /* \"#utility.yul\":4172:4181   */\n      dup8\n        /* \"#utility.yul\":4168:4190   */\n      add\n        /* \"#utility.yul\":4147:4200   */\n      tag_51\n      jump\t// in\n    tag_135:\n        /* \"#utility.yul\":4137:4200   */\n      swap2\n      pop\n        /* \"#utility.yul\":4092:4210   */\n      pop\n        /* \"#utility.yul\":3543:4217   */\n      swap3\n      pop\n      swap3\n      pop\n      swap3\n      jump\t// out\n        /* \"#utility.yul\":4223:4340   */\n    tag_62:\n        /* \"#utility.yul\":4332:4333   */\n      0x00\n        /* \"#utility.yul\":4329:4330   */\n      dup1\n        /* \"#utility.yul\":4322:4334   */\n      revert\n        /* \"#utility.yul\":4346:4526   */\n    tag_63:\n        /* \"#utility.yul\":4394:4471   */\n      0x4e487b7100000000000000000000000000000000000000000000000000000000\n        /* \"#utility.yul\":4391:4392   */\n      0x00\n        /* \"#utility.yul\":4384:4472   */\n      mstore\n        /* \"#utility.yul\":4491:4495   */\n      0x41\n        /* \"#utility.yul\":4488:4489   */\n      0x04\n        /* \"#utility.yul\":4481:4496   */\n      mstore\n        /* \"#utility.yul\":4515:4519   */\n      0x24\n        /* \"#utility.yul\":4512:4513   */\n      0x00\n        /* \"#utility.yul\":4505:4520   */\n      revert\n        /* \"#utility.yul\":4532:4813   */\n    tag_64:\n        /* \"#utility.yul\":4615:4642   */\n      tag_139\n        /* \"#utility.yul\":4637:4641   */\n      dup3\n        /* \"#utility.yul\":4615:4642   */\n      tag_56\n      jump\t// in\n    tag_139:\n        /* \"#utility.yul\":4607:4613   */\n      dup2\n        /* \"#utility.yul\":4603:4643   */\n      add\n        /* \"#utility.yul\":4745:4751   */\n      dup2\n        /* \"#utility.yul\":4733:4743   */\n      dup2\n        /* \"#utility.yul\":4730:4752   */\n      lt\n        /* \"#utility.yul\":4709:4727   */\n      0xffffffffffffffff\n        /* \"#utility.yul\":4697:4707   */\n      dup3\n        /* \"#utility.yul\":4694:4728   */\n      gt\n        /* \"#utility.yul\":4691:4753   */\n      or\n        /* \"#utility.yul\":4688:4776   */\n      iszero\n      tag_140\n      jumpi\n        /* \"#utility.yul\":4756:4774   */\n      tag_141\n      tag_63\n      jump\t// in\n    tag_141:\n        /* \"#utility.yul\":4688:4776   */\n    tag_140:\n        /* \"#utility.yul\":4796:4806   */\n      dup1\n        /* \"#utility.yul\":4792:4794   */\n      0x40\n        /* \"#utility.yul\":4785:4807   */\n      mstore\n        /* \"#utility.yul\":4575:4813   */\n      pop\n        /* \"#utility.yul\":4532:4813   */\n      pop\n      pop\n      jump\t// out\n        /* \"#utility.yul\":4819:4948   */\n    tag_65:\n        /* \"#utility.yul\":4853:4859   */\n      0x00\n        /* \"#utility.yul\":4880:4900   */\n      tag_143\n      tag_46\n      jump\t// in\n    tag_143:\n        /* \"#utility.yul\":4870:4900   */\n      swap1\n      pop\n        /* \"#utility.yul\":4909:4942   */\n      tag_144\n        /* \"#utility.yul\":4937:4941   */\n      dup3\n        /* \"#utility.yul\":4929:4935   */\n      dup3\n        /* \"#utility.yul\":4909:4942   */\n      tag_64\n      jump\t// in\n    tag_144:\n        /* \"#utility.yul\":4819:4948   */\n      swap2\n      swap1\n      pop\n      jump\t// out\n        /* \"#utility.yul\":4954:5262   */\n    tag_66:\n        /* \"#utility.yul\":5016:5020   */\n      0x00\n        /* \"#utility.yul\":5106:5124   */\n      0xffffffffffffffff\n        /* \"#utility.yul\":5098:5104   */\n      dup3\n        /* \"#utility.yul\":5095:5125   */\n      gt\n        /* \"#utility.yul\":5092:5148   */\n      iszero\n      tag_146\n      jumpi\n        /* \"#utility.yul\":5128:5146   */\n      tag_147\n      tag_63\n      jump\t// in\n    tag_147:\n        /* \"#utility.yul\":5092:5148   */\n    tag_146:\n        /* \"#utility.yul\":5166:5195   */\n      tag_148\n        /* \"#utility.yul\":5188:5194   */\n      dup3\n        /* \"#utility.yul\":5166:5195   */\n      tag_56\n      jump\t// in\n    tag_148:\n        /* \"#utility.yul\":5158:5195   */\n      swap1\n      pop\n        /* \"#utility.yul\":5250:5254   */\n      0x20\n        /* \"#utility.yul\":5244:5248   */\n      dup2\n        /* \"#utility.yul\":5240:5255   */\n      add\n        /* \"#utility.yul\":5232:5255   */\n      swap1\n      pop\n        /* \"#utility.yul\":4954:5262   */\n      swap2\n      swap1\n      pop\n      jump\t// out\n        /* \"#utility.yul\":5268:5414   */\n    tag_67:\n        /* \"#utility.yul\":5365:5371   */\n      dup3\n        /* \"#utility.yul\":5360:5363   */\n      dup2\n        /* \"#utility.yul\":5355:5358   */\n      dup4\n        /* \"#utility.yul\":5342:5372   */\n      calldatacopy\n        /* \"#utility.yul\":5406:5407   */\n      0x00\n        /* \"#utility.yul\":5397:5403   */\n      dup4\n        /* \"#utility.yul\":5392:5395   */\n      dup4\n        /* \"#utility.yul\":5388:5404   */\n      add\n        /* \"#utility.yul\":5381:5408   */\n      mstore\n        /* \"#utility.yul\":5268:5414   */\n      pop\n      pop\n      pop\n      jump\t// out\n        /* \"#utility.yul\":5420:5845   */\n    tag_68:\n        /* \"#utility.yul\":5498:5503   */\n      0x00\n        /* \"#utility.yul\":5523:5589   */\n      tag_151\n        /* \"#utility.yul\":5539:5588   */\n      tag_152\n        /* \"#utility.yul\":5581:5587   */\n      dup5\n        /* \"#utility.yul\":5539:5588   */\n      tag_66\n      jump\t// in\n    tag_152:\n        /* \"#utility.yul\":5523:5589   */\n      tag_65\n      jump\t// in\n    tag_151:\n        /* \"#utility.yul\":5514:5589   */\n      swap1\n      pop\n        /* \"#utility.yul\":5612:5618   */\n      dup3\n        /* \"#utility.yul\":5605:5610   */\n      dup2\n        /* \"#utility.yul\":5598:5619   */\n      mstore\n        /* \"#utility.yul\":5650:5654   */\n      0x20\n        /* \"#utility.yul\":5643:5648   */\n      dup2\n        /* \"#utility.yul\":5639:5655   */\n      add\n        /* \"#utility.yul\":5688:5691   */\n      dup5\n        /* \"#utility.yul\":5679:5685   */\n      dup5\n        /* \"#utility.yul\":5674:5677   */\n      dup5\n        /* \"#utility.yul\":5670:5686   */\n      add\n        /* \"#utility.yul\":5667:5692   */\n      gt\n        /* \"#utility.yul\":5664:5776   */\n      iszero\n      tag_153\n      jumpi\n        /* \"#utility.yul\":5695:5774   */\n      tag_154\n      tag_62\n      jump\t// in\n    tag_154:\n        /* \"#utility.yul\":5664:5776   */\n    tag_153:\n        /* \"#utility.yul\":5785:5839   */\n      tag_155\n        /* \"#utility.yul\":5832:5838   */\n      dup5\n        /* \"#utility.yul\":5827:5830   */\n      dup3\n        /* \"#utility.yul\":5822:5825   */\n      dup6\n        /* \"#utility.yul\":5785:5839   */\n      tag_67\n      jump\t// in\n    tag_155:\n        /* \"#utility.yul\":5504:5845   */\n      pop\n        /* \"#utility.yul\":5420:5845   */\n      swap4\n      swap3\n      pop\n      pop\n      pop\n      jump\t// out\n        /* \"#utility.yul\":5865:6205   */\n    tag_69:\n        /* \"#utility.yul\":5921:5926   */\n      0x00\n        /* \"#utility.yul\":5970:5973   */\n      dup3\n        /* \"#utility.yul\":5963:5967   */\n      0x1f\n        /* \"#utility.yul\":5955:5961   */\n      dup4\n        /* \"#utility.yul\":5951:5968   */\n      add\n        /* \"#utility.yul\":5947:5974   */\n      slt\n        /* \"#utility.yul\":5937:6059   */\n      tag_157\n      jumpi\n        /* \"#utility.yul\":5978:6057   */\n      tag_158\n      tag_58\n      jump\t// in\n    tag_158:\n        /* \"#utility.yul\":5937:6059   */\n    tag_157:\n        /* \"#utility.yul\":6095:6101   */\n      dup2\n        /* \"#utility.yul\":6082:6102   */\n      calldataload\n        /* \"#utility.yul\":6120:6199   */\n      tag_159\n        /* \"#utility.yul\":6195:6198   */\n      dup5\n        /* \"#utility.yul\":6187:6193   */\n      dup3\n        /* \"#utility.yul\":6180:6184   */\n      0x20\n        /* \"#utility.yul\":6172:6178   */\n      dup7\n        /* \"#utility.yul\":6168:6185   */\n      add\n        /* \"#utility.yul\":6120:6199   */\n      tag_68\n      jump\t// in\n    tag_159:\n        /* \"#utility.yul\":6111:6199   */\n      swap2\n      pop\n        /* \"#utility.yul\":5927:6205   */\n      pop\n        /* \"#utility.yul\":5865:6205   */\n      swap3\n      swap2\n      pop\n      pop\n      jump\t// out\n        /* \"#utility.yul\":6211:6720   */\n    tag_23:\n        /* \"#utility.yul\":6280:6286   */\n      0x00\n        /* \"#utility.yul\":6329:6331   */\n      0x20\n        /* \"#utility.yul\":6317:6326   */\n      dup3\n        /* \"#utility.yul\":6308:6315   */\n      dup5\n        /* \"#utility.yul\":6304:6327   */\n      sub\n        /* \"#utility.yul\":6300:6332   */\n      slt\n        /* \"#utility.yul\":6297:6416   */\n      iszero\n      tag_161\n      jumpi\n        /* \"#utility.yul\":6335:6414   */\n      tag_162\n      tag_47\n      jump\t// in\n    tag_162:\n        /* \"#utility.yul\":6297:6416   */\n    tag_161:\n        /* \"#utility.yul\":6483:6484   */\n      0x00\n        /* \"#utility.yul\":6472:6481   */\n      dup3\n        /* \"#utility.yul\":6468:6485   */\n      add\n        /* \"#utility.yul\":6455:6486   */\n      calldataload\n        /* \"#utility.yul\":6513:6531   */\n      0xffffffffffffffff\n        /* \"#utility.yul\":6505:6511   */\n      dup2\n        /* \"#utility.yul\":6502:6532   */\n      gt\n        /* \"#utility.yul\":6499:6616   */\n      iszero\n      tag_163\n      jumpi\n        /* \"#utility.yul\":6535:6614   */\n      tag_164\n      tag_48\n      jump\t// in\n    tag_164:\n        /* \"#utility.yul\":6499:6616   */\n    tag_163:\n        /* \"#utility.yul\":6640:6703   */\n      tag_165\n        /* \"#utility.yul\":6695:6702   */\n      dup5\n        /* \"#utility.yul\":6686:6692   */\n      dup3\n        /* \"#utility.yul\":6675:6684   */\n      dup6\n        /* \"#utility.yul\":6671:6693   */\n      add\n        /* \"#utility.yul\":6640:6703   */\n      tag_69\n      jump\t// in\n    tag_165:\n        /* \"#utility.yul\":6630:6703   */\n      swap2\n      pop\n        /* \"#utility.yul\":6426:6713   */\n      pop\n        /* \"#utility.yul\":6211:6720   */\n      swap3\n      swap2\n      pop\n      pop\n      jump\t// out\n        /* \"#utility.yul\":6726:6948   */\n    tag_26:\n        /* \"#utility.yul\":6819:6823   */\n      0x00\n        /* \"#utility.yul\":6857:6859   */\n      0x20\n        /* \"#utility.yul\":6846:6855   */\n      dup3\n        /* \"#utility.yul\":6842:6860   */\n      add\n        /* \"#utility.yul\":6834:6860   */\n      swap1\n      pop\n        /* \"#utility.yul\":6870:6941   */\n      tag_167\n        /* \"#utility.yul\":6938:6939   */\n      0x00\n        /* \"#utility.yul\":6927:6936   */\n      dup4\n        /* \"#utility.yul\":6923:6940   */\n      add\n        /* \"#utility.yul\":6914:6920   */\n      dup5\n        /* \"#utility.yul\":6870:6941   */\n      tag_52\n      jump\t// in\n    tag_167:\n        /* \"#utility.yul\":6726:6948   */\n      swap3\n      swap2\n      pop\n      pop\n      jump\t// out\n        /* \"#utility.yul\":6954:7134   */\n    tag_70:\n        /* \"#utility.yul\":7002:7079   */\n      0x4e487b7100000000000000000000000000000000000000000000000000000000\n        /* \"#utility.yul\":6999:7000   */\n      0x00\n        /* \"#utility.yul\":6992:7080   */\n      mstore\n        /* \"#utility.yul\":7099:7103   */\n      0x22\n        /* \"#utility.yul\":7096:7097   */\n      0x04\n        /* \"#utility.yul\":7089:7104   */\n      mstore\n        /* \"#utility.yul\":7123:7127   */\n      0x24\n        /* \"#utility.yul\":7120:7121   */\n      0x00\n        /* \"#utility.yul\":7113:7128   */\n      revert\n        /* \"#utility.yul\":7140:7460   */\n    tag_34:\n        /* \"#utility.yul\":7184:7190   */\n      0x00\n        /* \"#utility.yul\":7221:7222   */\n      0x02\n        /* \"#utility.yul\":7215:7219   */\n      dup3\n        /* \"#utility.yul\":7211:7223   */\n      div\n        /* \"#utility.yul\":7201:7223   */\n      swap1\n      pop\n        /* \"#utility.yul\":7268:7269   */\n      0x01\n        /* \"#utility.yul\":7262:7266   */\n      dup3\n        /* \"#utility.yul\":7258:7270   */\n      and\n        /* \"#utility.yul\":7289:7307   */\n      dup1\n        /* \"#utility.yul\":7279:7360   */\n      tag_170\n      jumpi\n        /* \"#utility.yul\":7345:7349   */\n      0x7f\n        /* \"#utility.yul\":7337:7343   */\n      dup3\n        /* \"#utility.yul\":7333:7350   */\n      and\n        /* \"#utility.yul\":7323:7350   */\n      swap2\n      pop\n        /* \"#utility.yul\":7279:7360   */\n    tag_170:\n        /* \"#utility.yul\":7407:7409   */\n      0x20\n        /* \"#utility.yul\":7399:7405   */\n      dup3\n        /* \"#utility.yul\":7396:7410   */\n      lt\n        /* \"#utility.yul\":7376:7394   */\n      dup2\n        /* \"#utility.yul\":7373:7411   */\n      sub\n        /* \"#utility.yul\":7370:7454   */\n      tag_171\n      jumpi\n        /* \"#utility.yul\":7426:7444   */\n      tag_172\n      tag_70\n      jump\t// in\n    tag_172:\n        /* \"#utility.yul\":7370:7454   */\n    tag_171:\n        /* \"#utility.yul\":7191:7460   */\n      pop\n        /* \"#utility.yul\":7140:7460   */\n      swap2\n      swap1\n      pop\n      jump\t// out\n        /* \"#utility.yul\":7466:7607   */\n    tag_71:\n        /* \"#utility.yul\":7515:7519   */\n      0x00\n        /* \"#utility.yul\":7538:7541   */\n      dup2\n        /* \"#utility.yul\":7530:7541   */\n      swap1\n      pop\n        /* \"#utility.yul\":7561:7564   */\n      dup2\n        /* \"#utility.yul\":7558:7559   */\n      0x00\n        /* \"#utility.yul\":7551:7565   */\n      mstore\n        /* \"#utility.yul\":7595:7599   */\n      0x20\n        /* \"#utility.yul\":7592:7593   */\n      0x00\n        /* \"#utility.yul\":7582:7600   */\n      keccak256\n        /* \"#utility.yul\":7574:7600   */\n      swap1\n      pop\n        /* \"#utility.yul\":7466:7607   */\n      swap2\n      swap1\n      pop\n      jump\t// out\n        /* \"#utility.yul\":7613:7706   */\n    tag_72:\n        /* \"#utility.yul\":7650:7656   */\n      0x00\n        /* \"#utility.yul\":7697:7699   */\n      0x20\n        /* \"#utility.yul\":7692:7694   */\n      0x1f\n        /* \"#utility.yul\":7685:7690   */\n      dup4\n        /* \"#utility.yul\":7681:7695   */\n      add\n        /* \"#utility.yul\":7677:7700   */\n      div\n        /* \"#utility.yul\":7667:7700   */\n      swap1\n      pop\n        /* \"#utility.yul\":7613:7706   */\n      swap2\n      swap1\n      pop\n      jump\t// out\n        /* \"#utility.yul\":7712:7819   */\n    tag_73:\n        /* \"#utility.yul\":7756:7764   */\n      0x00\n        /* \"#utility.yul\":7806:7811   */\n      dup3\n        /* \"#utility.yul\":7800:7804   */\n      dup3\n        /* \"#utility.yul\":7796:7812   */\n      shl\n        /* \"#utility.yul\":7775:7812   */\n      swap1\n      pop\n        /* \"#utility.yul\":7712:7819   */\n      swap3\n      swap2\n      pop\n      pop\n      jump\t// out\n        /* \"#utility.yul\":7825:8218   */\n    tag_74:\n        /* \"#utility.yul\":7894:7900   */\n      0x00\n        /* \"#utility.yul\":7944:7945   */\n      0x08\n        /* \"#utility.yul\":7932:7942   */\n      dup4\n        /* \"#utility.yul\":7928:7946   */\n      mul\n        /* \"#utility.yul\":7967:8064   */\n      tag_177\n        /* \"#utility.yul\":7997:8063   */\n      0xffffffffffffffffffffffffffffffffffffffffffffffffffffffffffffffff\n        /* \"#utility.yul\":7986:7995   */\n      dup3\n        /* \"#utility.yul\":7967:8064   */\n      tag_73\n      jump\t// in\n    tag_177:\n        /* \"#utility.yul\":8085:8124   */\n      tag_178\n        /* \"#utility.yul\":8115:8123   */\n      dup7\n        /* \"#utility.yul\":8104:8113   */\n      dup4\n        /* \"#utility.yul\":8085:8124   */\n      tag_73\n      jump\t// in\n    tag_178:\n        /* \"#utility.yul\":8073:8124   */\n      swap6\n      pop\n        /* \"#utility.yul\":8157:8161   */\n      dup1\n        /* \"#utility.yul\":8153:8162   */\n      not\n        /* \"#utility.yul\":8146:8151   */\n      dup5\n        /* \"#utility.yul\":8142:8163   */\n      and\n        /* \"#utility.yul\":8133:8163   */\n      swap4\n      pop\n        /* \"#utility.yul\":8206:8210   */\n      dup1\n        /* \"#utility.yul\":8196:8204   */\n      dup7\n        /* \"#utility.yul\":8192:8211   */\n      and\n        /* \"#utility.yul\":8185:8190   */\n      dup5\n        /* \"#utility.yul\":8182:8212   */\n      or\n        /* \"#utility.yul\":8172:8212   */\n      swap3\n      pop\n        /* \"#utility.yul\":7901:8218   */\n      pop\n      pop\n        /* \"#utility.yul\":7825:8218   */\n      swap4\n      swap3\n      pop\n      pop\n      pop\n      jump\t// out\n        /* \"#utility.yul\":8224:8284   */\n    tag_75:\n        /* \"#utility.yul\":8252:8255   */\n      0x00\n        /* \"#utility.yul\":8273:8278   */\n      dup2\n        /* \"#utility.yul\":8266:8278   */\n      swap1\n      pop\n        /* \"#utility.yul\":8224:8284   */\n      swap2\n      swap1\n      pop\n      jump\t// out\n        /* \"#utility.yul\":8290:8432   */\n    tag_76:\n        /* \"#utility.yul\":8340:8349   */\n      0x00\n        /* \"#utility.yul\":8373:8426   */\n      tag_181\n        /* \"#utility.yul\":8391:8425   */\n      tag_182\n        /* \"#utility.yul\":8400:8424   */\n      tag_183\n        /* \"#utility.yul\":8418:8423   */\n      dup5\n        /* \"#utility.yul\":8400:8424   */\n      tag_49\n      jump\t// in\n    tag_183:\n        /* \"#utility.yul\":8391:8425   */\n      tag_75\n      jump\t// in\n    tag_182:\n        /* \"#utility.yul\":8373:8426   */\n      tag_49\n      jump\t// in\n    tag_181:\n        /* \"#utility.yul\":8360:8426   */\n      swap1\n      pop\n        /* \"#utility.yul\":8290:8432   */\n      swap2\n      swap1\n      pop\n      jump\t// out\n        /* \"#utility.yul\":8438:8513   */\n    tag_77:\n        /* \"#utility.yul\":8481:8484   */\n      0x00\n        /* \"#utility.yul\":8502:8507   */\n      dup2\n        /* \"#utility.yul\":8495:8507   */\n      swap1\n      pop\n        /* \"#utility.yul\":8438:8513   */\n      swap2\n      swap1\n      pop\n      jump\t// out\n        /* \"#utility.yul\":8519:8788   */\n    tag_78:\n        /* \"#utility.yul\":8629:8668   */\n      tag_186\n        /* \"#utility.yul\":8660:8667   */\n      dup4\n        /* \"#utility.yul\":8629:8668   */\n      tag_76\n      jump\t// in\n    tag_186:\n        /* \"#utility.yul\":8690:8781   */\n      tag_187\n        /* \"#utility.yul\":8739:8780   */\n      tag_188\n        /* \"#utility.yul\":8763:8779   */\n      dup3\n        /* \"#utility.yul\":8739:8780   */\n      tag_77\n      jump\t// in\n    tag_188:\n        /* \"#utility.yul\":8731:8737   */\n      dup5\n        /* \"#utility.yul\":8724:8728   */\n      dup5\n        /* \"#utility.yul\":8718:8729   */\n      sload\n        /* \"#utility.yul\":8690:8781   */\n      tag_74\n      jump\t// in\n    tag_187:\n        /* \"#utility.yul\":8684:8688   */\n      dup3\n        /* \"#utility.yul\":8677:8782   */\n      sstore\n        /* \"#utility.yul\":8595:8788   */\n      pop\n        /* \"#utility.yul\":8519:8788   */\n      pop\n      pop\n      pop\n      jump\t// out\n        /* \"#utility.yul\":8794:8867   */\n    tag_79:\n        /* \"#utility.yul\":8839:8842   */\n      0x00\n        /* \"#utility.yul\":8794:8867   */\n      swap1\n      jump\t// out\n        /* \"#utility.yul\":8873:9062   */\n    tag_80:\n        /* \"#utility.yul\":8950:8982   */\n      tag_191\n      tag_79\n      jump\t// in\n    tag_191:\n        /* \"#utility.yul\":8991:9056   */\n      tag_192\n        /* \"#utility.yul\":9049:9055   */\n      dup2\n        /* \"#utility.yul\":9041:9047   */\n      dup5\n        /* \"#utility.yul\":9035:9039   */\n      dup5\n        /* \"#utility.yul\":8991:9056   */\n      tag_78\n      jump\t// in\n    tag_192:\n        /* \"#utility.yul\":8926:9062   */\n      pop\n        /* \"#utility.yul\":8873:9062   */\n      pop\n      pop\n      jump\t// out\n        /* \"#utility.yul\":9068:9254   */\n    tag_81:\n        /* \"#utility.yul\":9128:9248   */\n    tag_194:\n        /* \"#utility.yul\":9145:9148   */\n      dup2\n        /* \"#utility.yul\":9138:9143   */\n      dup2\n        /* \"#utility.yul\":9135:9149   */\n      lt\n        /* \"#utility.yul\":9128:9248   */\n      iszero\n      tag_196\n      jumpi\n        /* \"#utility.yul\":9199:9238   */\n      tag_197\n        /* \"#utility.yul\":9236:9237   */\n      0x00\n        /* \"#utility.yul\":9229:9234   */\n      dup3\n        /* \"#utility.yul\":9199:9238   */\n      tag_80\n      jump\t// in\n    tag_197:\n        /* \"#utility.yul\":9172:9173   */\n      0x01\n        /* \"#utility.yul\":9165:9170   */\n      dup2\n        /* \"#utility.yul\":9161:9174   */\n      add\n        /* \"#utility.yul\":9152:9174   */\n      swap1\n      pop\n        /* \"#utility.yul\":9128:9248   */\n      jump(tag_194)\n    tag_196:\n        /* \"#utility.yul\":9068:9254   */\n      pop\n      pop\n      jump\t// out\n        /* \"#utility.yul\":9260:9803   */\n    tag_82:\n        /* \"#utility.yul\":9361:9363   */\n      0x1f\n        /* \"#utility.yul\":9356:9359   */\n      dup3\n        /* \"#utility.yul\":9353:9364   */\n      gt\n        /* \"#utility.yul\":9350:9796   */\n      iszero\n      tag_199\n      jumpi\n        /* \"#utility.yul\":9395:9433   */\n      tag_200\n        /* \"#utility.yul\":9427:9432   */\n      dup2\n        /* \"#utility.yul\":9395:9433   */\n      tag_71\n      jump\t// in\n    tag_200:\n        /* \"#utility.yul\":9479:9508   */\n      tag_201\n        /* \"#utility.yul\":9497:9507   */\n      dup5\n        /* \"#utility.yul\":9479:9508   */\n      tag_72\n      jump\t// in\n    tag_201:\n        /* \"#utility.yul\":9469:9477   */\n      dup2\n        /* \"#utility.yul\":9465:9509   */\n      add\n        /* \"#utility.yul\":9662:9664   */\n      0x20\n        /* \"#utility.yul\":9650:9660   */\n      dup6\n        /* \"#utility.yul\":9647:9665   */\n      lt\n        /* \"#utility.yul\":9644:9693   */\n      iszero\n      tag_202\n      jumpi\n        /* \"#utility.yul\":9683:9691   */\n      dup2\n        /* \"#utility.yul\":9668:9691   */\n      swap1\n      pop\n        /* \"#utility.yul\":9644:9693   */\n    tag_202:\n        /* \"#utility.yul\":9706:9786   */\n      tag_203\n        /* \"#utility.yul\":9762:9784   */\n      tag_204\n        /* \"#utility.yul\":9780:9783   */\n      dup6\n        /* \"#utility.yul\":9762:9784   */\n      tag_72\n      jump\t// in\n    tag_204:\n        /* \"#utility.yul\":9752:9760   */\n      dup4\n        /* \"#utility.yul\":9748:9785   */\n      add\n        /* \"#utility.yul\":9735:9746   */\n      dup3\n        /* \"#utility.yul\":9706:9786   */\n      tag_81\n      jump\t// in\n    tag_203:\n        /* \"#utility.yul\":9365:9796   */\n      pop\n      pop\n        /* \"#utility.yul\":9350:9796   */\n    tag_199:\n        /* \"#utility.yul\":9260:9803   */\n      pop\n      pop\n      pop\n      jump\t// out\n        /* \"#utility.yul\":9809:9926   */\n    tag_83:\n        /* \"#utility.yul\":9863:9871   */\n      0x00\n        /* \"#utility.yul\":9913:9918   */\n      dup3\n        /* \"#utility.yul\":9907:9911   */\n      dup3\n        /* \"#utility.yul\":9903:9919   */\n      shr\n        /* \"#utility.yul\":9882:9919   */\n      swap1\n      pop\n        /* \"#utility.yul\":9809:9926   */\n      swap3\n      swap2\n      pop\n      pop\n      jump\t// out\n        /* \"#utility.yul\":9932:10101   */\n    tag_84:\n        /* \"#utility.yul\":9976:9982   */\n      0x00\n        /* \"#utility.yul\":10009:10060   */\n      tag_207\n        /* \"#utility.yul\":10057:10058   */\n      0x00\n        /* \"#utility.yul\":10053:10059   */\n      not\n        /* \"#utility.yul\":10045:10050   */\n      dup5\n        /* \"#utility.yul\":10042:10043   */\n      0x08\n        /* \"#utility.yul\":10038:10051   */\n      mul\n        /* \"#utility.yul\":10009:10060   */\n      tag_83\n      jump\t// in\n    tag_207:\n        /* \"#utility.yul\":10005:10061   */\n      not\n        /* \"#utility.yul\":10090:10094   */\n      dup1\n        /* \"#utility.yul\":10084:10088   */\n      dup4\n        /* \"#utility.yul\":10080:10095   */\n      and\n        /* \"#utility.yul\":10070:10095   */\n      swap2\n      pop\n        /* \"#utility.yul\":9983:10101   */\n      pop\n        /* \"#utility.yul\":9932:10101   */\n      swap3\n      swap2\n      pop\n      pop\n      jump\t// out\n        /* \"#utility.yul\":10106:10401   */\n    tag_85:\n        /* \"#utility.yul\":10182:10186   */\n      0x00\n        /* \"#utility.yul\":10328:10357   */\n      tag_209\n        /* \"#utility.yul\":10353:10356   */\n      dup4\n        /* \"#utility.yul\":10347:10351   */\n      dup4\n        /* \"#utility.yul\":10328:10357   */\n      tag_84\n      jump\t// in\n    tag_209:\n        /* \"#utility.yul\":10320:10357   */\n      swap2\n      pop\n        /* \"#utility.yul\":10390:10393   */\n      dup3\n        /* \"#utility.yul\":10387:10388   */\n      0x02\n        /* \"#utility.yul\":10383:10394   */\n      mul\n        /* \"#utility.yul\":10377:10381   */\n      dup3\n        /* \"#utility.yul\":10374:10395   */\n      or\n        /* \"#utility.yul\":10366:10395   */\n      swap1\n      pop\n        /* \"#utility.yul\":10106:10401   */\n      swap3\n      swap2\n      pop\n      pop\n      jump\t// out\n        /* \"#utility.yul\":10406:11801   */\n    tag_42:\n        /* \"#utility.yul\":10523:10560   */\n      tag_211\n        /* \"#utility.yul\":10556:10559   */\n      dup3\n        /* \"#utility.yul\":10523:10560   */\n      tag_53\n      jump\t// in\n    tag_211:\n        /* \"#utility.yul\":10625:10643   */\n      0xffffffffffffffff\n        /* \"#utility.yul\":10617:10623   */\n      dup2\n        /* \"#utility.yul\":10614:10644   */\n      gt\n        /* \"#utility.yul\":10611:10667   */\n      iszero\n      tag_212\n      jumpi\n        /* \"#utility.yul\":10647:10665   */\n      tag_213\n      tag_63\n      jump\t// in\n    tag_213:\n        /* \"#utility.yul\":10611:10667   */\n    tag_212:\n        /* \"#utility.yul\":10691:10729   */\n      tag_214\n        /* \"#utility.yul\":10723:10727   */\n      dup3\n        /* \"#utility.yul\":10717:10728   */\n      sload\n        /* \"#utility.yul\":10691:10729   */\n      tag_34\n      jump\t// in\n    tag_214:\n        /* \"#utility.yul\":10776:10843   */\n      tag_215\n        /* \"#utility.yul\":10836:10842   */\n      dup3\n        /* \"#utility.yul\":10828:10834   */\n      dup3\n        /* \"#utility.yul\":10822:10826   */\n      dup6\n        /* \"#utility.yul\":10776:10843   */\n      tag_82\n      jump\t// in\n    tag_215:\n        /* \"#utility.yul\":10870:10871   */\n      0x00\n        /* \"#utility.yul\":10894:10898   */\n      0x20\n        /* \"#utility.yul\":10881:10898   */\n      swap1\n      pop\n        /* \"#utility.yul\":10926:10928   */\n      0x1f\n        /* \"#utility.yul\":10918:10924   */\n      dup4\n        /* \"#utility.yul\":10915:10929   */\n      gt\n        /* \"#utility.yul\":10943:10944   */\n      0x01\n        /* \"#utility.yul\":10938:11556   */\n      dup2\n      eq\n      tag_217\n      jumpi\n        /* \"#utility.yul\":11600:11601   */\n      0x00\n        /* \"#utility.yul\":11617:11623   */\n      dup5\n        /* \"#utility.yul\":11614:11691   */\n      iszero\n      tag_218\n      jumpi\n        /* \"#utility.yul\":11666:11675   */\n      dup3\n        /* \"#utility.yul\":11661:11664   */\n      dup8\n        /* \"#utility.yul\":11657:11676   */\n      add\n        /* \"#utility.yul\":11651:11677   */\n      mload\n        /* \"#utility.yul\":11642:11677   */\n      swap1\n      pop\n        /* \"#utility.yul\":11614:11691   */\n    tag_218:\n        /* \"#utility.yul\":11717:11784   */\n      tag_219\n        /* \"#utility.yul\":11777:11783   */\n      dup6\n        /* \"#utility.yul\":11770:11775   */\n      dup3\n        /* \"#utility.yul\":11717:11784   */\n      tag_85\n      jump\t// in\n    tag_219:\n        /* \"#utility.yul\":11711:11715   */\n      dup7\n        /* \"#utility.yul\":11704:11785   */\n      sstore\n        /* \"#utility.yul\":11573:11795   */\n      pop\n        /* \"#utility.yul\":10908:11795   */\n      jump(tag_216)\n        /* \"#utility.yul\":10938:11556   */\n    tag_217:\n        /* \"#utility.yul\":10990:10994   */\n      0x1f\n        /* \"#utility.yul\":10986:10995   */\n      not\n        /* \"#utility.yul\":10978:10984   */\n      dup5\n        /* \"#utility.yul\":10974:10996   */\n      and\n        /* \"#utility.yul\":11024:11061   */\n      tag_220\n        /* \"#utility.yul\":11056:11060   */\n      dup7\n        /* \"#utility.yul\":11024:11061   */\n      tag_71\n      jump\t// in\n    tag_220:\n        /* \"#utility.yul\":11083:11084   */\n      0x00\n        /* \"#utility.yul\":11097:11305   */\n    tag_221:\n        /* \"#utility.yul\":11111:11118   */\n      dup3\n        /* \"#utility.yul\":11108:11109   */\n      dup2\n        /* \"#utility.yul\":11105:11119   */\n      lt\n        /* \"#utility.yul\":11097:11305   */\n      iszero\n      tag_223\n      jumpi\n        /* \"#utility.yul\":11190:11199   */\n      dup5\n        /* \"#utility.yul\":11185:11188   */\n      dup10\n        /* \"#utility.yul\":11181:11200   */\n      add\n        /* \"#utility.yul\":11175:11201   */\n      mload\n        /* \"#utility.yul\":11167:11173   */\n      dup3\n        /* \"#utility.yul\":11160:11202   */\n      sstore\n        /* \"#utility.yul\":11241:11242   */\n      0x01\n        /* \"#utility.yul\":11233:11239   */\n      dup3\n        /* \"#utility.yul\":11229:11243   */\n      add\n        /* \"#utility.yul\":11219:11243   */\n      swap2\n      pop\n        /* \"#utility.yul\":11288:11290   */\n      0x20\n        /* \"#utility.yul\":11277:11286   */\n      dup6\n        /* \"#utility.yul\":11273:11291   */\n      add\n        /* \"#utility.yul\":11260:11291   */\n      swap5\n      pop\n        /* \"#utility.yul\":11134:11138   */\n      0x20\n        /* \"#utility.yul\":11131:11132   */\n      dup2\n        /* \"#utility.yul\":11127:11139   */\n      add\n        /* \"#utility.yul\":11122:11139   */\n      swap1\n      pop\n        /* \"#utility.yul\":11097:11305   */\n      jump(tag_221)\n    tag_223:\n        /* \"#utility.yul\":11333:11339   */\n      dup7\n        /* \"#utility.yul\":11324:11331   */\n      dup4\n        /* \"#utility.yul\":11321:11340   */\n      lt\n        /* \"#utility.yul\":11318:11497   */\n      iszero\n      tag_224\n      jumpi\n        /* \"#utility.yul\":11391:11400   */\n      dup5\n        /* \"#utility.yul\":11386:11389   */\n      dup10\n        /* \"#utility.yul\":11382:11401   */\n      add\n        /* \"#utility.yul\":11376:11402   */\n      mload\n        /* \"#utility.yul\":11434:11482   */\n      tag_225\n        /* \"#utility.yul\":11476:11480   */\n      0x1f\n        /* \"#utility.yul\":11468:11474   */\n      dup10\n        /* \"#utility.yul\":11464:11481   */\n      and\n        /* \"#utility.yul\":11453:11462   */\n      dup3\n        /* \"#utility.yul\":11434:11482   */\n      tag_84\n      jump\t// in\n    tag_225:\n        /* \"#utility.yul\":11426:11432   */\n      dup4\n        /* \"#utility.yul\":11419:11483   */\n      sstore\n        /* \"#utility.yul\":11341:11497   */\n      pop\n        /* \"#utility.yul\":11318:11497   */\n    tag_224:\n        /* \"#utility.yul\":11543:11544   */\n      0x01\n        /* \"#utility.yul\":11539:11540   */\n      0x02\n        /* \"#utility.yul\":11531:11537   */\n      dup9\n        /* \"#utility.yul\":11527:11541   */\n      mul\n        /* \"#utility.yul\":11523:11545   */\n      add\n        /* \"#utility.yul\":11517:11521   */\n      dup9\n        /* \"#utility.yul\":11510:11546   */\n      sstore\n        /* \"#utility.yul\":10945:11556   */\n      pop\n      pop\n      pop\n        /* \"#utility.yul\":10908:11795   */\n    tag_216:\n      pop\n        /* \"#utility.yul\":10498:11801   */\n      pop\n      pop\n      pop\n        /* \"#utility.yul\":10406:11801   */\n      pop\n      pop\n      jump\t// out\n        /* \"#utility.yul\":11807:11955   */\n    tag_86:\n        /* \"#utility.yul\":11909:11920   */\n      0x00\n        /* \"#utility.yul\":11946:11949   */\n      dup2\n        /* \"#utility.yul\":11931:11949   */\n      swap1\n      pop\n        /* \"#utility.yul\":11807:11955   */\n      swap3\n      swap2\n      pop\n      pop\n      jump\t// out\n        /* \"#utility.yul\":11985:12315   */\n    tag_87:\n        /* \"#utility.yul\":12101:12104   */\n      0x00\n        /* \"#utility.yul\":12122:12211   */\n      tag_228\n        /* \"#utility.yul\":12204:12210   */\n      dup4\n        /* \"#utility.yul\":12199:12202   */\n      dup6\n        /* \"#utility.yul\":12122:12211   */\n      tag_86\n      jump\t// in\n    tag_228:\n        /* \"#utility.yul\":12115:12211   */\n      swap4\n      pop\n        /* \"#utility.yul\":12221:12277   */\n      tag_229\n        /* \"#utility.yul\":12270:12276   */\n      dup4\n        /* \"#utility.yul\":12265:12268   */\n      dup6\n        /* \"#utility.yul\":12258:12263   */\n      dup5\n        /* \"#utility.yul\":12221:12277   */\n      tag_67\n      jump\t// in\n    tag_229:\n        /* \"#utility.yul\":12302:12308   */\n      dup3\n        /* \"#utility.yul\":12297:12300   */\n      dup5\n        /* \"#utility.yul\":12293:12309   */\n      add\n        /* \"#utility.yul\":12286:12309   */\n      swap1\n      pop\n        /* \"#utility.yul\":11985:12315   */\n      swap4\n      swap3\n      pop\n      pop\n      pop\n      jump\t// out\n        /* \"#utility.yul\":12321:12616   */\n    tag_44:\n        /* \"#utility.yul\":12463:12466   */\n      0x00\n        /* \"#utility.yul\":12485:12590   */\n      tag_231\n        /* \"#utility.yul\":12586:12589   */\n      dup3\n        /* \"#utility.yul\":12577:12583   */\n      dup5\n        /* \"#utility.yul\":12569:12575   */\n      dup7\n        /* \"#utility.yul\":12485:12590   */\n      tag_87\n      jump\t// in\n    tag_231:\n        /* \"#utility.yul\":12478:12590   */\n      swap2\n      pop\n        /* \"#utility.yul\":12607:12610   */\n      dup2\n        /* \"#utility.yul\":12600:12610   */\n      swap1\n      pop\n        /* \"#utility.yul\":12321:12616   */\n      swap4\n      swap3\n      pop\n      pop\n      pop\n      jump\t// out\n\n    auxdata: 0xa264697066735822122035ebf69351556bed2fa52aa81a617be1cf8263a308359eaf6d416b6caaa81f4564736f6c63430008120033\n}\n",
				"bytecode": {
					"linkReferences": {},
					"object": "608060405234801561001057600080fd5b506109dc806100206000396000f3fe608060405234801561001057600080fd5b50600436106100575760003560e01c80631d3849e41461005c5780636663e66d146100785780636f760f41146100a95780638bab8dd5146100c5578063993a04b7146100f5575b600080fd5b6100766004803603810190610071919061032a565b610113565b005b610092600480360381019061008d919061032a565b61011d565b6040516100a09291906103f6565b60405180910390f35b6100c360048036038101906100be919061048b565b6101d9565b005b6100df60048036038101906100da919061061b565b6102a9565b6040516100ec9190610664565b60405180910390f35b6100fd6102d7565b60405161010a9190610664565b60405180910390f35b8060008190555050565b6001818154811061012d57600080fd5b9060005260206000209060020201600091509050806000015490806001018054610156906106ae565b80601f0160208091040260200160405190810160405280929190818152602001828054610182906106ae565b80156101cf5780601f106101a4576101008083540402835291602001916101cf565b820191906000526020600020905b8154815290600101906020018083116101b257829003601f168201915b5050505050905082565b6001604051806040016040528083815260200185858080601f016020809104026020016040519081016040528093929190818152602001838380828437600081840152601f19601f82011690508083019250505050505050815250908060018154018082558091505060019003906000526020600020906002020160009091909190915060008201518160000155602082015181600101908161027c919061088b565b505050806002848460405161029292919061098d565b908152602001604051809103902081905550505050565b6002818051602081018201805184825260208301602085012081835280955050505050506000915090505481565b60008054905090565b6000604051905090565b600080fd5b600080fd5b6000819050919050565b610307816102f4565b811461031257600080fd5b50565b600081359050610324816102fe565b92915050565b6000602082840312156103405761033f6102ea565b5b600061034e84828501610315565b91505092915050565b610360816102f4565b82525050565b600081519050919050565b600082825260208201905092915050565b60005b838110156103a0578082015181840152602081019050610385565b60008484015250505050565b6000601f19601f8301169050919050565b60006103c882610366565b6103d28185610371565b93506103e2818560208601610382565b6103eb816103ac565b840191505092915050565b600060408201905061040b6000830185610357565b818103602083015261041d81846103bd565b90509392505050565b600080fd5b600080fd5b600080fd5b60008083601f84011261044b5761044a610426565b5b8235905067ffffffffffffffff8111156104685761046761042b565b5b60208301915083600182028301111561048457610483610430565b5b9250929050565b6000806000604084860312156104a4576104a36102ea565b5b600084013567ffffffffffffffff8111156104c2576104c16102ef565b5b6104ce86828701610435565b935093505060206104e186828701610315565b9150509250925092565b600080fd5b7f4e487b7100000000000000000000000000000000000000000000000000000000600052604160045260246000fd5b610528826103ac565b810181811067ffffffffffffffff82111715610547576105466104f0565b5b80604052505050565b600061055a6102e0565b9050610566828261051f565b919050565b600067ffffffffffffffff821115610586576105856104f0565b5b61058f826103ac565b9050602081019050919050565b82818337600083830152505050565b60006105be6105b98461056b565b610550565b9050828152602081018484840111156105da576105d96104eb565b5b6105e584828561059c565b509392505050565b600082601f83011261060257610601610426565b5b81356106128482602086016105ab565b91505092915050565b600060208284031215610631576106306102ea565b5b600082013567ffffffffffffffff81111561064f5761064e6102ef565b5b61065b848285016105ed565b91505092915050565b60006020820190506106796000830184610357565b92915050565b7f4e487b7100000000000000000000000000000000000000000000000000000000600052602260045260246000fd5b600060028204905060018216806106c657607f821691505b6020821081036106d9576106d861067f565b5b50919050565b60008190508160005260206000209050919050565b60006020601f8301049050919050565b600082821b905092915050565b6000600883026107417fffffffffffffffffffffffffffffffffffffffffffffffffffffffffffffffff82610704565b61074b8683610704565b95508019841693508086168417925050509392505050565b6000819050919050565b600061078861078361077e846102f4565b610763565b6102f4565b9050919050565b6000819050919050565b6107a28361076d565b6107b66107ae8261078f565b848454610711565b825550505050565b600090565b6107cb6107be565b6107d6818484610799565b505050565b5b818110156107fa576107ef6000826107c3565b6001810190506107dc565b5050565b601f82111561083f57610810816106df565b610819846106f4565b81016020851015610828578190505b61083c610834856106f4565b8301826107db565b50505b505050565b600082821c905092915050565b600061086260001984600802610844565b1980831691505092915050565b600061087b8383610851565b9150826002028217905092915050565b61089482610366565b67ffffffffffffffff8111156108ad576108ac6104f0565b5b6108b782546106ae565b6108c28282856107fe565b600060209050601f8311600181146108f557600084156108e3578287015190505b6108ed858261086f565b865550610955565b601f198416610903866106df565b60005b8281101561092b57848901518255600182019150602085019450602081019050610906565b868310156109485784890151610944601f891682610851565b8355505b6001600288020188555050505b505050505050565b600081905092915050565b6000610974838561095d565b935061098183858461059c565b82840190509392505050565b600061099a828486610968565b9150819050939250505056fea264697066735822122035ebf69351556bed2fa52aa81a617be1cf8263a308359eaf6d416b6caaa81f4564736f6c63430008120033",
					"opcodes": "PUSH1 0x80 PUSH1 0x40 MSTORE CALLVALUE DUP1 ISZERO PUSH2 0x10 JUMPI PUSH1 0x0 DUP1 REVERT JUMPDEST POP PUSH2 0x9DC DUP1 PUSH2 0x20 PUSH1 0x0 CODECOPY PUSH1 0x0 RETURN INVALID PUSH1 0x80 PUSH1 0x40 MSTORE CALLVALUE DUP1 ISZERO PUSH2 0x10 JUMPI PUSH1 0x0 DUP1 REVERT JUMPDEST POP PUSH1 0x4 CALLDATASIZE LT PUSH2 0x57 JUMPI PUSH1 0x0 CALLDATALOAD PUSH1 0xE0 SHR DUP1 PUSH4 0x1D3849E4 EQ PUSH2 0x5C JUMPI DUP1 PUSH4 0x6663E66D EQ PUSH2 0x78 JUMPI DUP1 PUSH4 0x6F760F41 EQ PUSH2 0xA9 JUMPI DUP1 PUSH4 0x8BAB8DD5 EQ PUSH2 0xC5 JUMPI DUP1 PUSH4 0x993A04B7 EQ PUSH2 0xF5 JUMPI JUMPDEST PUSH1 0x0 DUP1 REVERT JUMPDEST PUSH2 0x76 PUSH1 0x4 DUP1 CALLDATASIZE SUB DUP2 ADD SWAP1 PUSH2 0x71 SWAP2 SWAP1 PUSH2 0x32A JUMP JUMPDEST PUSH2 0x113 JUMP JUMPDEST STOP JUMPDEST PUSH2 0x92 PUSH1 0x4 DUP1 CALLDATASIZE SUB DUP2 ADD SWAP1 PUSH2 0x8D SWAP2 SWAP1 PUSH2 0x32A JUMP JUMPDEST PUSH2 0x11D JUMP JUMPDEST PUSH1 0x40 MLOAD PUSH2 0xA0 SWAP3 SWAP2 SWAP1 PUSH2 0x3F6 JUMP JUMPDEST PUSH1 0x40 MLOAD DUP1 SWAP2 SUB SWAP1 RETURN JUMPDEST PUSH2 0xC3 PUSH1 0x4 DUP1 CALLDATASIZE SUB DUP2 ADD SWAP1 PUSH2 0xBE SWAP2 SWAP1 PUSH2 0x48B JUMP JUMPDEST PUSH2 0x1D9 JUMP JUMPDEST STOP JUMPDEST PUSH2 0xDF PUSH1 0x4 DUP1 CALLDATASIZE SUB DUP2 ADD SWAP1 PUSH2 0xDA SWAP2 SWAP1 PUSH2 0x61B JUMP JUMPDEST PUSH2 0x2A9 JUMP JUMPDEST PUSH1 0x40 MLOAD PUSH2 0xEC SWAP2 SWAP1 PUSH2 0x664 JUMP JUMPDEST PUSH1 0x40 MLOAD DUP1 SWAP2 SUB SWAP1 RETURN JUMPDEST PUSH2 0xFD PUSH2 0x2D7 JUMP JUMPDEST PUSH1 0x40 MLOAD PUSH2 0x10A SWAP2 SWAP1 PUSH2 0x664 JUMP JUMPDEST PUSH1 0x40 MLOAD DUP1 SWAP2 SUB SWAP1 RETURN JUMPDEST DUP1 PUSH1 0x0 DUP2 SWAP1 SSTORE POP POP JUMP JUMPDEST PUSH1 0x1 DUP2 DUP2 SLOAD DUP2 LT PUSH2 0x12D JUMPI PUSH1 0x0 DUP1 REVERT JUMPDEST SWAP1 PUSH1 0x0 MSTORE PUSH1 0x20 PUSH1 0x0 KECCAK256 SWAP1 PUSH1 0x2 MUL ADD PUSH1 0x0 SWAP2 POP SWAP1 POP DUP1 PUSH1 0x0 ADD SLOAD SWAP1 DUP1 PUSH1 0x1 ADD DUP1 SLOAD PUSH2 0x156 SWAP1 PUSH2 0x6AE JUMP JUMPDEST DUP1 PUSH1 0x1F ADD PUSH1 0x20 DUP1 SWAP2 DIV MUL PUSH1 0x20 ADD PUSH1 0x40 MLOAD SWAP1 DUP2 ADD PUSH1 0x40 MSTORE DUP1 SWAP3 SWAP2 SWAP1 DUP2 DUP2 MSTORE PUSH1 0x20 ADD DUP3 DUP1 SLOAD PUSH2 0x182 SWAP1 PUSH2 0x6AE JUMP JUMPDEST DUP1 ISZERO PUSH2 0x1CF JUMPI DUP1 PUSH1 0x1F LT PUSH2 0x1A4 JUMPI PUSH2 0x100 DUP1 DUP4 SLOAD DIV MUL DUP4 MSTORE SWAP2 PUSH1 0x20 ADD SWAP2 PUSH2 0x1CF JUMP JUMPDEST DUP3 ADD SWAP2 SWAP1 PUSH1 0x0 MSTORE PUSH1 0x20 PUSH1 0x0 KECCAK256 SWAP1 JUMPDEST DUP2 SLOAD DUP2 MSTORE SWAP1 PUSH1 0x1 ADD SWAP1 PUSH1 0x20 ADD DUP1 DUP4 GT PUSH2 0x1B2 JUMPI DUP3 SWAP1 SUB PUSH1 0x1F AND DUP3 ADD SWAP2 JUMPDEST POP POP POP POP POP SWAP1 POP DUP3 JUMP JUMPDEST PUSH1 0x1 PUSH1 0x40 MLOAD DUP1 PUSH1 0x40 ADD PUSH1 0x40 MSTORE DUP1 DUP4 DUP2 MSTORE PUSH1 0x20 ADD DUP6 DUP6 DUP1 DUP1 PUSH1 0x1F ADD PUSH1 0x20 DUP1 SWAP2 DIV MUL PUSH1 0x20 ADD PUSH1 0x40 MLOAD SWAP1 DUP2 ADD PUSH1 0x40 MSTORE DUP1 SWAP4 SWAP3 SWAP2 SWAP1 DUP2 DUP2 MSTORE PUSH1 0x20 ADD DUP4 DUP4 DUP1 DUP3 DUP5 CALLDATACOPY PUSH1 0x0 DUP2 DUP5 ADD MSTORE PUSH1 0x1F NOT PUSH1 0x1F DUP3 ADD AND SWAP1 POP DUP1 DUP4 ADD SWAP3 POP POP POP POP POP POP POP DUP2 MSTORE POP SWAP1 DUP1 PUSH1 0x1 DUP2 SLOAD ADD DUP1 DUP3 SSTORE DUP1 SWAP2 POP POP PUSH1 0x1 SWAP1 SUB SWAP1 PUSH1 0x0 MSTORE PUSH1 0x20 PUSH1 0x0 KECCAK256 SWAP1 PUSH1 0x2 MUL ADD PUSH1 0x0 SWAP1 SWAP2 SWAP1 SWAP2 SWAP1 SWAP2 POP PUSH1 0x0 DUP3 ADD MLOAD DUP2 PUSH1 0x0 ADD SSTORE PUSH1 0x20 DUP3 ADD MLOAD DUP2 PUSH1 0x1 ADD SWAP1 DUP2 PUSH2 0x27C SWAP2 SWAP1 PUSH2 0x88B JUMP JUMPDEST POP POP POP DUP1 PUSH1 0x2 DUP5 DUP5 PUSH1 0x40 MLOAD PUSH2 0x292 SWAP3 SWAP2 SWAP1 PUSH2 0x98D JUMP JUMPDEST SWAP1 DUP2 MSTORE PUSH1 0x20 ADD PUSH1 0x40 MLOAD DUP1 SWAP2 SUB SWAP1 KECCAK256 DUP2 SWAP1 SSTORE POP POP POP POP JUMP JUMPDEST PUSH1 0x2 DUP2 DUP1 MLOAD PUSH1 0x20 DUP2 ADD DUP3 ADD DUP1 MLOAD DUP5 DUP3 MSTORE PUSH1 0x20 DUP4 ADD PUSH1 0x20 DUP6 ADD KECCAK256 DUP2 DUP4 MSTORE DUP1 SWAP6 POP POP POP POP POP POP PUSH1 0x0 SWAP2 POP SWAP1 POP SLOAD DUP2 JUMP JUMPDEST PUSH1 0x0 DUP1 SLOAD SWAP1 POP SWAP1 JUMP JUMPDEST PUSH1 0x0 PUSH1 0x40 MLOAD SWAP1 POP SWAP1 JUMP JUMPDEST PUSH1 0x0 DUP1 REVERT JUMPDEST PUSH1 0x0 DUP1 REVERT JUMPDEST PUSH1 0x0 DUP2 SWAP1 POP SWAP2 SWAP1 POP JUMP JUMPDEST PUSH2 0x307 DUP2 PUSH2 0x2F4 JUMP JUMPDEST DUP2 EQ PUSH2 0x312 JUMPI PUSH1 0x0 DUP1 REVERT JUMPDEST POP JUMP JUMPDEST PUSH1 0x0 DUP2 CALLDATALOAD SWAP1 POP PUSH2 0x324 DUP2 PUSH2 0x2FE JUMP JUMPDEST SWAP3 SWAP2 POP POP JUMP JUMPDEST PUSH1 0x0 PUSH1 0x20 DUP3 DUP5 SUB SLT ISZERO PUSH2 0x340 JUMPI PUSH2 0x33F PUSH2 0x2EA JUMP JUMPDEST JUMPDEST PUSH1 0x0 PUSH2 0x34E DUP5 DUP3 DUP6 ADD PUSH2 0x315 JUMP JUMPDEST SWAP2 POP POP SWAP3 SWAP2 POP POP JUMP JUMPDEST PUSH2 0x360 DUP2 PUSH2 0x2F4 JUMP JUMPDEST DUP3 MSTORE POP POP JUMP JUMPDEST PUSH1 0x0 DUP2 MLOAD SWAP1 POP SWAP2 SWAP1 POP JUMP JUMPDEST PUSH1 0x0 DUP3 DUP3 MSTORE PUSH1 0x20 DUP3 ADD SWAP1 POP SWAP3 SWAP2 POP POP JUMP JUMPDEST PUSH1 0x0 JUMPDEST DUP4 DUP2 LT ISZERO PUSH2 0x3A0 JUMPI DUP1 DUP3 ADD MLOAD DUP2 DUP5 ADD MSTORE PUSH1 0x20 DUP2 ADD SWAP1 POP PUSH2 0x385 JUMP JUMPDEST PUSH1 0x0 DUP5 DUP5 ADD MSTORE POP POP POP POP JUMP JUMPDEST PUSH1 0x0 PUSH1 0x1F NOT PUSH1 0x1F DUP4 ADD AND SWAP1 POP SWAP2 SWAP1 POP JUMP JUMPDEST PUSH1 0x0 PUSH2 0x3C8 DUP3 PUSH2 0x366 JUMP JUMPDEST PUSH2 0x3D2 DUP2 DUP6 PUSH2 0x371 JUMP JUMPDEST SWAP4 POP PUSH2 0x3E2 DUP2 DUP6 PUSH1 0x20 DUP7 ADD PUSH2 0x382 JUMP JUMPDEST PUSH2 0x3EB DUP2 PUSH2 0x3AC JUMP JUMPDEST DUP5 ADD SWAP2 POP POP SWAP3 SWAP2 POP POP JUMP JUMPDEST PUSH1 0x0 PUSH1 0x40 DUP3 ADD SWAP1 POP PUSH2 0x40B PUSH1 0x0 DUP4 ADD DUP6 PUSH2 0x357 JUMP JUMPDEST DUP2 DUP2 SUB PUSH1 0x20 DUP4 ADD MSTORE PUSH2 0x41D DUP2 DUP5 PUSH2 0x3BD JUMP JUMPDEST SWAP1 POP SWAP4 SWAP3 POP POP POP JUMP JUMPDEST PUSH1 0x0 DUP1 REVERT JUMPDEST PUSH1 0x0 DUP1 REVERT JUMPDEST PUSH1 0x0 DUP1 REVERT JUMPDEST PUSH1 0x0 DUP1 DUP4 PUSH1 0x1F DUP5 ADD SLT PUSH2 0x44B JUMPI PUSH2 0x44A PUSH2 0x426 JUMP JUMPDEST JUMPDEST DUP3 CALLDATALOAD SWAP1 POP PUSH8 0xFFFFFFFFFFFFFFFF DUP2 GT ISZERO PUSH2 0x468 JUMPI PUSH2 0x467 PUSH2 0x42B JUMP JUMPDEST JUMPDEST PUSH1 0x20 DUP4 ADD SWAP2 POP DUP4 PUSH1 0x1 DUP3 MUL DUP4 ADD GT ISZERO PUSH2 0x484 JUMPI PUSH2 0x483 PUSH2 0x430 JUMP JUMPDEST JUMPDEST SWAP3 POP SWAP3 SWAP1 POP JUMP JUMPDEST PUSH1 0x0 DUP1 PUSH1 0x0 PUSH1 0x40 DUP5 DUP7 SUB SLT ISZERO PUSH2 0x4A4 JUMPI PUSH2 0x4A3 PUSH2 0x2EA JUMP JUMPDEST JUMPDEST PUSH1 0x0 DUP5 ADD CALLDATALOAD PUSH8 0xFFFFFFFFFFFFFFFF DUP2 GT ISZERO PUSH2 0x4C2 JUMPI PUSH2 0x4C1 PUSH2 0x2EF JUMP JUMPDEST JUMPDEST PUSH2 0x4CE DUP7 DUP3 DUP8 ADD PUSH2 0x435 JUMP JUMPDEST SWAP4 POP SWAP4 POP POP PUSH1 0x20 PUSH2 0x4E1 DUP7 DUP3 DUP8 ADD PUSH2 0x315 JUMP JUMPDEST SWAP2 POP POP SWAP3 POP SWAP3 POP SWAP3 JUMP JUMPDEST PUSH1 0x0 DUP1 REVERT JUMPDEST PUSH32 0x4E487B7100000000000000000000000000000000000000000000000000000000 PUSH1 0x0 MSTORE PUSH1 0x41 PUSH1 0x4 MSTORE PUSH1 0x24 PUSH1 0x0 REVERT JUMPDEST PUSH2 0x528 DUP3 PUSH2 0x3AC JUMP JUMPDEST DUP2 ADD DUP2 DUP2 LT PUSH8 0xFFFFFFFFFFFFFFFF DUP3 GT OR ISZERO PUSH2 0x547 JUMPI PUSH2 0x546 PUSH2 0x4F0 JUMP JUMPDEST JUMPDEST DUP1 PUSH1 0x40 MSTORE POP POP POP JUMP JUMPDEST PUSH1 0x0 PUSH2 0x55A PUSH2 0x2E0 JUMP JUMPDEST SWAP1 POP PUSH2 0x566 DUP3 DUP3 PUSH2 0x51F JUMP JUMPDEST SWAP2 SWAP1 POP JUMP JUMPDEST PUSH1 0x0 PUSH8 0xFFFFFFFFFFFFFFFF DUP3 GT ISZERO PUSH2 0x586 JUMPI PUSH2 0x585 PUSH2 0x4F0 JUMP JUMPDEST JUMPDEST PUSH2 0x58F DUP3 PUSH2 0x3AC JUMP JUMPDEST SWAP1 POP PUSH1 0x20 DUP2 ADD SWAP1 POP SWAP2 SWAP1 POP JUMP JUMPDEST DUP3 DUP2 DUP4 CALLDATACOPY PUSH1 0x0 DUP4 DUP4 ADD MSTORE POP POP POP JUMP JUMPDEST PUSH1 0x0 PUSH2 0x5BE PUSH2 0x5B9 DUP5 PUSH2 0x56B JUMP JUMPDEST PUSH2 0x550 JUMP JUMPDEST SWAP1 POP DUP3 DUP2 MSTORE PUSH1 0x20 DUP2 ADD DUP5 DUP5 DUP5 ADD GT ISZERO PUSH2 0x5DA JUMPI PUSH2 0x5D9 PUSH2 0x4EB JUMP JUMPDEST JUMPDEST PUSH2 0x5E5 DUP5 DUP3 DUP6 PUSH2 0x59C JUMP JUMPDEST POP SWAP4 SWAP3 POP POP POP JUMP JUMPDEST PUSH1 0x0 DUP3 PUSH1 0x1F DUP4 ADD SLT PUSH2 0x602 JUMPI PUSH2 0x601 PUSH2 0x426 JUMP JUMPDEST JUMPDEST DUP2 CALLDATALOAD PUSH2 0x612 DUP5 DUP3 PUSH1 0x20 DUP7 ADD PUSH2 0x5AB JUMP JUMPDEST SWAP2 POP POP SWAP3 SWAP2 POP POP JUMP JUMPDEST PUSH1 0x0 PUSH1 0x20 DUP3 DUP5 SUB SLT ISZERO PUSH2 0x631 JUMPI PUSH2 0x630 PUSH2 0x2EA JUMP JUMPDEST JUMPDEST PUSH1 0x0 DUP3 ADD CALLDATALOAD PUSH8 0xFFFFFFFFFFFFFFFF DUP2 GT ISZERO PUSH2 0x64F JUMPI PUSH2 0x64E PUSH2 0x2EF JUMP JUMPDEST JUMPDEST PUSH2 0x65B DUP5 DUP3 DUP6 ADD PUSH2 0x5ED JUMP JUMPDEST SWAP2 POP POP SWAP3 SWAP2 POP POP JUMP JUMPDEST PUSH1 0x0 PUSH1 0x20 DUP3 ADD SWAP1 POP PUSH2 0x679 PUSH1 0x0 DUP4 ADD DUP5 PUSH2 0x357 JUMP JUMPDEST SWAP3 SWAP2 POP POP JUMP JUMPDEST PUSH32 0x4E487B7100000000000000000000000000000000000000000000000000000000 PUSH1 0x0 MSTORE PUSH1 0x22 PUSH1 0x4 MSTORE PUSH1 0x24 PUSH1 0x0 REVERT JUMPDEST PUSH1 0x0 PUSH1 0x2 DUP3 DIV SWAP1 POP PUSH1 0x1 DUP3 AND DUP1 PUSH2 0x6C6 JUMPI PUSH1 0x7F DUP3 AND SWAP2 POP JUMPDEST PUSH1 0x20 DUP3 LT DUP2 SUB PUSH2 0x6D9 JUMPI PUSH2 0x6D8 PUSH2 0x67F JUMP JUMPDEST JUMPDEST POP SWAP2 SWAP1 POP JUMP JUMPDEST PUSH1 0x0 DUP2 SWAP1 POP DUP2 PUSH1 0x0 MSTORE PUSH1 0x20 PUSH1 0x0 KECCAK256 SWAP1 POP SWAP2 SWAP1 POP JUMP JUMPDEST PUSH1 0x0 PUSH1 0x20 PUSH1 0x1F DUP4 ADD DIV SWAP1 POP SWAP2 SWAP1 POP JUMP JUMPDEST PUSH1 0x0 DUP3 DUP3 SHL SWAP1 POP SWAP3 SWAP2 POP POP JUMP JUMPDEST PUSH1 0x0 PUSH1 0x8 DUP4 MUL PUSH2 0x741 PUSH32 0xFFFFFFFFFFFFFFFFFFFFFFFFFFFFFFFFFFFFFFFFFFFFFFFFFFFFFFFFFFFFFFFF DUP3 PUSH2 0x704 JUMP JUMPDEST PUSH2 0x74B DUP7 DUP4 PUSH2 0x704 JUMP JUMPDEST SWAP6 POP DUP1 NOT DUP5 AND SWAP4 POP DUP1 DUP7 AND DUP5 OR SWAP3 POP POP POP SWAP4 SWAP3 POP POP POP JUMP JUMPDEST PUSH1 0x0 DUP2 SWAP1 POP SWAP2 SWAP1 POP JUMP JUMPDEST PUSH1 0x0 PUSH2 0x788 PUSH2 0x783 PUSH2 0x77E DUP5 PUSH2 0x2F4 JUMP JUMPDEST PUSH2 0x763 JUMP JUMPDEST PUSH2 0x2F4 JUMP JUMPDEST SWAP1 POP SWAP2 SWAP1 POP JUMP JUMPDEST PUSH1 0x0 DUP2 SWAP1 POP SWAP2 SWAP1 POP JUMP JUMPDEST PUSH2 0x7A2 DUP4 PUSH2 0x76D JUMP JUMPDEST PUSH2 0x7B6 PUSH2 0x7AE DUP3 PUSH2 0x78F JUMP JUMPDEST DUP5 DUP5 SLOAD PUSH2 0x711 JUMP JUMPDEST DUP3 SSTORE POP POP POP POP JUMP JUMPDEST PUSH1 0x0 SWAP1 JUMP JUMPDEST PUSH2 0x7CB PUSH2 0x7BE JUMP JUMPDEST PUSH2 0x7D6 DUP2 DUP5 DUP5 PUSH2 0x799 JUMP JUMPDEST POP POP POP JUMP JUMPDEST JUMPDEST DUP2 DUP2 LT ISZERO PUSH2 0x7FA JUMPI PUSH2 0x7EF PUSH1 0x0 DUP3 PUSH2 0x7C3 JUMP JUMPDEST PUSH1 0x1 DUP2 ADD SWAP1 POP PUSH2 0x7DC JUMP JUMPDEST POP POP JUMP JUMPDEST PUSH1 0x1F DUP3 GT ISZERO PUSH2 0x83F JUMPI PUSH2 0x810 DUP2 PUSH2 0x6DF JUMP JUMPDEST PUSH2 0x819 DUP5 PUSH2 0x6F4 JUMP JUMPDEST DUP2 ADD PUSH1 0x20 DUP6 LT ISZERO PUSH2 0x828 JUMPI DUP2 SWAP1 POP JUMPDEST PUSH2 0x83C PUSH2 0x834 DUP6 PUSH2 0x6F4 JUMP JUMPDEST DUP4 ADD DUP3 PUSH2 0x7DB JUMP JUMPDEST POP POP JUMPDEST POP POP POP JUMP JUMPDEST PUSH1 0x0 DUP3 DUP3 SHR SWAP1 POP SWAP3 SWAP2 POP POP JUMP JUMPDEST PUSH1 0x0 PUSH2 0x862 PUSH1 0x0 NOT DUP5 PUSH1 0x8 MUL PUSH2 0x844 JUMP JUMPDEST NOT DUP1 DUP4 AND SWAP2 POP POP SWAP3 SWAP2 POP POP JUMP JUMPDEST PUSH1 0x0 PUSH2 0x87B DUP4 DUP4 PUSH2 0x851 JUMP JUMPDEST SWAP2 POP DUP3 PUSH1 0x2 MUL DUP3 OR SWAP1 POP SWAP3 SWAP2 POP POP JUMP JUMPDEST PUSH2 0x894 DUP3 PUSH2 0x366 JUMP JUMPDEST PUSH8 0xFFFFFFFFFFFFFFFF DUP2 GT ISZERO PUSH2 0x8AD JUMPI PUSH2 0x8AC PUSH2 0x4F0 JUMP JUMPDEST JUMPDEST PUSH2 0x8B7 DUP3 SLOAD PUSH2 0x6AE JUMP JUMPDEST PUSH2 0x8C2 DUP3 DUP3 DUP6 PUSH2 0x7FE JUMP JUMPDEST PUSH1 0x0 PUSH1 0x20 SWAP1 POP PUSH1 0x1F DUP4 GT PUSH1 0x1 DUP2 EQ PUSH2 0x8F5 JUMPI PUSH1 0x0 DUP5 ISZERO PUSH2 0x8E3 JUMPI DUP3 DUP8 ADD MLOAD SWAP1 POP JUMPDEST PUSH2 0x8ED DUP6 DUP3 PUSH2 0x86F JUMP JUMPDEST DUP7 SSTORE POP PUSH2 0x955 JUMP JUMPDEST PUSH1 0x1F NOT DUP5 AND PUSH2 0x903 DUP7 PUSH2 0x6DF JUMP JUMPDEST PUSH1 0x0 JUMPDEST DUP3 DUP2 LT ISZERO PUSH2 0x92B JUMPI DUP5 DUP10 ADD MLOAD DUP3 SSTORE PUSH1 0x1 DUP3 ADD SWAP2 POP PUSH1 0x20 DUP6 ADD SWAP5 POP PUSH1 0x20 DUP2 ADD SWAP1 POP PUSH2 0x906 JUMP JUMPDEST DUP7 DUP4 LT ISZERO PUSH2 0x948 JUMPI DUP5 DUP10 ADD MLOAD PUSH2 0x944 PUSH1 0x1F DUP10 AND DUP3 PUSH2 0x851 JUMP JUMPDEST DUP4 SSTORE POP JUMPDEST PUSH1 0x1 PUSH1 0x2 DUP9 MUL ADD DUP9 SSTORE POP POP POP JUMPDEST POP POP POP POP POP POP JUMP JUMPDEST PUSH1 0x0 DUP2 SWAP1 POP SWAP3 SWAP2 POP POP JUMP JUMPDEST PUSH1 0x0 PUSH2 0x974 DUP4 DUP6 PUSH2 0x95D JUMP JUMPDEST SWAP4 POP PUSH2 0x981 DUP4 DUP6 DUP5 PUSH2 0x59C JUMP JUMPDEST DUP3 DUP5 ADD SWAP1 POP SWAP4 SWAP3 POP POP POP JUMP JUMPDEST PUSH1 0x0 PUSH2 0x99A DUP3 DUP5 DUP7 PUSH2 0x968 JUMP JUMPDEST SWAP2 POP DUP2 SWAP1 POP SWAP4 SWAP3 POP POP POP JUMP INVALID LOG2 PUSH5 0x6970667358 0x22 SLT KECCAK256 CALLDATALOAD 0xEB 0xF6 SWAP4 MLOAD SSTORE PUSH12 0xED2FA52AA81A617BE1CF8263 LOG3 ADDMOD CALLDATALOAD SWAP15 0xAF PUSH14 0x416B6CAAA81F4564736F6C634300 ADDMOD SLT STOP CALLER "
				},
				"gasEstimates": {
					"creation": {
						"codeDepositCost": "504800",
						"executionCost": "537",
						"totalCost": "505337"
					},
					"external": {
						"addPerson(string,uint256)": "infinite",
						"getter()": "2503",
						"myFriends(uint256)": "infinite",
						"nameToFavoriteNumber(string)": "infinite",
						"stroe(uint256)": "22498"
					}
				},
				"methodIdentifiers": {
					"addPerson(string,uint256)": "6f760f41",
					"getter()": "993a04b7",
					"myFriends(uint256)": "6663e66d",
					"nameToFavoriteNumber(string)": "8bab8dd5",
					"stroe(uint256)": "1d3849e4"
				}
			},
			"storageLayout": {
				"storage": [
					{
						"astId": 3,
						"contract": "SimpleStorage.sol:SimpleStorage",
						"label": "myFavoriteNumber",
						"offset": 0,
						"slot": "0",
						"type": "t_uint256"
					},
					{
						"astId": 12,
						"contract": "SimpleStorage.sol:SimpleStorage",
						"label": "myFriends",
						"offset": 0,
						"slot": "1",
						"type": "t_array(t_struct(Person)8_storage)dyn_storage"
					},
					{
						"astId": 16,
						"contract": "SimpleStorage.sol:SimpleStorage",
						"label": "nameToFavoriteNumber",
						"offset": 0,
						"slot": "2",
						"type": "t_mapping(t_string_memory_ptr,t_uint256)"
					}
				],
				"types": {
					"t_array(t_struct(Person)8_storage)dyn_storage": {
						"base": "t_struct(Person)8_storage",
						"encoding": "dynamic_array",
						"label": "struct SimpleStorage.Person[]",
						"numberOfBytes": "32"
					},
					"t_mapping(t_string_memory_ptr,t_uint256)": {
						"encoding": "mapping",
						"key": "t_string_memory_ptr",
						"label": "mapping(string => uint256)",
						"numberOfBytes": "32",
						"value": "t_uint256"
					},
					"t_string_memory_ptr": {
						"encoding": "bytes",
						"label": "string",
						"numberOfBytes": "32"
					},
					"t_string_storage": {
						"encoding": "bytes",
						"label": "string",
						"numberOfBytes": "32"
					},
					"t_struct(Person)8_storage": {
						"encoding": "inplace",
						"label": "struct SimpleStorage.Person",
						"members": [
							{
								"astId": 5,
								"contract": "SimpleStorage.sol:SimpleStorage",
								"label": "favoriteNumber",
								"offset": 0,
								"slot": "0",
								"type": "t_uint256"
							},
							{
								"astId": 7,
								"contract": "SimpleStorage.sol:SimpleStorage",
								"label": "name",
								"offset": 0,
								"slot": "1",
								"type": "t_string_storage"
							}
						],
						"numberOfBytes": "64"
					},
					"t_uint256": {
						"encoding": "inplace",
						"label": "uint256",
						"numberOfBytes": "32"
					}
				}
			},
			"userdoc": {
				"kind": "user",
				"methods": {},
				"version": 1
			}
		}
	}
}