{
	"contracts/StorageFactory.sol": {
		"StorageFactory": {
			"abi": [
				{
					"inputs": [],
					"name": "createSimpleStorageContract",
					"outputs": [],
					"stateMutability": "nonpayable",
					"type": "function"
				},
				{
					"inputs": [
						{
							"internalType": "uint256",
							"name": "",
							"type": "uint256"
						}
					],
					"name": "listOfSimpleStorageContracts",
					"outputs": [
						{
							"internalType": "contract SimpleStorage",
							"name": "",
							"type": "address"
						}
					],
					"stateMutability": "view",
					"type": "function"
				},
				{
					"inputs": [
						{
							"internalType": "uint256",
							"name": "_simpleStorageIndex",
							"type": "uint256"
						},
						{
							"internalType": "uint256",
							"name": "_newSimpleStorageNumber",
							"type": "uint256"
						}
					],
					"name": "sdStore",
					"outputs": [],
					"stateMutability": "nonpayable",
					"type": "function"
				},
				{
					"inputs": [
						{
							"internalType": "uint256",
							"name": "_simpleStorageIndex",
							"type": "uint256"
						}
					],
					"name": "sfGet",
					"outputs": [
						{
							"internalType": "uint256",
							"name": "",
							"type": "uint256"
						}
					],
					"stateMutability": "view",
					"type": "function"
				}
			],
			"devdoc": {
				"kind": "dev",
				"methods": {},
				"version": 1
			},
			"evm": {
				"assembly": "    /* \"contracts/StorageFactory.sol\":110:895  contract StorageFactory{... */\n  mstore(0x40, 0x80)\n  callvalue\n  dup1\n  iszero\n  tag_1\n  jumpi\n  0x00\n  dup1\n  revert\ntag_1:\n  pop\n  dataSize(sub_0)\n  dup1\n  dataOffset(sub_0)\n  0x00\n  codecopy\n  0x00\n  return\nstop\n\nsub_0: assembly {\n        /* \"contracts/StorageFactory.sol\":110:895  contract StorageFactory{... */\n      mstore(0x40, 0x80)\n      callvalue\n      dup1\n      iszero\n      tag_1\n      jumpi\n      0x00\n      dup1\n      revert\n    tag_1:\n      pop\n      jumpi(tag_2, lt(calldatasize, 0x04))\n      shr(0xe0, calldataload(0x00))\n      dup1\n      0x1dda6541\n      eq\n      tag_3\n      jumpi\n      dup1\n      0xc5f19c20\n      eq\n      tag_4\n      jumpi\n      dup1\n      0xdcebe8b2\n      eq\n      tag_5\n      jumpi\n      dup1\n      0xf39f3035\n      eq\n      tag_6\n      jumpi\n    tag_2:\n      0x00\n      dup1\n      revert\n        /* \"contracts/StorageFactory.sol\":197:367  function createSimpleStorageContract() public {... */\n    tag_3:\n      tag_7\n      tag_8\n      jump\t// in\n    tag_7:\n      stop\n        /* \"contracts/StorageFactory.sol\":681:892  function sfGet(uint256 _simpleStorageIndex) public view returns(uint256){... */\n    tag_4:\n      tag_9\n      0x04\n      dup1\n      calldatasize\n      sub\n      dup2\n      add\n      swap1\n      tag_10\n      swap2\n      swap1\n      tag_11\n      jump\t// in\n    tag_10:\n      tag_12\n      jump\t// in\n    tag_9:\n      mload(0x40)\n      tag_13\n      swap2\n      swap1\n      tag_14\n      jump\t// in\n    tag_13:\n      mload(0x40)\n      dup1\n      swap2\n      sub\n      swap1\n      return\n        /* \"contracts/StorageFactory.sol\":372:675  function sdStore(uint256 _simpleStorageIndex, uint256 _newSimpleStorageNumber) public {... */\n    tag_5:\n      tag_15\n      0x04\n      dup1\n      calldatasize\n      sub\n      dup2\n      add\n      swap1\n      tag_16\n      swap2\n      swap1\n      tag_17\n      jump\t// in\n    tag_16:\n      tag_18\n      jump\t// in\n    tag_15:\n      stop\n        /* \"contracts/StorageFactory.sol\":140:191  SimpleStorage[] public listOfSimpleStorageContracts */\n    tag_6:\n      tag_19\n      0x04\n      dup1\n      calldatasize\n      sub\n      dup2\n      add\n      swap1\n      tag_20\n      swap2\n      swap1\n      tag_11\n      jump\t// in\n    tag_20:\n      tag_21\n      jump\t// in\n    tag_19:\n      mload(0x40)\n      tag_22\n      swap2\n      swap1\n      tag_23\n      jump\t// in\n    tag_22:\n      mload(0x40)\n      dup1\n      swap2\n      sub\n      swap1\n      return\n        /* \"contracts/StorageFactory.sol\":197:367  function createSimpleStorageContract() public {... */\n    tag_8:\n        /* \"contracts/StorageFactory.sol\":253:280  SimpleStorage simpleStorage */\n      0x00\n        /* \"contracts/StorageFactory.sol\":283:302  new SimpleStorage() */\n      mload(0x40)\n      tag_25\n      swap1\n      tag_26\n      jump\t// in\n    tag_25:\n      mload(0x40)\n      dup1\n      swap2\n      sub\n      swap1\n      0x00\n      create\n      dup1\n      iszero\n      dup1\n      iszero\n      tag_27\n      jumpi\n      returndatasize\n      0x00\n      dup1\n      returndatacopy\n      revert(0x00, returndatasize)\n    tag_27:\n      pop\n        /* \"contracts/StorageFactory.sol\":253:302  SimpleStorage simpleStorage = new SimpleStorage() */\n      swap1\n      pop\n        /* \"contracts/StorageFactory.sol\":312:340  listOfSimpleStorageContracts */\n      0x00\n        /* \"contracts/StorageFactory.sol\":346:359  simpleStorage */\n      dup2\n        /* \"contracts/StorageFactory.sol\":312:360  listOfSimpleStorageContracts.push(simpleStorage) */\n      swap1\n      dup1\n      0x01\n      dup2\n      sload\n      add\n      dup1\n      dup3\n      sstore\n      dup1\n      swap2\n      pop\n      pop\n      0x01\n      swap1\n      sub\n      swap1\n      0x00\n      mstore\n      keccak256(0x00, 0x20)\n      add\n      0x00\n      swap1\n      swap2\n      swap1\n      swap2\n      swap1\n      swap2\n      0x0100\n      exp\n      dup2\n      sload\n      dup2\n      0xffffffffffffffffffffffffffffffffffffffff\n      mul\n      not\n      and\n      swap1\n      dup4\n      0xffffffffffffffffffffffffffffffffffffffff\n      and\n      mul\n      or\n      swap1\n      sstore\n      pop\n        /* \"contracts/StorageFactory.sol\":243:367  {... */\n      pop\n        /* \"contracts/StorageFactory.sol\":197:367  function createSimpleStorageContract() public {... */\n      jump\t// out\n        /* \"contracts/StorageFactory.sol\":681:892  function sfGet(uint256 _simpleStorageIndex) public view returns(uint256){... */\n    tag_12:\n        /* \"contracts/StorageFactory.sol\":745:752  uint256 */\n      0x00\n        /* \"contracts/StorageFactory.sol\":763:792  SimpleStorage mySimpleStorage */\n      dup1\n        /* \"contracts/StorageFactory.sol\":795:823  listOfSimpleStorageContracts */\n      0x00\n        /* \"contracts/StorageFactory.sol\":824:843  _simpleStorageIndex */\n      dup4\n        /* \"contracts/StorageFactory.sol\":795:844  listOfSimpleStorageContracts[_simpleStorageIndex] */\n      dup2\n      sload\n      dup2\n      lt\n      tag_30\n      jumpi\n      tag_31\n      tag_32\n      jump\t// in\n    tag_31:\n    tag_30:\n      swap1\n      0x00\n      mstore\n      keccak256(0x00, 0x20)\n      add\n      0x00\n      swap1\n      sload\n      swap1\n      0x0100\n      exp\n      swap1\n      div\n      0xffffffffffffffffffffffffffffffffffffffff\n      and\n        /* \"contracts/StorageFactory.sol\":763:844  SimpleStorage mySimpleStorage = listOfSimpleStorageContracts[_simpleStorageIndex] */\n      swap1\n      pop\n        /* \"contracts/StorageFactory.sol\":861:876  mySimpleStorage */\n      dup1\n        /* \"contracts/StorageFactory.sol\":861:883  mySimpleStorage.getter */\n      0xffffffffffffffffffffffffffffffffffffffff\n      and\n      0x993a04b7\n        /* \"contracts/StorageFactory.sol\":861:885  mySimpleStorage.getter() */\n      mload(0x40)\n      dup2\n      0xffffffff\n      and\n      0xe0\n      shl\n      dup2\n      mstore\n      0x04\n      add\n      0x20\n      mload(0x40)\n      dup1\n      dup4\n      sub\n      dup2\n      dup7\n      gas\n      staticcall\n      iszero\n      dup1\n      iszero\n      tag_35\n      jumpi\n      returndatasize\n      0x00\n      dup1\n      returndatacopy\n      revert(0x00, returndatasize)\n    tag_35:\n      pop\n      pop\n      pop\n      pop\n      mload(0x40)\n      returndatasize\n      not(0x1f)\n      0x1f\n      dup3\n      add\n      and\n      dup3\n      add\n      dup1\n      0x40\n      mstore\n      pop\n      dup2\n      add\n      swap1\n      tag_36\n      swap2\n      swap1\n      tag_37\n      jump\t// in\n    tag_36:\n        /* \"contracts/StorageFactory.sol\":854:885  return mySimpleStorage.getter() */\n      swap2\n      pop\n      pop\n        /* \"contracts/StorageFactory.sol\":681:892  function sfGet(uint256 _simpleStorageIndex) public view returns(uint256){... */\n      swap2\n      swap1\n      pop\n      jump\t// out\n        /* \"contracts/StorageFactory.sol\":372:675  function sdStore(uint256 _simpleStorageIndex, uint256 _newSimpleStorageNumber) public {... */\n    tag_18:\n        /* \"contracts/StorageFactory.sol\":531:560  SimpleStorage mySimpleStorage */\n      0x00\n        /* \"contracts/StorageFactory.sol\":563:591  listOfSimpleStorageContracts */\n      dup1\n        /* \"contracts/StorageFactory.sol\":592:611  _simpleStorageIndex */\n      dup4\n        /* \"contracts/StorageFactory.sol\":563:612  listOfSimpleStorageContracts[_simpleStorageIndex] */\n      dup2\n      sload\n      dup2\n      lt\n      tag_39\n      jumpi\n      tag_40\n      tag_32\n      jump\t// in\n    tag_40:\n    tag_39:\n      swap1\n      0x00\n      mstore\n      keccak256(0x00, 0x20)\n      add\n      0x00\n      swap1\n      sload\n      swap1\n      0x0100\n      exp\n      swap1\n      div\n      0xffffffffffffffffffffffffffffffffffffffff\n      and\n        /* \"contracts/StorageFactory.sol\":531:612  SimpleStorage mySimpleStorage = listOfSimpleStorageContracts[_simpleStorageIndex] */\n      swap1\n      pop\n        /* \"contracts/StorageFactory.sol\":622:637  mySimpleStorage */\n      dup1\n        /* \"contracts/StorageFactory.sol\":622:643  mySimpleStorage.stroe */\n      0xffffffffffffffffffffffffffffffffffffffff\n      and\n      0x1d3849e4\n        /* \"contracts/StorageFactory.sol\":644:667  _newSimpleStorageNumber */\n      dup4\n        /* \"contracts/StorageFactory.sol\":622:668  mySimpleStorage.stroe(_newSimpleStorageNumber) */\n      mload(0x40)\n      dup3\n      0xffffffff\n      and\n      0xe0\n      shl\n      dup2\n      mstore\n      0x04\n      add\n      tag_42\n      swap2\n      swap1\n      tag_14\n      jump\t// in\n    tag_42:\n      0x00\n      mload(0x40)\n      dup1\n      dup4\n      sub\n      dup2\n      0x00\n      dup8\n      dup1\n      extcodesize\n      iszero\n      dup1\n      iszero\n      tag_43\n      jumpi\n      0x00\n      dup1\n      revert\n    tag_43:\n      pop\n      gas\n      call\n      iszero\n      dup1\n      iszero\n      tag_45\n      jumpi\n      returndatasize\n      0x00\n      dup1\n      returndatacopy\n      revert(0x00, returndatasize)\n    tag_45:\n      pop\n      pop\n      pop\n      pop\n        /* \"contracts/StorageFactory.sol\":458:675  {... */\n      pop\n        /* \"contracts/StorageFactory.sol\":372:675  function sdStore(uint256 _simpleStorageIndex, uint256 _newSimpleStorageNumber) public {... */\n      pop\n      pop\n      jump\t// out\n        /* \"contracts/StorageFactory.sol\":140:191  SimpleStorage[] public listOfSimpleStorageContracts */\n    tag_21:\n      0x00\n      dup2\n      dup2\n      sload\n      dup2\n      lt\n      tag_46\n      jumpi\n      0x00\n      dup1\n      revert\n    tag_46:\n      swap1\n      0x00\n      mstore\n      keccak256(0x00, 0x20)\n      add\n      0x00\n      swap2\n      pop\n      sload\n      swap1\n      0x0100\n      exp\n      swap1\n      div\n      0xffffffffffffffffffffffffffffffffffffffff\n      and\n      dup2\n      jump\t// out\n    tag_26:\n      dataSize(sub_0)\n      dup1\n      dataOffset(sub_0)\n      dup4\n      codecopy\n      add\n      swap1\n      jump\t// out\n        /* \"#utility.yul\":88:205   */\n    tag_49:\n        /* \"#utility.yul\":197:198   */\n      0x00\n        /* \"#utility.yul\":194:195   */\n      dup1\n        /* \"#utility.yul\":187:199   */\n      revert\n        /* \"#utility.yul\":334:411   */\n    tag_51:\n        /* \"#utility.yul\":371:378   */\n      0x00\n        /* \"#utility.yul\":400:405   */\n      dup2\n        /* \"#utility.yul\":389:405   */\n      swap1\n      pop\n        /* \"#utility.yul\":334:411   */\n      swap2\n      swap1\n      pop\n      jump\t// out\n        /* \"#utility.yul\":417:539   */\n    tag_52:\n        /* \"#utility.yul\":490:514   */\n      tag_68\n        /* \"#utility.yul\":508:513   */\n      dup2\n        /* \"#utility.yul\":490:514   */\n      tag_51\n      jump\t// in\n    tag_68:\n        /* \"#utility.yul\":483:488   */\n      dup2\n        /* \"#utility.yul\":480:515   */\n      eq\n        /* \"#utility.yul\":470:533   */\n      tag_69\n      jumpi\n        /* \"#utility.yul\":529:530   */\n      0x00\n        /* \"#utility.yul\":526:527   */\n      dup1\n        /* \"#utility.yul\":519:531   */\n      revert\n        /* \"#utility.yul\":470:533   */\n    tag_69:\n        /* \"#utility.yul\":417:539   */\n      pop\n      jump\t// out\n        /* \"#utility.yul\":545:684   */\n    tag_53:\n        /* \"#utility.yul\":591:596   */\n      0x00\n        /* \"#utility.yul\":629:635   */\n      dup2\n        /* \"#utility.yul\":616:636   */\n      calldataload\n        /* \"#utility.yul\":607:636   */\n      swap1\n      pop\n        /* \"#utility.yul\":645:678   */\n      tag_71\n        /* \"#utility.yul\":672:677   */\n      dup2\n        /* \"#utility.yul\":645:678   */\n      tag_52\n      jump\t// in\n    tag_71:\n        /* \"#utility.yul\":545:684   */\n      swap3\n      swap2\n      pop\n      pop\n      jump\t// out\n        /* \"#utility.yul\":690:1019   */\n    tag_11:\n        /* \"#utility.yul\":749:755   */\n      0x00\n        /* \"#utility.yul\":798:800   */\n      0x20\n        /* \"#utility.yul\":786:795   */\n      dup3\n        /* \"#utility.yul\":777:784   */\n      dup5\n        /* \"#utility.yul\":773:796   */\n      sub\n        /* \"#utility.yul\":769:801   */\n      slt\n        /* \"#utility.yul\":766:885   */\n      iszero\n      tag_73\n      jumpi\n        /* \"#utility.yul\":804:883   */\n      tag_74\n      tag_49\n      jump\t// in\n    tag_74:\n        /* \"#utility.yul\":766:885   */\n    tag_73:\n        /* \"#utility.yul\":924:925   */\n      0x00\n        /* \"#utility.yul\":949:1002   */\n      tag_75\n        /* \"#utility.yul\":994:1001   */\n      dup5\n        /* \"#utility.yul\":985:991   */\n      dup3\n        /* \"#utility.yul\":974:983   */\n      dup6\n        /* \"#utility.yul\":970:992   */\n      add\n        /* \"#utility.yul\":949:1002   */\n      tag_53\n      jump\t// in\n    tag_75:\n        /* \"#utility.yul\":939:1002   */\n      swap2\n      pop\n        /* \"#utility.yul\":895:1012   */\n      pop\n        /* \"#utility.yul\":690:1019   */\n      swap3\n      swap2\n      pop\n      pop\n      jump\t// out\n        /* \"#utility.yul\":1025:1143   */\n    tag_54:\n        /* \"#utility.yul\":1112:1136   */\n      tag_77\n        /* \"#utility.yul\":1130:1135   */\n      dup2\n        /* \"#utility.yul\":1112:1136   */\n      tag_51\n      jump\t// in\n    tag_77:\n        /* \"#utility.yul\":1107:1110   */\n      dup3\n        /* \"#utility.yul\":1100:1137   */\n      mstore\n        /* \"#utility.yul\":1025:1143   */\n      pop\n      pop\n      jump\t// out\n        /* \"#utility.yul\":1149:1371   */\n    tag_14:\n        /* \"#utility.yul\":1242:1246   */\n      0x00\n        /* \"#utility.yul\":1280:1282   */\n      0x20\n        /* \"#utility.yul\":1269:1278   */\n      dup3\n        /* \"#utility.yul\":1265:1283   */\n      add\n        /* \"#utility.yul\":1257:1283   */\n      swap1\n      pop\n        /* \"#utility.yul\":1293:1364   */\n      tag_79\n        /* \"#utility.yul\":1361:1362   */\n      0x00\n        /* \"#utility.yul\":1350:1359   */\n      dup4\n        /* \"#utility.yul\":1346:1363   */\n      add\n        /* \"#utility.yul\":1337:1343   */\n      dup5\n        /* \"#utility.yul\":1293:1364   */\n      tag_54\n      jump\t// in\n    tag_79:\n        /* \"#utility.yul\":1149:1371   */\n      swap3\n      swap2\n      pop\n      pop\n      jump\t// out\n        /* \"#utility.yul\":1377:1851   */\n    tag_17:\n        /* \"#utility.yul\":1445:1451   */\n      0x00\n        /* \"#utility.yul\":1453:1459   */\n      dup1\n        /* \"#utility.yul\":1502:1504   */\n      0x40\n        /* \"#utility.yul\":1490:1499   */\n      dup4\n        /* \"#utility.yul\":1481:1488   */\n      dup6\n        /* \"#utility.yul\":1477:1500   */\n      sub\n        /* \"#utility.yul\":1473:1505   */\n      slt\n        /* \"#utility.yul\":1470:1589   */\n      iszero\n      tag_81\n      jumpi\n        /* \"#utility.yul\":1508:1587   */\n      tag_82\n      tag_49\n      jump\t// in\n    tag_82:\n        /* \"#utility.yul\":1470:1589   */\n    tag_81:\n        /* \"#utility.yul\":1628:1629   */\n      0x00\n        /* \"#utility.yul\":1653:1706   */\n      tag_83\n        /* \"#utility.yul\":1698:1705   */\n      dup6\n        /* \"#utility.yul\":1689:1695   */\n      dup3\n        /* \"#utility.yul\":1678:1687   */\n      dup7\n        /* \"#utility.yul\":1674:1696   */\n      add\n        /* \"#utility.yul\":1653:1706   */\n      tag_53\n      jump\t// in\n    tag_83:\n        /* \"#utility.yul\":1643:1706   */\n      swap3\n      pop\n        /* \"#utility.yul\":1599:1716   */\n      pop\n        /* \"#utility.yul\":1755:1757   */\n      0x20\n        /* \"#utility.yul\":1781:1834   */\n      tag_84\n        /* \"#utility.yul\":1826:1833   */\n      dup6\n        /* \"#utility.yul\":1817:1823   */\n      dup3\n        /* \"#utility.yul\":1806:1815   */\n      dup7\n        /* \"#utility.yul\":1802:1824   */\n      add\n        /* \"#utility.yul\":1781:1834   */\n      tag_53\n      jump\t// in\n    tag_84:\n        /* \"#utility.yul\":1771:1834   */\n      swap2\n      pop\n        /* \"#utility.yul\":1726:1844   */\n      pop\n        /* \"#utility.yul\":1377:1851   */\n      swap3\n      pop\n      swap3\n      swap1\n      pop\n      jump\t// out\n        /* \"#utility.yul\":1857:1983   */\n    tag_55:\n        /* \"#utility.yul\":1894:1901   */\n      0x00\n        /* \"#utility.yul\":1934:1976   */\n      0xffffffffffffffffffffffffffffffffffffffff\n        /* \"#utility.yul\":1927:1932   */\n      dup3\n        /* \"#utility.yul\":1923:1977   */\n      and\n        /* \"#utility.yul\":1912:1977   */\n      swap1\n      pop\n        /* \"#utility.yul\":1857:1983   */\n      swap2\n      swap1\n      pop\n      jump\t// out\n        /* \"#utility.yul\":1989:2049   */\n    tag_56:\n        /* \"#utility.yul\":2017:2020   */\n      0x00\n        /* \"#utility.yul\":2038:2043   */\n      dup2\n        /* \"#utility.yul\":2031:2043   */\n      swap1\n      pop\n        /* \"#utility.yul\":1989:2049   */\n      swap2\n      swap1\n      pop\n      jump\t// out\n        /* \"#utility.yul\":2055:2197   */\n    tag_57:\n        /* \"#utility.yul\":2105:2114   */\n      0x00\n        /* \"#utility.yul\":2138:2191   */\n      tag_88\n        /* \"#utility.yul\":2156:2190   */\n      tag_89\n        /* \"#utility.yul\":2165:2189   */\n      tag_90\n        /* \"#utility.yul\":2183:2188   */\n      dup5\n        /* \"#utility.yul\":2165:2189   */\n      tag_55\n      jump\t// in\n    tag_90:\n        /* \"#utility.yul\":2156:2190   */\n      tag_56\n      jump\t// in\n    tag_89:\n        /* \"#utility.yul\":2138:2191   */\n      tag_55\n      jump\t// in\n    tag_88:\n        /* \"#utility.yul\":2125:2191   */\n      swap1\n      pop\n        /* \"#utility.yul\":2055:2197   */\n      swap2\n      swap1\n      pop\n      jump\t// out\n        /* \"#utility.yul\":2203:2329   */\n    tag_58:\n        /* \"#utility.yul\":2253:2262   */\n      0x00\n        /* \"#utility.yul\":2286:2323   */\n      tag_92\n        /* \"#utility.yul\":2317:2322   */\n      dup3\n        /* \"#utility.yul\":2286:2323   */\n      tag_57\n      jump\t// in\n    tag_92:\n        /* \"#utility.yul\":2273:2323   */\n      swap1\n      pop\n        /* \"#utility.yul\":2203:2329   */\n      swap2\n      swap1\n      pop\n      jump\t// out\n        /* \"#utility.yul\":2335:2481   */\n    tag_59:\n        /* \"#utility.yul\":2405:2414   */\n      0x00\n        /* \"#utility.yul\":2438:2475   */\n      tag_94\n        /* \"#utility.yul\":2469:2474   */\n      dup3\n        /* \"#utility.yul\":2438:2475   */\n      tag_58\n      jump\t// in\n    tag_94:\n        /* \"#utility.yul\":2425:2475   */\n      swap1\n      pop\n        /* \"#utility.yul\":2335:2481   */\n      swap2\n      swap1\n      pop\n      jump\t// out\n        /* \"#utility.yul\":2487:2658   */\n    tag_60:\n        /* \"#utility.yul\":2594:2651   */\n      tag_96\n        /* \"#utility.yul\":2645:2650   */\n      dup2\n        /* \"#utility.yul\":2594:2651   */\n      tag_59\n      jump\t// in\n    tag_96:\n        /* \"#utility.yul\":2589:2592   */\n      dup3\n        /* \"#utility.yul\":2582:2652   */\n      mstore\n        /* \"#utility.yul\":2487:2658   */\n      pop\n      pop\n      jump\t// out\n        /* \"#utility.yul\":2664:2926   */\n    tag_23:\n        /* \"#utility.yul\":2777:2781   */\n      0x00\n        /* \"#utility.yul\":2815:2817   */\n      0x20\n        /* \"#utility.yul\":2804:2813   */\n      dup3\n        /* \"#utility.yul\":2800:2818   */\n      add\n        /* \"#utility.yul\":2792:2818   */\n      swap1\n      pop\n        /* \"#utility.yul\":2828:2919   */\n      tag_98\n        /* \"#utility.yul\":2916:2917   */\n      0x00\n        /* \"#utility.yul\":2905:2914   */\n      dup4\n        /* \"#utility.yul\":2901:2918   */\n      add\n        /* \"#utility.yul\":2892:2898   */\n      dup5\n        /* \"#utility.yul\":2828:2919   */\n      tag_60\n      jump\t// in\n    tag_98:\n        /* \"#utility.yul\":2664:2926   */\n      swap3\n      swap2\n      pop\n      pop\n      jump\t// out\n        /* \"#utility.yul\":2932:3112   */\n    tag_32:\n        /* \"#utility.yul\":2980:3057   */\n      0x4e487b7100000000000000000000000000000000000000000000000000000000\n        /* \"#utility.yul\":2977:2978   */\n      0x00\n        /* \"#utility.yul\":2970:3058   */\n      mstore\n        /* \"#utility.yul\":3077:3081   */\n      0x32\n        /* \"#utility.yul\":3074:3075   */\n      0x04\n        /* \"#utility.yul\":3067:3082   */\n      mstore\n        /* \"#utility.yul\":3101:3105   */\n      0x24\n        /* \"#utility.yul\":3098:3099   */\n      0x00\n        /* \"#utility.yul\":3091:3106   */\n      revert\n        /* \"#utility.yul\":3118:3261   */\n    tag_61:\n        /* \"#utility.yul\":3175:3180   */\n      0x00\n        /* \"#utility.yul\":3206:3212   */\n      dup2\n        /* \"#utility.yul\":3200:3213   */\n      mload\n        /* \"#utility.yul\":3191:3213   */\n      swap1\n      pop\n        /* \"#utility.yul\":3222:3255   */\n      tag_101\n        /* \"#utility.yul\":3249:3254   */\n      dup2\n        /* \"#utility.yul\":3222:3255   */\n      tag_52\n      jump\t// in\n    tag_101:\n        /* \"#utility.yul\":3118:3261   */\n      swap3\n      swap2\n      pop\n      pop\n      jump\t// out\n        /* \"#utility.yul\":3267:3618   */\n    tag_37:\n        /* \"#utility.yul\":3337:3343   */\n      0x00\n        /* \"#utility.yul\":3386:3388   */\n      0x20\n        /* \"#utility.yul\":3374:3383   */\n      dup3\n        /* \"#utility.yul\":3365:3372   */\n      dup5\n        /* \"#utility.yul\":3361:3384   */\n      sub\n        /* \"#utility.yul\":3357:3389   */\n      slt\n        /* \"#utility.yul\":3354:3473   */\n      iszero\n      tag_103\n      jumpi\n        /* \"#utility.yul\":3392:3471   */\n      tag_104\n      tag_49\n      jump\t// in\n    tag_104:\n        /* \"#utility.yul\":3354:3473   */\n    tag_103:\n        /* \"#utility.yul\":3512:3513   */\n      0x00\n        /* \"#utility.yul\":3537:3601   */\n      tag_105\n        /* \"#utility.yul\":3593:3600   */\n      dup5\n        /* \"#utility.yul\":3584:3590   */\n      dup3\n        /* \"#utility.yul\":3573:3582   */\n      dup6\n        /* \"#utility.yul\":3569:3591   */\n      add\n        /* \"#utility.yul\":3537:3601   */\n      tag_61\n      jump\t// in\n    tag_105:\n        /* \"#utility.yul\":3527:3601   */\n      swap2\n      pop\n        /* \"#utility.yul\":3483:3611   */\n      pop\n        /* \"#utility.yul\":3267:3618   */\n      swap3\n      swap2\n      pop\n      pop\n      jump\t// out\n    stop\n\n    sub_0: assembly {\n            /* \"contracts/SimpleStorage.sol\":86:993  contract SimpleStorage{... */\n          mstore(0x40, 0x80)\n          callvalue\n          dup1\n          iszero\n          tag_1\n          jumpi\n          0x00\n          dup1\n          revert\n        tag_1:\n          pop\n          dataSize(sub_0)\n          dup1\n          dataOffset(sub_0)\n          0x00\n          codecopy\n          0x00\n          return\n        stop\n\n        sub_0: assembly {\n                /* \"contracts/SimpleStorage.sol\":86:993  contract SimpleStorage{... */\n              mstore(0x40, 0x80)\n              callvalue\n              dup1\n              iszero\n              tag_1\n              jumpi\n              0x00\n              dup1\n              revert\n            tag_1:\n              pop\n              jumpi(tag_2, lt(calldatasize, 0x04))\n              shr(0xe0, calldataload(0x00))\n              dup1\n              0x1d3849e4\n              eq\n              tag_3\n              jumpi\n              dup1\n              0x6663e66d\n              eq\n              tag_4\n              jumpi\n              dup1\n              0x6f760f41\n              eq\n              tag_5\n              jumpi\n              dup1\n              0x8bab8dd5\n              eq\n              tag_6\n              jumpi\n              dup1\n              0x993a04b7\n              eq\n              tag_7\n              jumpi\n            tag_2:\n              0x00\n              dup1\n              revert\n                /* \"contracts/SimpleStorage.sol\":571:669  function stroe(uint256 _favoriteNumber) public {... */\n            tag_3:\n              tag_8\n              0x04\n              dup1\n              calldatasize\n              sub\n              dup2\n              add\n              swap1\n              tag_9\n              swap2\n              swap1\n              tag_10\n              jump\t// in\n            tag_9:\n              tag_11\n              jump\t// in\n            tag_8:\n              stop\n                /* \"contracts/SimpleStorage.sol\":406:431  Person[] public myFriends */\n            tag_4:\n              tag_12\n              0x04\n              dup1\n              calldatasize\n              sub\n              dup2\n              add\n              swap1\n              tag_13\n              swap2\n              swap1\n              tag_10\n              jump\t// in\n            tag_13:\n              tag_14\n              jump\t// in\n            tag_12:\n              mload(0x40)\n              tag_15\n              swap3\n              swap2\n              swap1\n              tag_16\n              jump\t// in\n            tag_15:\n              mload(0x40)\n              dup1\n              swap2\n              sub\n              swap1\n              return\n                /* \"contracts/SimpleStorage.sol\":767:990  function addPerson(string calldata _name, uint256 _number) public{... */\n            tag_5:\n              tag_17\n              0x04\n              dup1\n              calldatasize\n              sub\n              dup2\n              add\n              swap1\n              tag_18\n              swap2\n              swap1\n              tag_19\n              jump\t// in\n            tag_18:\n              tag_20\n              jump\t// in\n            tag_17:\n              stop\n                /* \"contracts/SimpleStorage.sol\":510:564  mapping(string => uint256) public nameToFavoriteNumber */\n            tag_6:\n              tag_21\n              0x04\n              dup1\n              calldatasize\n              sub\n              dup2\n              add\n              swap1\n              tag_22\n              swap2\n              swap1\n              tag_23\n              jump\t// in\n            tag_22:\n              tag_24\n              jump\t// in\n            tag_21:\n              mload(0x40)\n              tag_25\n              swap2\n              swap1\n              tag_26\n              jump\t// in\n            tag_25:\n              mload(0x40)\n              dup1\n              swap2\n              sub\n              swap1\n              return\n                /* \"contracts/SimpleStorage.sol\":675:761  function getter() public view returns(uint256){... */\n            tag_7:\n              tag_27\n              tag_28\n              jump\t// in\n            tag_27:\n              mload(0x40)\n              tag_29\n              swap2\n              swap1\n              tag_26\n              jump\t// in\n            tag_29:\n              mload(0x40)\n              dup1\n              swap2\n              sub\n              swap1\n              return\n                /* \"contracts/SimpleStorage.sol\":571:669  function stroe(uint256 _favoriteNumber) public {... */\n            tag_11:\n                /* \"contracts/SimpleStorage.sol\":647:662  _favoriteNumber */\n              dup1\n                /* \"contracts/SimpleStorage.sol\":628:644  myFavoriteNumber */\n              0x00\n                /* \"contracts/SimpleStorage.sol\":628:662  myFavoriteNumber = _favoriteNumber */\n              dup2\n              swap1\n              sstore\n              pop\n                /* \"contracts/SimpleStorage.sol\":571:669  function stroe(uint256 _favoriteNumber) public {... */\n              pop\n              jump\t// out\n                /* \"contracts/SimpleStorage.sol\":406:431  Person[] public myFriends */\n            tag_14:\n              0x01\n              dup2\n              dup2\n              sload\n              dup2\n              lt\n              tag_31\n              jumpi\n              0x00\n              dup1\n              revert\n            tag_31:\n              swap1\n              0x00\n              mstore\n              keccak256(0x00, 0x20)\n              swap1\n              0x02\n              mul\n              add\n              0x00\n              swap2\n              pop\n              swap1\n              pop\n              dup1\n              0x00\n              add\n              sload\n              swap1\n              dup1\n              0x01\n              add\n              dup1\n              sload\n              tag_33\n              swap1\n              tag_34\n              jump\t// in\n            tag_33:\n              dup1\n              0x1f\n              add\n              0x20\n              dup1\n              swap2\n              div\n              mul\n              0x20\n              add\n              mload(0x40)\n              swap1\n              dup2\n              add\n              0x40\n              mstore\n              dup1\n              swap3\n              swap2\n              swap1\n              dup2\n              dup2\n              mstore\n              0x20\n              add\n              dup3\n              dup1\n              sload\n              tag_35\n              swap1\n              tag_34\n              jump\t// in\n            tag_35:\n              dup1\n              iszero\n              tag_36\n              jumpi\n              dup1\n              0x1f\n              lt\n              tag_37\n              jumpi\n              0x0100\n              dup1\n              dup4\n              sload\n              div\n              mul\n              dup4\n              mstore\n              swap2\n              0x20\n              add\n              swap2\n              jump(tag_36)\n            tag_37:\n              dup3\n              add\n              swap2\n              swap1\n              0x00\n              mstore\n              keccak256(0x00, 0x20)\n              swap1\n            tag_38:\n              dup2\n              sload\n              dup2\n              mstore\n              swap1\n              0x01\n              add\n              swap1\n              0x20\n              add\n              dup1\n              dup4\n              gt\n              tag_38\n              jumpi\n              dup3\n              swap1\n              sub\n              0x1f\n              and\n              dup3\n              add\n              swap2\n            tag_36:\n              pop\n              pop\n              pop\n              pop\n              pop\n              swap1\n              pop\n              dup3\n              jump\t// out\n                /* \"contracts/SimpleStorage.sol\":767:990  function addPerson(string calldata _name, uint256 _number) public{... */\n            tag_20:\n                /* \"contracts/SimpleStorage.sol\":842:851  myFriends */\n              0x01\n                /* \"contracts/SimpleStorage.sol\":857:935  Person({... */\n              mload(0x40)\n              dup1\n              0x40\n              add\n              0x40\n              mstore\n              dup1\n                /* \"contracts/SimpleStorage.sol\":893:900  _number */\n              dup4\n                /* \"contracts/SimpleStorage.sol\":857:935  Person({... */\n              dup2\n              mstore\n              0x20\n              add\n                /* \"contracts/SimpleStorage.sol\":919:924  _name */\n              dup6\n              dup6\n                /* \"contracts/SimpleStorage.sol\":857:935  Person({... */\n              dup1\n              dup1\n              0x1f\n              add\n              0x20\n              dup1\n              swap2\n              div\n              mul\n              0x20\n              add\n              mload(0x40)\n              swap1\n              dup2\n              add\n              0x40\n              mstore\n              dup1\n              swap4\n              swap3\n              swap2\n              swap1\n              dup2\n              dup2\n              mstore\n              0x20\n              add\n              dup4\n              dup4\n              dup1\n              dup3\n              dup5\n              calldatacopy\n              0x00\n              dup2\n              dup5\n              add\n              mstore\n              not(0x1f)\n              0x1f\n              dup3\n              add\n              and\n              swap1\n              pop\n              dup1\n              dup4\n              add\n              swap3\n              pop\n              pop\n              pop\n              pop\n              pop\n              pop\n              pop\n              dup2\n              mstore\n              pop\n                /* \"contracts/SimpleStorage.sol\":842:936  myFriends.push(Person({... */\n              swap1\n              dup1\n              0x01\n              dup2\n              sload\n              add\n              dup1\n              dup3\n              sstore\n              dup1\n              swap2\n              pop\n              pop\n              0x01\n              swap1\n              sub\n              swap1\n              0x00\n              mstore\n              keccak256(0x00, 0x20)\n              swap1\n              0x02\n              mul\n              add\n              0x00\n              swap1\n              swap2\n              swap1\n              swap2\n              swap1\n              swap2\n              pop\n              0x00\n              dup3\n              add\n              mload\n              dup2\n              0x00\n              add\n              sstore\n              0x20\n              dup3\n              add\n              mload\n              dup2\n              0x01\n              add\n              swap1\n              dup2\n              tag_41\n              swap2\n              swap1\n              tag_42\n              jump\t// in\n            tag_41:\n              pop\n              pop\n              pop\n                /* \"contracts/SimpleStorage.sol\":976:983  _number */\n              dup1\n                /* \"contracts/SimpleStorage.sol\":946:966  nameToFavoriteNumber */\n              0x02\n                /* \"contracts/SimpleStorage.sol\":967:972  _name */\n              dup5\n              dup5\n                /* \"contracts/SimpleStorage.sol\":946:973  nameToFavoriteNumber[_name] */\n              mload(0x40)\n              tag_43\n              swap3\n              swap2\n              swap1\n              tag_44\n              jump\t// in\n            tag_43:\n              swap1\n              dup2\n              mstore\n              0x20\n              add\n              mload(0x40)\n              dup1\n              swap2\n              sub\n              swap1\n              keccak256\n                /* \"contracts/SimpleStorage.sol\":946:983  nameToFavoriteNumber[_name] = _number */\n              dup2\n              swap1\n              sstore\n              pop\n                /* \"contracts/SimpleStorage.sol\":767:990  function addPerson(string calldata _name, uint256 _number) public{... */\n              pop\n              pop\n              pop\n              jump\t// out\n                /* \"contracts/SimpleStorage.sol\":510:564  mapping(string => uint256) public nameToFavoriteNumber */\n            tag_24:\n              0x02\n              dup2\n              dup1\n              mload\n              0x20\n              dup2\n              add\n              dup3\n              add\n              dup1\n              mload\n              dup5\n              dup3\n              mstore\n              0x20\n              dup4\n              add\n              0x20\n              dup6\n              add\n              keccak256\n              dup2\n              dup4\n              mstore\n              dup1\n              swap6\n              pop\n              pop\n              pop\n              pop\n              pop\n              pop\n              0x00\n              swap2\n              pop\n              swap1\n              pop\n              sload\n              dup2\n              jump\t// out\n                /* \"contracts/SimpleStorage.sol\":675:761  function getter() public view returns(uint256){... */\n            tag_28:\n                /* \"contracts/SimpleStorage.sol\":713:720  uint256 */\n              0x00\n                /* \"contracts/SimpleStorage.sol\":738:754  myFavoriteNumber */\n              dup1\n              sload\n                /* \"contracts/SimpleStorage.sol\":731:754  return myFavoriteNumber */\n              swap1\n              pop\n                /* \"contracts/SimpleStorage.sol\":675:761  function getter() public view returns(uint256){... */\n              swap1\n              jump\t// out\n                /* \"#utility.yul\":7:82   */\n            tag_46:\n                /* \"#utility.yul\":40:46   */\n              0x00\n                /* \"#utility.yul\":73:75   */\n              0x40\n                /* \"#utility.yul\":67:76   */\n              mload\n                /* \"#utility.yul\":57:76   */\n              swap1\n              pop\n                /* \"#utility.yul\":7:82   */\n              swap1\n              jump\t// out\n                /* \"#utility.yul\":88:205   */\n            tag_47:\n                /* \"#utility.yul\":197:198   */\n              0x00\n                /* \"#utility.yul\":194:195   */\n              dup1\n                /* \"#utility.yul\":187:199   */\n              revert\n                /* \"#utility.yul\":211:328   */\n            tag_48:\n                /* \"#utility.yul\":320:321   */\n              0x00\n                /* \"#utility.yul\":317:318   */\n              dup1\n                /* \"#utility.yul\":310:322   */\n              revert\n                /* \"#utility.yul\":334:411   */\n            tag_49:\n                /* \"#utility.yul\":371:378   */\n              0x00\n                /* \"#utility.yul\":400:405   */\n              dup2\n                /* \"#utility.yul\":389:405   */\n              swap1\n              pop\n                /* \"#utility.yul\":334:411   */\n              swap2\n              swap1\n              pop\n              jump\t// out\n                /* \"#utility.yul\":417:539   */\n            tag_50:\n                /* \"#utility.yul\":490:514   */\n              tag_94\n                /* \"#utility.yul\":508:513   */\n              dup2\n                /* \"#utility.yul\":490:514   */\n              tag_49\n              jump\t// in\n            tag_94:\n                /* \"#utility.yul\":483:488   */\n              dup2\n                /* \"#utility.yul\":480:515   */\n              eq\n                /* \"#utility.yul\":470:533   */\n              tag_95\n              jumpi\n                /* \"#utility.yul\":529:530   */\n              0x00\n                /* \"#utility.yul\":526:527   */\n              dup1\n                /* \"#utility.yul\":519:531   */\n              revert\n                /* \"#utility.yul\":470:533   */\n            tag_95:\n                /* \"#utility.yul\":417:539   */\n              pop\n              jump\t// out\n                /* \"#utility.yul\":545:684   */\n            tag_51:\n                /* \"#utility.yul\":591:596   */\n              0x00\n                /* \"#utility.yul\":629:635   */\n              dup2\n                /* \"#utility.yul\":616:636   */\n              calldataload\n                /* \"#utility.yul\":607:636   */\n              swap1\n              pop\n                /* \"#utility.yul\":645:678   */\n              tag_97\n                /* \"#utility.yul\":672:677   */\n              dup2\n                /* \"#utility.yul\":645:678   */\n              tag_50\n              jump\t// in\n            tag_97:\n                /* \"#utility.yul\":545:684   */\n              swap3\n              swap2\n              pop\n              pop\n              jump\t// out\n                /* \"#utility.yul\":690:1019   */\n            tag_10:\n                /* \"#utility.yul\":749:755   */\n              0x00\n                /* \"#utility.yul\":798:800   */\n              0x20\n                /* \"#utility.yul\":786:795   */\n              dup3\n                /* \"#utility.yul\":777:784   */\n              dup5\n                /* \"#utility.yul\":773:796   */\n              sub\n                /* \"#utility.yul\":769:801   */\n              slt\n                /* \"#utility.yul\":766:885   */\n              iszero\n              tag_99\n              jumpi\n                /* \"#utility.yul\":804:883   */\n              tag_100\n              tag_47\n              jump\t// in\n            tag_100:\n                /* \"#utility.yul\":766:885   */\n            tag_99:\n                /* \"#utility.yul\":924:925   */\n              0x00\n                /* \"#utility.yul\":949:1002   */\n              tag_101\n                /* \"#utility.yul\":994:1001   */\n              dup5\n                /* \"#utility.yul\":985:991   */\n              dup3\n                /* \"#utility.yul\":974:983   */\n              dup6\n                /* \"#utility.yul\":970:992   */\n              add\n                /* \"#utility.yul\":949:1002   */\n              tag_51\n              jump\t// in\n            tag_101:\n                /* \"#utility.yul\":939:1002   */\n              swap2\n              pop\n                /* \"#utility.yul\":895:1012   */\n              pop\n                /* \"#utility.yul\":690:1019   */\n              swap3\n              swap2\n              pop\n              pop\n              jump\t// out\n                /* \"#utility.yul\":1025:1143   */\n            tag_52:\n                /* \"#utility.yul\":1112:1136   */\n              tag_103\n                /* \"#utility.yul\":1130:1135   */\n              dup2\n                /* \"#utility.yul\":1112:1136   */\n              tag_49\n              jump\t// in\n            tag_103:\n                /* \"#utility.yul\":1107:1110   */\n              dup3\n                /* \"#utility.yul\":1100:1137   */\n              mstore\n                /* \"#utility.yul\":1025:1143   */\n              pop\n              pop\n              jump\t// out\n                /* \"#utility.yul\":1149:1248   */\n            tag_53:\n                /* \"#utility.yul\":1201:1207   */\n              0x00\n                /* \"#utility.yul\":1235:1240   */\n              dup2\n                /* \"#utility.yul\":1229:1241   */\n              mload\n                /* \"#utility.yul\":1219:1241   */\n              swap1\n              pop\n                /* \"#utility.yul\":1149:1248   */\n              swap2\n              swap1\n              pop\n              jump\t// out\n                /* \"#utility.yul\":1254:1423   */\n            tag_54:\n                /* \"#utility.yul\":1338:1349   */\n              0x00\n                /* \"#utility.yul\":1372:1378   */\n              dup3\n                /* \"#utility.yul\":1367:1370   */\n              dup3\n                /* \"#utility.yul\":1360:1379   */\n              mstore\n                /* \"#utility.yul\":1412:1416   */\n              0x20\n                /* \"#utility.yul\":1407:1410   */\n              dup3\n                /* \"#utility.yul\":1403:1417   */\n              add\n                /* \"#utility.yul\":1388:1417   */\n              swap1\n              pop\n                /* \"#utility.yul\":1254:1423   */\n              swap3\n              swap2\n              pop\n              pop\n              jump\t// out\n                /* \"#utility.yul\":1429:1568   */\n            tag_55:\n                /* \"#utility.yul\":1518:1524   */\n              dup3\n                /* \"#utility.yul\":1513:1516   */\n              dup2\n                /* \"#utility.yul\":1508:1511   */\n              dup4\n                /* \"#utility.yul\":1502:1525   */\n              mcopy\n                /* \"#utility.yul\":1559:1560   */\n              0x00\n                /* \"#utility.yul\":1550:1556   */\n              dup4\n                /* \"#utility.yul\":1545:1548   */\n              dup4\n                /* \"#utility.yul\":1541:1557   */\n              add\n                /* \"#utility.yul\":1534:1561   */\n              mstore\n                /* \"#utility.yul\":1429:1568   */\n              pop\n              pop\n              pop\n              jump\t// out\n                /* \"#utility.yul\":1574:1676   */\n            tag_56:\n                /* \"#utility.yul\":1615:1621   */\n              0x00\n                /* \"#utility.yul\":1666:1668   */\n              0x1f\n                /* \"#utility.yul\":1662:1669   */\n              not\n                /* \"#utility.yul\":1657:1659   */\n              0x1f\n                /* \"#utility.yul\":1650:1655   */\n              dup4\n                /* \"#utility.yul\":1646:1660   */\n              add\n                /* \"#utility.yul\":1642:1670   */\n              and\n                /* \"#utility.yul\":1632:1670   */\n              swap1\n              pop\n                /* \"#utility.yul\":1574:1676   */\n              swap2\n              swap1\n              pop\n              jump\t// out\n                /* \"#utility.yul\":1682:2059   */\n            tag_57:\n                /* \"#utility.yul\":1770:1773   */\n              0x00\n                /* \"#utility.yul\":1798:1837   */\n              tag_109\n                /* \"#utility.yul\":1831:1836   */\n              dup3\n                /* \"#utility.yul\":1798:1837   */\n              tag_53\n              jump\t// in\n            tag_109:\n                /* \"#utility.yul\":1853:1924   */\n              tag_110\n                /* \"#utility.yul\":1917:1923   */\n              dup2\n                /* \"#utility.yul\":1912:1915   */\n              dup6\n                /* \"#utility.yul\":1853:1924   */\n              tag_54\n              jump\t// in\n            tag_110:\n                /* \"#utility.yul\":1846:1924   */\n              swap4\n              pop\n                /* \"#utility.yul\":1933:1998   */\n              tag_111\n                /* \"#utility.yul\":1991:1997   */\n              dup2\n                /* \"#utility.yul\":1986:1989   */\n              dup6\n                /* \"#utility.yul\":1979:1983   */\n              0x20\n                /* \"#utility.yul\":1972:1977   */\n              dup7\n                /* \"#utility.yul\":1968:1984   */\n              add\n                /* \"#utility.yul\":1933:1998   */\n              tag_55\n              jump\t// in\n            tag_111:\n                /* \"#utility.yul\":2023:2052   */\n              tag_112\n                /* \"#utility.yul\":2045:2051   */\n              dup2\n                /* \"#utility.yul\":2023:2052   */\n              tag_56\n              jump\t// in\n            tag_112:\n                /* \"#utility.yul\":2018:2021   */\n              dup5\n                /* \"#utility.yul\":2014:2053   */\n              add\n                /* \"#utility.yul\":2007:2053   */\n              swap2\n              pop\n                /* \"#utility.yul\":1774:2059   */\n              pop\n                /* \"#utility.yul\":1682:2059   */\n              swap3\n              swap2\n              pop\n              pop\n              jump\t// out\n                /* \"#utility.yul\":2065:2488   */\n            tag_16:\n                /* \"#utility.yul\":2206:2210   */\n              0x00\n                /* \"#utility.yul\":2244:2246   */\n              0x40\n                /* \"#utility.yul\":2233:2242   */\n              dup3\n                /* \"#utility.yul\":2229:2247   */\n              add\n                /* \"#utility.yul\":2221:2247   */\n              swap1\n              pop\n                /* \"#utility.yul\":2257:2328   */\n              tag_114\n                /* \"#utility.yul\":2325:2326   */\n              0x00\n                /* \"#utility.yul\":2314:2323   */\n              dup4\n                /* \"#utility.yul\":2310:2327   */\n              add\n                /* \"#utility.yul\":2301:2307   */\n              dup6\n                /* \"#utility.yul\":2257:2328   */\n              tag_52\n              jump\t// in\n            tag_114:\n                /* \"#utility.yul\":2375:2384   */\n              dup2\n                /* \"#utility.yul\":2369:2373   */\n              dup2\n                /* \"#utility.yul\":2365:2385   */\n              sub\n                /* \"#utility.yul\":2360:2362   */\n              0x20\n                /* \"#utility.yul\":2349:2358   */\n              dup4\n                /* \"#utility.yul\":2345:2363   */\n              add\n                /* \"#utility.yul\":2338:2386   */\n              mstore\n                /* \"#utility.yul\":2403:2481   */\n              tag_115\n                /* \"#utility.yul\":2476:2480   */\n              dup2\n                /* \"#utility.yul\":2467:2473   */\n              dup5\n                /* \"#utility.yul\":2403:2481   */\n              tag_57\n              jump\t// in\n            tag_115:\n                /* \"#utility.yul\":2395:2481   */\n              swap1\n              pop\n                /* \"#utility.yul\":2065:2488   */\n              swap4\n              swap3\n              pop\n              pop\n              pop\n              jump\t// out\n                /* \"#utility.yul\":2494:2611   */\n            tag_58:\n                /* \"#utility.yul\":2603:2604   */\n              0x00\n                /* \"#utility.yul\":2600:2601   */\n              dup1\n                /* \"#utility.yul\":2593:2605   */\n              revert\n                /* \"#utility.yul\":2617:2734   */\n            tag_59:\n                /* \"#utility.yul\":2726:2727   */\n              0x00\n                /* \"#utility.yul\":2723:2724   */\n              dup1\n                /* \"#utility.yul\":2716:2728   */\n              revert\n                /* \"#utility.yul\":2740:2857   */\n            tag_60:\n                /* \"#utility.yul\":2849:2850   */\n              0x00\n                /* \"#utility.yul\":2846:2847   */\n              dup1\n                /* \"#utility.yul\":2839:2851   */\n              revert\n                /* \"#utility.yul\":2877:3430   */\n            tag_61:\n                /* \"#utility.yul\":2935:2943   */\n              0x00\n                /* \"#utility.yul\":2945:2951   */\n              dup1\n                /* \"#utility.yul\":2995:2998   */\n              dup4\n                /* \"#utility.yul\":2988:2992   */\n              0x1f\n                /* \"#utility.yul\":2980:2986   */\n              dup5\n                /* \"#utility.yul\":2976:2993   */\n              add\n                /* \"#utility.yul\":2972:2999   */\n              slt\n                /* \"#utility.yul\":2962:3084   */\n              tag_120\n              jumpi\n                /* \"#utility.yul\":3003:3082   */\n              tag_121\n              tag_58\n              jump\t// in\n            tag_121:\n                /* \"#utility.yul\":2962:3084   */\n            tag_120:\n                /* \"#utility.yul\":3116:3122   */\n              dup3\n                /* \"#utility.yul\":3103:3123   */\n              calldataload\n                /* \"#utility.yul\":3093:3123   */\n              swap1\n              pop\n                /* \"#utility.yul\":3146:3164   */\n              0xffffffffffffffff\n                /* \"#utility.yul\":3138:3144   */\n              dup2\n                /* \"#utility.yul\":3135:3165   */\n              gt\n                /* \"#utility.yul\":3132:3249   */\n              iszero\n              tag_122\n              jumpi\n                /* \"#utility.yul\":3168:3247   */\n              tag_123\n              tag_59\n              jump\t// in\n            tag_123:\n                /* \"#utility.yul\":3132:3249   */\n            tag_122:\n                /* \"#utility.yul\":3282:3286   */\n              0x20\n                /* \"#utility.yul\":3274:3280   */\n              dup4\n                /* \"#utility.yul\":3270:3287   */\n              add\n                /* \"#utility.yul\":3258:3287   */\n              swap2\n              pop\n                /* \"#utility.yul\":3336:3339   */\n              dup4\n                /* \"#utility.yul\":3328:3332   */\n              0x01\n                /* \"#utility.yul\":3320:3326   */\n              dup3\n                /* \"#utility.yul\":3316:3333   */\n              mul\n                /* \"#utility.yul\":3306:3314   */\n              dup4\n                /* \"#utility.yul\":3302:3334   */\n              add\n                /* \"#utility.yul\":3299:3340   */\n              gt\n                /* \"#utility.yul\":3296:3424   */\n              iszero\n              tag_124\n              jumpi\n                /* \"#utility.yul\":3343:3422   */\n              tag_125\n              tag_60\n              jump\t// in\n            tag_125:\n                /* \"#utility.yul\":3296:3424   */\n            tag_124:\n                /* \"#utility.yul\":2877:3430   */\n              swap3\n              pop\n              swap3\n              swap1\n              pop\n              jump\t// out\n                /* \"#utility.yul\":3436:4110   */\n            tag_19:\n                /* \"#utility.yul\":3516:3522   */\n              0x00\n                /* \"#utility.yul\":3524:3530   */\n              dup1\n                /* \"#utility.yul\":3532:3538   */\n              0x00\n                /* \"#utility.yul\":3581:3583   */\n              0x40\n                /* \"#utility.yul\":3569:3578   */\n              dup5\n                /* \"#utility.yul\":3560:3567   */\n              dup7\n                /* \"#utility.yul\":3556:3579   */\n              sub\n                /* \"#utility.yul\":3552:3584   */\n              slt\n                /* \"#utility.yul\":3549:3668   */\n              iszero\n              tag_127\n              jumpi\n                /* \"#utility.yul\":3587:3666   */\n              tag_128\n              tag_47\n              jump\t// in\n            tag_128:\n                /* \"#utility.yul\":3549:3668   */\n            tag_127:\n                /* \"#utility.yul\":3735:3736   */\n              0x00\n                /* \"#utility.yul\":3724:3733   */\n              dup5\n                /* \"#utility.yul\":3720:3737   */\n              add\n                /* \"#utility.yul\":3707:3738   */\n              calldataload\n                /* \"#utility.yul\":3765:3783   */\n              0xffffffffffffffff\n                /* \"#utility.yul\":3757:3763   */\n              dup2\n                /* \"#utility.yul\":3754:3784   */\n              gt\n                /* \"#utility.yul\":3751:3868   */\n              iszero\n              tag_129\n              jumpi\n                /* \"#utility.yul\":3787:3866   */\n              tag_130\n              tag_48\n              jump\t// in\n            tag_130:\n                /* \"#utility.yul\":3751:3868   */\n            tag_129:\n                /* \"#utility.yul\":3900:3965   */\n              tag_131\n                /* \"#utility.yul\":3957:3964   */\n              dup7\n                /* \"#utility.yul\":3948:3954   */\n              dup3\n                /* \"#utility.yul\":3937:3946   */\n              dup8\n                /* \"#utility.yul\":3933:3955   */\n              add\n                /* \"#utility.yul\":3900:3965   */\n              tag_61\n              jump\t// in\n            tag_131:\n                /* \"#utility.yul\":3882:3965   */\n              swap4\n              pop\n              swap4\n              pop\n                /* \"#utility.yul\":3678:3975   */\n              pop\n                /* \"#utility.yul\":4014:4016   */\n              0x20\n                /* \"#utility.yul\":4040:4093   */\n              tag_132\n                /* \"#utility.yul\":4085:4092   */\n              dup7\n                /* \"#utility.yul\":4076:4082   */\n              dup3\n                /* \"#utility.yul\":4065:4074   */\n              dup8\n                /* \"#utility.yul\":4061:4083   */\n              add\n                /* \"#utility.yul\":4040:4093   */\n              tag_51\n              jump\t// in\n            tag_132:\n                /* \"#utility.yul\":4030:4093   */\n              swap2\n              pop\n                /* \"#utility.yul\":3985:4103   */\n              pop\n                /* \"#utility.yul\":3436:4110   */\n              swap3\n              pop\n              swap3\n              pop\n              swap3\n              jump\t// out\n                /* \"#utility.yul\":4116:4233   */\n            tag_62:\n                /* \"#utility.yul\":4225:4226   */\n              0x00\n                /* \"#utility.yul\":4222:4223   */\n              dup1\n                /* \"#utility.yul\":4215:4227   */\n              revert\n                /* \"#utility.yul\":4239:4419   */\n            tag_63:\n                /* \"#utility.yul\":4287:4364   */\n              0x4e487b7100000000000000000000000000000000000000000000000000000000\n                /* \"#utility.yul\":4284:4285   */\n              0x00\n                /* \"#utility.yul\":4277:4365   */\n              mstore\n                /* \"#utility.yul\":4384:4388   */\n              0x41\n                /* \"#utility.yul\":4381:4382   */\n              0x04\n                /* \"#utility.yul\":4374:4389   */\n              mstore\n                /* \"#utility.yul\":4408:4412   */\n              0x24\n                /* \"#utility.yul\":4405:4406   */\n              0x00\n                /* \"#utility.yul\":4398:4413   */\n              revert\n                /* \"#utility.yul\":4425:4706   */\n            tag_64:\n                /* \"#utility.yul\":4508:4535   */\n              tag_136\n                /* \"#utility.yul\":4530:4534   */\n              dup3\n                /* \"#utility.yul\":4508:4535   */\n              tag_56\n              jump\t// in\n            tag_136:\n                /* \"#utility.yul\":4500:4506   */\n              dup2\n                /* \"#utility.yul\":4496:4536   */\n              add\n                /* \"#utility.yul\":4638:4644   */\n              dup2\n                /* \"#utility.yul\":4626:4636   */\n              dup2\n                /* \"#utility.yul\":4623:4645   */\n              lt\n                /* \"#utility.yul\":4602:4620   */\n              0xffffffffffffffff\n                /* \"#utility.yul\":4590:4600   */\n              dup3\n                /* \"#utility.yul\":4587:4621   */\n              gt\n                /* \"#utility.yul\":4584:4646   */\n              or\n                /* \"#utility.yul\":4581:4669   */\n              iszero\n              tag_137\n              jumpi\n                /* \"#utility.yul\":4649:4667   */\n              tag_138\n              tag_63\n              jump\t// in\n            tag_138:\n                /* \"#utility.yul\":4581:4669   */\n            tag_137:\n                /* \"#utility.yul\":4689:4699   */\n              dup1\n                /* \"#utility.yul\":4685:4687   */\n              0x40\n                /* \"#utility.yul\":4678:4700   */\n              mstore\n                /* \"#utility.yul\":4468:4706   */\n              pop\n                /* \"#utility.yul\":4425:4706   */\n              pop\n              pop\n              jump\t// out\n                /* \"#utility.yul\":4712:4841   */\n            tag_65:\n                /* \"#utility.yul\":4746:4752   */\n              0x00\n                /* \"#utility.yul\":4773:4793   */\n              tag_140\n              tag_46\n              jump\t// in\n            tag_140:\n                /* \"#utility.yul\":4763:4793   */\n              swap1\n              pop\n                /* \"#utility.yul\":4802:4835   */\n              tag_141\n                /* \"#utility.yul\":4830:4834   */\n              dup3\n                /* \"#utility.yul\":4822:4828   */\n              dup3\n                /* \"#utility.yul\":4802:4835   */\n              tag_64\n              jump\t// in\n            tag_141:\n                /* \"#utility.yul\":4712:4841   */\n              swap2\n              swap1\n              pop\n              jump\t// out\n                /* \"#utility.yul\":4847:5155   */\n            tag_66:\n                /* \"#utility.yul\":4909:4913   */\n              0x00\n                /* \"#utility.yul\":4999:5017   */\n              0xffffffffffffffff\n                /* \"#utility.yul\":4991:4997   */\n              dup3\n                /* \"#utility.yul\":4988:5018   */\n              gt\n                /* \"#utility.yul\":4985:5041   */\n              iszero\n              tag_143\n              jumpi\n                /* \"#utility.yul\":5021:5039   */\n              tag_144\n              tag_63\n              jump\t// in\n            tag_144:\n                /* \"#utility.yul\":4985:5041   */\n            tag_143:\n                /* \"#utility.yul\":5059:5088   */\n              tag_145\n                /* \"#utility.yul\":5081:5087   */\n              dup3\n                /* \"#utility.yul\":5059:5088   */\n              tag_56\n              jump\t// in\n            tag_145:\n                /* \"#utility.yul\":5051:5088   */\n              swap1\n              pop\n                /* \"#utility.yul\":5143:5147   */\n              0x20\n                /* \"#utility.yul\":5137:5141   */\n              dup2\n                /* \"#utility.yul\":5133:5148   */\n              add\n                /* \"#utility.yul\":5125:5148   */\n              swap1\n              pop\n                /* \"#utility.yul\":4847:5155   */\n              swap2\n              swap1\n              pop\n              jump\t// out\n                /* \"#utility.yul\":5161:5309   */\n            tag_67:\n                /* \"#utility.yul\":5259:5265   */\n              dup3\n                /* \"#utility.yul\":5254:5257   */\n              dup2\n                /* \"#utility.yul\":5249:5252   */\n              dup4\n                /* \"#utility.yul\":5236:5266   */\n              calldatacopy\n                /* \"#utility.yul\":5300:5301   */\n              0x00\n                /* \"#utility.yul\":5291:5297   */\n              dup4\n                /* \"#utility.yul\":5286:5289   */\n              dup4\n                /* \"#utility.yul\":5282:5298   */\n              add\n                /* \"#utility.yul\":5275:5302   */\n              mstore\n                /* \"#utility.yul\":5161:5309   */\n              pop\n              pop\n              pop\n              jump\t// out\n                /* \"#utility.yul\":5315:5740   */\n            tag_68:\n                /* \"#utility.yul\":5393:5398   */\n              0x00\n                /* \"#utility.yul\":5418:5484   */\n              tag_148\n                /* \"#utility.yul\":5434:5483   */\n              tag_149\n                /* \"#utility.yul\":5476:5482   */\n              dup5\n                /* \"#utility.yul\":5434:5483   */\n              tag_66\n              jump\t// in\n            tag_149:\n                /* \"#utility.yul\":5418:5484   */\n              tag_65\n              jump\t// in\n            tag_148:\n                /* \"#utility.yul\":5409:5484   */\n              swap1\n              pop\n                /* \"#utility.yul\":5507:5513   */\n              dup3\n                /* \"#utility.yul\":5500:5505   */\n              dup2\n                /* \"#utility.yul\":5493:5514   */\n              mstore\n                /* \"#utility.yul\":5545:5549   */\n              0x20\n                /* \"#utility.yul\":5538:5543   */\n              dup2\n                /* \"#utility.yul\":5534:5550   */\n              add\n                /* \"#utility.yul\":5583:5586   */\n              dup5\n                /* \"#utility.yul\":5574:5580   */\n              dup5\n                /* \"#utility.yul\":5569:5572   */\n              dup5\n                /* \"#utility.yul\":5565:5581   */\n              add\n                /* \"#utility.yul\":5562:5587   */\n              gt\n                /* \"#utility.yul\":5559:5671   */\n              iszero\n              tag_150\n              jumpi\n                /* \"#utility.yul\":5590:5669   */\n              tag_151\n              tag_62\n              jump\t// in\n            tag_151:\n                /* \"#utility.yul\":5559:5671   */\n            tag_150:\n                /* \"#utility.yul\":5680:5734   */\n              tag_152\n                /* \"#utility.yul\":5727:5733   */\n              dup5\n                /* \"#utility.yul\":5722:5725   */\n              dup3\n                /* \"#utility.yul\":5717:5720   */\n              dup6\n                /* \"#utility.yul\":5680:5734   */\n              tag_67\n              jump\t// in\n            tag_152:\n                /* \"#utility.yul\":5399:5740   */\n              pop\n                /* \"#utility.yul\":5315:5740   */\n              swap4\n              swap3\n              pop\n              pop\n              pop\n              jump\t// out\n                /* \"#utility.yul\":5760:6100   */\n            tag_69:\n                /* \"#utility.yul\":5816:5821   */\n              0x00\n                /* \"#utility.yul\":5865:5868   */\n              dup3\n                /* \"#utility.yul\":5858:5862   */\n              0x1f\n                /* \"#utility.yul\":5850:5856   */\n              dup4\n                /* \"#utility.yul\":5846:5863   */\n              add\n                /* \"#utility.yul\":5842:5869   */\n              slt\n                /* \"#utility.yul\":5832:5954   */\n              tag_154\n              jumpi\n                /* \"#utility.yul\":5873:5952   */\n              tag_155\n              tag_58\n              jump\t// in\n            tag_155:\n                /* \"#utility.yul\":5832:5954   */\n            tag_154:\n                /* \"#utility.yul\":5990:5996   */\n              dup2\n                /* \"#utility.yul\":5977:5997   */\n              calldataload\n                /* \"#utility.yul\":6015:6094   */\n              tag_156\n                /* \"#utility.yul\":6090:6093   */\n              dup5\n                /* \"#utility.yul\":6082:6088   */\n              dup3\n                /* \"#utility.yul\":6075:6079   */\n              0x20\n                /* \"#utility.yul\":6067:6073   */\n              dup7\n                /* \"#utility.yul\":6063:6080   */\n              add\n                /* \"#utility.yul\":6015:6094   */\n              tag_68\n              jump\t// in\n            tag_156:\n                /* \"#utility.yul\":6006:6094   */\n              swap2\n              pop\n                /* \"#utility.yul\":5822:6100   */\n              pop\n                /* \"#utility.yul\":5760:6100   */\n              swap3\n              swap2\n              pop\n              pop\n              jump\t// out\n                /* \"#utility.yul\":6106:6615   */\n            tag_23:\n                /* \"#utility.yul\":6175:6181   */\n              0x00\n                /* \"#utility.yul\":6224:6226   */\n              0x20\n                /* \"#utility.yul\":6212:6221   */\n              dup3\n                /* \"#utility.yul\":6203:6210   */\n              dup5\n                /* \"#utility.yul\":6199:6222   */\n              sub\n                /* \"#utility.yul\":6195:6227   */\n              slt\n                /* \"#utility.yul\":6192:6311   */\n              iszero\n              tag_158\n              jumpi\n                /* \"#utility.yul\":6230:6309   */\n              tag_159\n              tag_47\n              jump\t// in\n            tag_159:\n                /* \"#utility.yul\":6192:6311   */\n            tag_158:\n                /* \"#utility.yul\":6378:6379   */\n              0x00\n                /* \"#utility.yul\":6367:6376   */\n              dup3\n                /* \"#utility.yul\":6363:6380   */\n              add\n                /* \"#utility.yul\":6350:6381   */\n              calldataload\n                /* \"#utility.yul\":6408:6426   */\n              0xffffffffffffffff\n                /* \"#utility.yul\":6400:6406   */\n              dup2\n                /* \"#utility.yul\":6397:6427   */\n              gt\n                /* \"#utility.yul\":6394:6511   */\n              iszero\n              tag_160\n              jumpi\n                /* \"#utility.yul\":6430:6509   */\n              tag_161\n              tag_48\n              jump\t// in\n            tag_161:\n                /* \"#utility.yul\":6394:6511   */\n            tag_160:\n                /* \"#utility.yul\":6535:6598   */\n              tag_162\n                /* \"#utility.yul\":6590:6597   */\n              dup5\n                /* \"#utility.yul\":6581:6587   */\n              dup3\n                /* \"#utility.yul\":6570:6579   */\n              dup6\n                /* \"#utility.yul\":6566:6588   */\n              add\n                /* \"#utility.yul\":6535:6598   */\n              tag_69\n              jump\t// in\n            tag_162:\n                /* \"#utility.yul\":6525:6598   */\n              swap2\n              pop\n                /* \"#utility.yul\":6321:6608   */\n              pop\n                /* \"#utility.yul\":6106:6615   */\n              swap3\n              swap2\n              pop\n              pop\n              jump\t// out\n                /* \"#utility.yul\":6621:6843   */\n            tag_26:\n                /* \"#utility.yul\":6714:6718   */\n              0x00\n                /* \"#utility.yul\":6752:6754   */\n              0x20\n                /* \"#utility.yul\":6741:6750   */\n              dup3\n                /* \"#utility.yul\":6737:6755   */\n              add\n                /* \"#utility.yul\":6729:6755   */\n              swap1\n              pop\n                /* \"#utility.yul\":6765:6836   */\n              tag_164\n                /* \"#utility.yul\":6833:6834   */\n              0x00\n                /* \"#utility.yul\":6822:6831   */\n              dup4\n                /* \"#utility.yul\":6818:6835   */\n              add\n                /* \"#utility.yul\":6809:6815   */\n              dup5\n                /* \"#utility.yul\":6765:6836   */\n              tag_52\n              jump\t// in\n            tag_164:\n                /* \"#utility.yul\":6621:6843   */\n              swap3\n              swap2\n              pop\n              pop\n              jump\t// out\n                /* \"#utility.yul\":6849:7029   */\n            tag_70:\n                /* \"#utility.yul\":6897:6974   */\n              0x4e487b7100000000000000000000000000000000000000000000000000000000\n                /* \"#utility.yul\":6894:6895   */\n              0x00\n                /* \"#utility.yul\":6887:6975   */\n              mstore\n                /* \"#utility.yul\":6994:6998   */\n              0x22\n                /* \"#utility.yul\":6991:6992   */\n              0x04\n                /* \"#utility.yul\":6984:6999   */\n              mstore\n                /* \"#utility.yul\":7018:7022   */\n              0x24\n                /* \"#utility.yul\":7015:7016   */\n              0x00\n                /* \"#utility.yul\":7008:7023   */\n              revert\n                /* \"#utility.yul\":7035:7355   */\n            tag_34:\n                /* \"#utility.yul\":7079:7085   */\n              0x00\n                /* \"#utility.yul\":7116:7117   */\n              0x02\n                /* \"#utility.yul\":7110:7114   */\n              dup3\n                /* \"#utility.yul\":7106:7118   */\n              div\n                /* \"#utility.yul\":7096:7118   */\n              swap1\n              pop\n                /* \"#utility.yul\":7163:7164   */\n              0x01\n                /* \"#utility.yul\":7157:7161   */\n              dup3\n                /* \"#utility.yul\":7153:7165   */\n              and\n                /* \"#utility.yul\":7184:7202   */\n              dup1\n                /* \"#utility.yul\":7174:7255   */\n              tag_167\n              jumpi\n                /* \"#utility.yul\":7240:7244   */\n              0x7f\n                /* \"#utility.yul\":7232:7238   */\n              dup3\n                /* \"#utility.yul\":7228:7245   */\n              and\n                /* \"#utility.yul\":7218:7245   */\n              swap2\n              pop\n                /* \"#utility.yul\":7174:7255   */\n            tag_167:\n                /* \"#utility.yul\":7302:7304   */\n              0x20\n                /* \"#utility.yul\":7294:7300   */\n              dup3\n                /* \"#utility.yul\":7291:7305   */\n              lt\n                /* \"#utility.yul\":7271:7289   */\n              dup2\n                /* \"#utility.yul\":7268:7306   */\n              sub\n                /* \"#utility.yul\":7265:7349   */\n              tag_168\n              jumpi\n                /* \"#utility.yul\":7321:7339   */\n              tag_169\n              tag_70\n              jump\t// in\n            tag_169:\n                /* \"#utility.yul\":7265:7349   */\n            tag_168:\n                /* \"#utility.yul\":7086:7355   */\n              pop\n                /* \"#utility.yul\":7035:7355   */\n              swap2\n              swap1\n              pop\n              jump\t// out\n                /* \"#utility.yul\":7361:7502   */\n            tag_71:\n                /* \"#utility.yul\":7410:7414   */\n              0x00\n                /* \"#utility.yul\":7433:7436   */\n              dup2\n                /* \"#utility.yul\":7425:7436   */\n              swap1\n              pop\n                /* \"#utility.yul\":7456:7459   */\n              dup2\n                /* \"#utility.yul\":7453:7454   */\n              0x00\n                /* \"#utility.yul\":7446:7460   */\n              mstore\n                /* \"#utility.yul\":7490:7494   */\n              0x20\n                /* \"#utility.yul\":7487:7488   */\n              0x00\n                /* \"#utility.yul\":7477:7495   */\n              keccak256\n                /* \"#utility.yul\":7469:7495   */\n              swap1\n              pop\n                /* \"#utility.yul\":7361:7502   */\n              swap2\n              swap1\n              pop\n              jump\t// out\n                /* \"#utility.yul\":7508:7601   */\n            tag_72:\n                /* \"#utility.yul\":7545:7551   */\n              0x00\n                /* \"#utility.yul\":7592:7594   */\n              0x20\n                /* \"#utility.yul\":7587:7589   */\n              0x1f\n                /* \"#utility.yul\":7580:7585   */\n              dup4\n                /* \"#utility.yul\":7576:7590   */\n              add\n                /* \"#utility.yul\":7572:7595   */\n              div\n                /* \"#utility.yul\":7562:7595   */\n              swap1\n              pop\n                /* \"#utility.yul\":7508:7601   */\n              swap2\n              swap1\n              pop\n              jump\t// out\n                /* \"#utility.yul\":7607:7714   */\n            tag_73:\n                /* \"#utility.yul\":7651:7659   */\n              0x00\n                /* \"#utility.yul\":7701:7706   */\n              dup3\n                /* \"#utility.yul\":7695:7699   */\n              dup3\n                /* \"#utility.yul\":7691:7707   */\n              shl\n                /* \"#utility.yul\":7670:7707   */\n              swap1\n              pop\n                /* \"#utility.yul\":7607:7714   */\n              swap3\n              swap2\n              pop\n              pop\n              jump\t// out\n                /* \"#utility.yul\":7720:8113   */\n            tag_74:\n                /* \"#utility.yul\":7789:7795   */\n              0x00\n                /* \"#utility.yul\":7839:7840   */\n              0x08\n                /* \"#utility.yul\":7827:7837   */\n              dup4\n                /* \"#utility.yul\":7823:7841   */\n              mul\n                /* \"#utility.yul\":7862:7959   */\n              tag_174\n                /* \"#utility.yul\":7892:7958   */\n              0xffffffffffffffffffffffffffffffffffffffffffffffffffffffffffffffff\n                /* \"#utility.yul\":7881:7890   */\n              dup3\n                /* \"#utility.yul\":7862:7959   */\n              tag_73\n              jump\t// in\n            tag_174:\n                /* \"#utility.yul\":7980:8019   */\n              tag_175\n                /* \"#utility.yul\":8010:8018   */\n              dup7\n                /* \"#utility.yul\":7999:8008   */\n              dup4\n                /* \"#utility.yul\":7980:8019   */\n              tag_73\n              jump\t// in\n            tag_175:\n                /* \"#utility.yul\":7968:8019   */\n              swap6\n              pop\n                /* \"#utility.yul\":8052:8056   */\n              dup1\n                /* \"#utility.yul\":8048:8057   */\n              not\n                /* \"#utility.yul\":8041:8046   */\n              dup5\n                /* \"#utility.yul\":8037:8058   */\n              and\n                /* \"#utility.yul\":8028:8058   */\n              swap4\n              pop\n                /* \"#utility.yul\":8101:8105   */\n              dup1\n                /* \"#utility.yul\":8091:8099   */\n              dup7\n                /* \"#utility.yul\":8087:8106   */\n              and\n                /* \"#utility.yul\":8080:8085   */\n              dup5\n                /* \"#utility.yul\":8077:8107   */\n              or\n                /* \"#utility.yul\":8067:8107   */\n              swap3\n              pop\n                /* \"#utility.yul\":7796:8113   */\n              pop\n              pop\n                /* \"#utility.yul\":7720:8113   */\n              swap4\n              swap3\n              pop\n              pop\n              pop\n              jump\t// out\n                /* \"#utility.yul\":8119:8179   */\n            tag_75:\n                /* \"#utility.yul\":8147:8150   */\n              0x00\n                /* \"#utility.yul\":8168:8173   */\n              dup2\n                /* \"#utility.yul\":8161:8173   */\n              swap1\n              pop\n                /* \"#utility.yul\":8119:8179   */\n              swap2\n              swap1\n              pop\n              jump\t// out\n                /* \"#utility.yul\":8185:8327   */\n            tag_76:\n                /* \"#utility.yul\":8235:8244   */\n              0x00\n                /* \"#utility.yul\":8268:8321   */\n              tag_178\n                /* \"#utility.yul\":8286:8320   */\n              tag_179\n                /* \"#utility.yul\":8295:8319   */\n              tag_180\n                /* \"#utility.yul\":8313:8318   */\n              dup5\n                /* \"#utility.yul\":8295:8319   */\n              tag_49\n              jump\t// in\n            tag_180:\n                /* \"#utility.yul\":8286:8320   */\n              tag_75\n              jump\t// in\n            tag_179:\n                /* \"#utility.yul\":8268:8321   */\n              tag_49\n              jump\t// in\n            tag_178:\n                /* \"#utility.yul\":8255:8321   */\n              swap1\n              pop\n                /* \"#utility.yul\":8185:8327   */\n              swap2\n              swap1\n              pop\n              jump\t// out\n                /* \"#utility.yul\":8333:8408   */\n            tag_77:\n                /* \"#utility.yul\":8376:8379   */\n              0x00\n                /* \"#utility.yul\":8397:8402   */\n              dup2\n                /* \"#utility.yul\":8390:8402   */\n              swap1\n              pop\n                /* \"#utility.yul\":8333:8408   */\n              swap2\n              swap1\n              pop\n              jump\t// out\n                /* \"#utility.yul\":8414:8683   */\n            tag_78:\n                /* \"#utility.yul\":8524:8563   */\n              tag_183\n                /* \"#utility.yul\":8555:8562   */\n              dup4\n                /* \"#utility.yul\":8524:8563   */\n              tag_76\n              jump\t// in\n            tag_183:\n                /* \"#utility.yul\":8585:8676   */\n              tag_184\n                /* \"#utility.yul\":8634:8675   */\n              tag_185\n                /* \"#utility.yul\":8658:8674   */\n              dup3\n                /* \"#utility.yul\":8634:8675   */\n              tag_77\n              jump\t// in\n            tag_185:\n                /* \"#utility.yul\":8626:8632   */\n              dup5\n                /* \"#utility.yul\":8619:8623   */\n              dup5\n                /* \"#utility.yul\":8613:8624   */\n              sload\n                /* \"#utility.yul\":8585:8676   */\n              tag_74\n              jump\t// in\n            tag_184:\n                /* \"#utility.yul\":8579:8583   */\n              dup3\n                /* \"#utility.yul\":8572:8677   */\n              sstore\n                /* \"#utility.yul\":8490:8683   */\n              pop\n                /* \"#utility.yul\":8414:8683   */\n              pop\n              pop\n              pop\n              jump\t// out\n                /* \"#utility.yul\":8689:8762   */\n            tag_79:\n                /* \"#utility.yul\":8734:8737   */\n              0x00\n                /* \"#utility.yul\":8689:8762   */\n              swap1\n              jump\t// out\n                /* \"#utility.yul\":8768:8957   */\n            tag_80:\n                /* \"#utility.yul\":8845:8877   */\n              tag_188\n              tag_79\n              jump\t// in\n            tag_188:\n                /* \"#utility.yul\":8886:8951   */\n              tag_189\n                /* \"#utility.yul\":8944:8950   */\n              dup2\n                /* \"#utility.yul\":8936:8942   */\n              dup5\n                /* \"#utility.yul\":8930:8934   */\n              dup5\n                /* \"#utility.yul\":8886:8951   */\n              tag_78\n              jump\t// in\n            tag_189:\n                /* \"#utility.yul\":8821:8957   */\n              pop\n                /* \"#utility.yul\":8768:8957   */\n              pop\n              pop\n              jump\t// out\n                /* \"#utility.yul\":8963:9149   */\n            tag_81:\n                /* \"#utility.yul\":9023:9143   */\n            tag_191:\n                /* \"#utility.yul\":9040:9043   */\n              dup2\n                /* \"#utility.yul\":9033:9038   */\n              dup2\n                /* \"#utility.yul\":9030:9044   */\n              lt\n                /* \"#utility.yul\":9023:9143   */\n              iszero\n              tag_193\n              jumpi\n                /* \"#utility.yul\":9094:9133   */\n              tag_194\n                /* \"#utility.yul\":9131:9132   */\n              0x00\n                /* \"#utility.yul\":9124:9129   */\n              dup3\n                /* \"#utility.yul\":9094:9133   */\n              tag_80\n              jump\t// in\n            tag_194:\n                /* \"#utility.yul\":9067:9068   */\n              0x01\n                /* \"#utility.yul\":9060:9065   */\n              dup2\n                /* \"#utility.yul\":9056:9069   */\n              add\n                /* \"#utility.yul\":9047:9069   */\n              swap1\n              pop\n                /* \"#utility.yul\":9023:9143   */\n              jump(tag_191)\n            tag_193:\n                /* \"#utility.yul\":8963:9149   */\n              pop\n              pop\n              jump\t// out\n                /* \"#utility.yul\":9155:9698   */\n            tag_82:\n                /* \"#utility.yul\":9256:9258   */\n              0x1f\n                /* \"#utility.yul\":9251:9254   */\n              dup3\n                /* \"#utility.yul\":9248:9259   */\n              gt\n                /* \"#utility.yul\":9245:9691   */\n              iszero\n              tag_196\n              jumpi\n                /* \"#utility.yul\":9290:9328   */\n              tag_197\n                /* \"#utility.yul\":9322:9327   */\n              dup2\n                /* \"#utility.yul\":9290:9328   */\n              tag_71\n              jump\t// in\n            tag_197:\n                /* \"#utility.yul\":9374:9403   */\n              tag_198\n                /* \"#utility.yul\":9392:9402   */\n              dup5\n                /* \"#utility.yul\":9374:9403   */\n              tag_72\n              jump\t// in\n            tag_198:\n                /* \"#utility.yul\":9364:9372   */\n              dup2\n                /* \"#utility.yul\":9360:9404   */\n              add\n                /* \"#utility.yul\":9557:9559   */\n              0x20\n                /* \"#utility.yul\":9545:9555   */\n              dup6\n                /* \"#utility.yul\":9542:9560   */\n              lt\n                /* \"#utility.yul\":9539:9588   */\n              iszero\n              tag_199\n              jumpi\n                /* \"#utility.yul\":9578:9586   */\n              dup2\n                /* \"#utility.yul\":9563:9586   */\n              swap1\n              pop\n                /* \"#utility.yul\":9539:9588   */\n            tag_199:\n                /* \"#utility.yul\":9601:9681   */\n              tag_200\n                /* \"#utility.yul\":9657:9679   */\n              tag_201\n                /* \"#utility.yul\":9675:9678   */\n              dup6\n                /* \"#utility.yul\":9657:9679   */\n              tag_72\n              jump\t// in\n            tag_201:\n                /* \"#utility.yul\":9647:9655   */\n              dup4\n                /* \"#utility.yul\":9643:9680   */\n              add\n                /* \"#utility.yul\":9630:9641   */\n              dup3\n                /* \"#utility.yul\":9601:9681   */\n              tag_81\n              jump\t// in\n            tag_200:\n                /* \"#utility.yul\":9260:9691   */\n              pop\n              pop\n                /* \"#utility.yul\":9245:9691   */\n            tag_196:\n                /* \"#utility.yul\":9155:9698   */\n              pop\n              pop\n              pop\n              jump\t// out\n                /* \"#utility.yul\":9704:9821   */\n            tag_83:\n                /* \"#utility.yul\":9758:9766   */\n              0x00\n                /* \"#utility.yul\":9808:9813   */\n              dup3\n                /* \"#utility.yul\":9802:9806   */\n              dup3\n                /* \"#utility.yul\":9798:9814   */\n              shr\n                /* \"#utility.yul\":9777:9814   */\n              swap1\n              pop\n                /* \"#utility.yul\":9704:9821   */\n              swap3\n              swap2\n              pop\n              pop\n              jump\t// out\n                /* \"#utility.yul\":9827:9996   */\n            tag_84:\n                /* \"#utility.yul\":9871:9877   */\n              0x00\n                /* \"#utility.yul\":9904:9955   */\n              tag_204\n                /* \"#utility.yul\":9952:9953   */\n              0x00\n                /* \"#utility.yul\":9948:9954   */\n              not\n                /* \"#utility.yul\":9940:9945   */\n              dup5\n                /* \"#utility.yul\":9937:9938   */\n              0x08\n                /* \"#utility.yul\":9933:9946   */\n              mul\n                /* \"#utility.yul\":9904:9955   */\n              tag_83\n              jump\t// in\n            tag_204:\n                /* \"#utility.yul\":9900:9956   */\n              not\n                /* \"#utility.yul\":9985:9989   */\n              dup1\n                /* \"#utility.yul\":9979:9983   */\n              dup4\n                /* \"#utility.yul\":9975:9990   */\n              and\n                /* \"#utility.yul\":9965:9990   */\n              swap2\n              pop\n                /* \"#utility.yul\":9878:9996   */\n              pop\n                /* \"#utility.yul\":9827:9996   */\n              swap3\n              swap2\n              pop\n              pop\n              jump\t// out\n                /* \"#utility.yul\":10001:10296   */\n            tag_85:\n                /* \"#utility.yul\":10077:10081   */\n              0x00\n                /* \"#utility.yul\":10223:10252   */\n              tag_206\n                /* \"#utility.yul\":10248:10251   */\n              dup4\n                /* \"#utility.yul\":10242:10246   */\n              dup4\n                /* \"#utility.yul\":10223:10252   */\n              tag_84\n              jump\t// in\n            tag_206:\n                /* \"#utility.yul\":10215:10252   */\n              swap2\n              pop\n                /* \"#utility.yul\":10285:10288   */\n              dup3\n                /* \"#utility.yul\":10282:10283   */\n              0x02\n                /* \"#utility.yul\":10278:10289   */\n              mul\n                /* \"#utility.yul\":10272:10276   */\n              dup3\n                /* \"#utility.yul\":10269:10290   */\n              or\n                /* \"#utility.yul\":10261:10290   */\n              swap1\n              pop\n                /* \"#utility.yul\":10001:10296   */\n              swap3\n              swap2\n              pop\n              pop\n              jump\t// out\n                /* \"#utility.yul\":10301:11696   */\n            tag_42:\n                /* \"#utility.yul\":10418:10455   */\n              tag_208\n                /* \"#utility.yul\":10451:10454   */\n              dup3\n                /* \"#utility.yul\":10418:10455   */\n              tag_53\n              jump\t// in\n            tag_208:\n                /* \"#utility.yul\":10520:10538   */\n              0xffffffffffffffff\n                /* \"#utility.yul\":10512:10518   */\n              dup2\n                /* \"#utility.yul\":10509:10539   */\n              gt\n                /* \"#utility.yul\":10506:10562   */\n              iszero\n              tag_209\n              jumpi\n                /* \"#utility.yul\":10542:10560   */\n              tag_210\n              tag_63\n              jump\t// in\n            tag_210:\n                /* \"#utility.yul\":10506:10562   */\n            tag_209:\n                /* \"#utility.yul\":10586:10624   */\n              tag_211\n                /* \"#utility.yul\":10618:10622   */\n              dup3\n                /* \"#utility.yul\":10612:10623   */\n              sload\n                /* \"#utility.yul\":10586:10624   */\n              tag_34\n              jump\t// in\n            tag_211:\n                /* \"#utility.yul\":10671:10738   */\n              tag_212\n                /* \"#utility.yul\":10731:10737   */\n              dup3\n                /* \"#utility.yul\":10723:10729   */\n              dup3\n                /* \"#utility.yul\":10717:10721   */\n              dup6\n                /* \"#utility.yul\":10671:10738   */\n              tag_82\n              jump\t// in\n            tag_212:\n                /* \"#utility.yul\":10765:10766   */\n              0x00\n                /* \"#utility.yul\":10789:10793   */\n              0x20\n                /* \"#utility.yul\":10776:10793   */\n              swap1\n              pop\n                /* \"#utility.yul\":10821:10823   */\n              0x1f\n                /* \"#utility.yul\":10813:10819   */\n              dup4\n                /* \"#utility.yul\":10810:10824   */\n              gt\n                /* \"#utility.yul\":10838:10839   */\n              0x01\n                /* \"#utility.yul\":10833:11451   */\n              dup2\n              eq\n              tag_214\n              jumpi\n                /* \"#utility.yul\":11495:11496   */\n              0x00\n                /* \"#utility.yul\":11512:11518   */\n              dup5\n                /* \"#utility.yul\":11509:11586   */\n              iszero\n              tag_215\n              jumpi\n                /* \"#utility.yul\":11561:11570   */\n              dup3\n                /* \"#utility.yul\":11556:11559   */\n              dup8\n                /* \"#utility.yul\":11552:11571   */\n              add\n                /* \"#utility.yul\":11546:11572   */\n              mload\n                /* \"#utility.yul\":11537:11572   */\n              swap1\n              pop\n                /* \"#utility.yul\":11509:11586   */\n            tag_215:\n                /* \"#utility.yul\":11612:11679   */\n              tag_216\n                /* \"#utility.yul\":11672:11678   */\n              dup6\n                /* \"#utility.yul\":11665:11670   */\n              dup3\n                /* \"#utility.yul\":11612:11679   */\n              tag_85\n              jump\t// in\n            tag_216:\n                /* \"#utility.yul\":11606:11610   */\n              dup7\n                /* \"#utility.yul\":11599:11680   */\n              sstore\n                /* \"#utility.yul\":11468:11690   */\n              pop\n                /* \"#utility.yul\":10803:11690   */\n              jump(tag_213)\n                /* \"#utility.yul\":10833:11451   */\n            tag_214:\n                /* \"#utility.yul\":10885:10889   */\n              0x1f\n                /* \"#utility.yul\":10881:10890   */\n              not\n                /* \"#utility.yul\":10873:10879   */\n              dup5\n                /* \"#utility.yul\":10869:10891   */\n              and\n                /* \"#utility.yul\":10919:10956   */\n              tag_217\n                /* \"#utility.yul\":10951:10955   */\n              dup7\n                /* \"#utility.yul\":10919:10956   */\n              tag_71\n              jump\t// in\n            tag_217:\n                /* \"#utility.yul\":10978:10979   */\n              0x00\n                /* \"#utility.yul\":10992:11200   */\n            tag_218:\n                /* \"#utility.yul\":11006:11013   */\n              dup3\n                /* \"#utility.yul\":11003:11004   */\n              dup2\n                /* \"#utility.yul\":11000:11014   */\n              lt\n                /* \"#utility.yul\":10992:11200   */\n              iszero\n              tag_220\n              jumpi\n                /* \"#utility.yul\":11085:11094   */\n              dup5\n                /* \"#utility.yul\":11080:11083   */\n              dup10\n                /* \"#utility.yul\":11076:11095   */\n              add\n                /* \"#utility.yul\":11070:11096   */\n              mload\n                /* \"#utility.yul\":11062:11068   */\n              dup3\n                /* \"#utility.yul\":11055:11097   */\n              sstore\n                /* \"#utility.yul\":11136:11137   */\n              0x01\n                /* \"#utility.yul\":11128:11134   */\n              dup3\n                /* \"#utility.yul\":11124:11138   */\n              add\n                /* \"#utility.yul\":11114:11138   */\n              swap2\n              pop\n                /* \"#utility.yul\":11183:11185   */\n              0x20\n                /* \"#utility.yul\":11172:11181   */\n              dup6\n                /* \"#utility.yul\":11168:11186   */\n              add\n                /* \"#utility.yul\":11155:11186   */\n              swap5\n              pop\n                /* \"#utility.yul\":11029:11033   */\n              0x20\n                /* \"#utility.yul\":11026:11027   */\n              dup2\n                /* \"#utility.yul\":11022:11034   */\n              add\n                /* \"#utility.yul\":11017:11034   */\n              swap1\n              pop\n                /* \"#utility.yul\":10992:11200   */\n              jump(tag_218)\n            tag_220:\n                /* \"#utility.yul\":11228:11234   */\n              dup7\n                /* \"#utility.yul\":11219:11226   */\n              dup4\n                /* \"#utility.yul\":11216:11235   */\n              lt\n                /* \"#utility.yul\":11213:11392   */\n              iszero\n              tag_221\n              jumpi\n                /* \"#utility.yul\":11286:11295   */\n              dup5\n                /* \"#utility.yul\":11281:11284   */\n              dup10\n                /* \"#utility.yul\":11277:11296   */\n              add\n                /* \"#utility.yul\":11271:11297   */\n              mload\n                /* \"#utility.yul\":11329:11377   */\n              tag_222\n                /* \"#utility.yul\":11371:11375   */\n              0x1f\n                /* \"#utility.yul\":11363:11369   */\n              dup10\n                /* \"#utility.yul\":11359:11376   */\n              and\n                /* \"#utility.yul\":11348:11357   */\n              dup3\n                /* \"#utility.yul\":11329:11377   */\n              tag_84\n              jump\t// in\n            tag_222:\n                /* \"#utility.yul\":11321:11327   */\n              dup4\n                /* \"#utility.yul\":11314:11378   */\n              sstore\n                /* \"#utility.yul\":11236:11392   */\n              pop\n                /* \"#utility.yul\":11213:11392   */\n            tag_221:\n                /* \"#utility.yul\":11438:11439   */\n              0x01\n                /* \"#utility.yul\":11434:11435   */\n              0x02\n                /* \"#utility.yul\":11426:11432   */\n              dup9\n                /* \"#utility.yul\":11422:11436   */\n              mul\n                /* \"#utility.yul\":11418:11440   */\n              add\n                /* \"#utility.yul\":11412:11416   */\n              dup9\n                /* \"#utility.yul\":11405:11441   */\n              sstore\n                /* \"#utility.yul\":10840:11451   */\n              pop\n              pop\n              pop\n                /* \"#utility.yul\":10803:11690   */\n            tag_213:\n              pop\n                /* \"#utility.yul\":10393:11696   */\n              pop\n              pop\n              pop\n                /* \"#utility.yul\":10301:11696   */\n              pop\n              pop\n              jump\t// out\n                /* \"#utility.yul\":11702:11850   */\n            tag_86:\n                /* \"#utility.yul\":11804:11815   */\n              0x00\n                /* \"#utility.yul\":11841:11844   */\n              dup2\n                /* \"#utility.yul\":11826:11844   */\n              swap1\n              pop\n                /* \"#utility.yul\":11702:11850   */\n              swap3\n              swap2\n              pop\n              pop\n              jump\t// out\n                /* \"#utility.yul\":11880:12210   */\n            tag_87:\n                /* \"#utility.yul\":11996:11999   */\n              0x00\n                /* \"#utility.yul\":12017:12106   */\n              tag_225\n                /* \"#utility.yul\":12099:12105   */\n              dup4\n                /* \"#utility.yul\":12094:12097   */\n              dup6\n                /* \"#utility.yul\":12017:12106   */\n              tag_86\n              jump\t// in\n            tag_225:\n                /* \"#utility.yul\":12010:12106   */\n              swap4\n              pop\n                /* \"#utility.yul\":12116:12172   */\n              tag_226\n                /* \"#utility.yul\":12165:12171   */\n              dup4\n                /* \"#utility.yul\":12160:12163   */\n              dup6\n                /* \"#utility.yul\":12153:12158   */\n              dup5\n                /* \"#utility.yul\":12116:12172   */\n              tag_67\n              jump\t// in\n            tag_226:\n                /* \"#utility.yul\":12197:12203   */\n              dup3\n                /* \"#utility.yul\":12192:12195   */\n              dup5\n                /* \"#utility.yul\":12188:12204   */\n              add\n                /* \"#utility.yul\":12181:12204   */\n              swap1\n              pop\n                /* \"#utility.yul\":11880:12210   */\n              swap4\n              swap3\n              pop\n              pop\n              pop\n              jump\t// out\n                /* \"#utility.yul\":12216:12511   */\n            tag_44:\n                /* \"#utility.yul\":12358:12361   */\n              0x00\n                /* \"#utility.yul\":12380:12485   */\n              tag_228\n                /* \"#utility.yul\":12481:12484   */\n              dup3\n                /* \"#utility.yul\":12472:12478   */\n              dup5\n                /* \"#utility.yul\":12464:12470   */\n              dup7\n                /* \"#utility.yul\":12380:12485   */\n              tag_87\n              jump\t// in\n            tag_228:\n                /* \"#utility.yul\":12373:12485   */\n              swap2\n              pop\n                /* \"#utility.yul\":12502:12505   */\n              dup2\n                /* \"#utility.yul\":12495:12505   */\n              swap1\n              pop\n                /* \"#utility.yul\":12216:12511   */\n              swap4\n              swap3\n              pop\n              pop\n              pop\n              jump\t// out\n\n            auxdata: 0xa2646970667358221220b8368f4c27f51eca793c2db16cd4512590fbc544d6d6f5101c507821acaa208f64736f6c634300081a0033\n        }\n    }\n\n    auxdata: 0xa2646970667358221220671199e9f368296d45e08c8a6e2f42f769a9dba7fcb90737832d63703d72a0d264736f6c634300081a0033\n}\n",
				"bytecode": {
					"linkReferences": {},
					"object": "6080604052348015600e575f80fd5b50610e908061001c5f395ff3fe608060405234801561000f575f80fd5b506004361061004a575f3560e01c80631dda65411461004e578063c5f19c2014610058578063dcebe8b214610088578063f39f3035146100a4575b5f80fd5b6100566100d4565b005b610072600480360381019061006d919061033a565b61015f565b60405161007f9190610374565b60405180910390f35b6100a2600480360381019061009d919061038d565b610213565b005b6100be60048036038101906100b9919061033a565b6102bc565b6040516100cb9190610445565b60405180910390f35b5f6040516100e1906102f6565b604051809103905ff0801580156100fa573d5f803e3d5ffd5b5090505f81908060018154018082558091505060019003905f5260205f20015f9091909190916101000a81548173ffffffffffffffffffffffffffffffffffffffff021916908373ffffffffffffffffffffffffffffffffffffffff16021790555050565b5f805f83815481106101745761017361045e565b5b905f5260205f20015f9054906101000a900473ffffffffffffffffffffffffffffffffffffffff1690508073ffffffffffffffffffffffffffffffffffffffff1663993a04b76040518163ffffffff1660e01b8152600401602060405180830381865afa1580156101e7573d5f803e3d5ffd5b505050506040513d601f19601f8201168201806040525081019061020b919061049f565b915050919050565b5f8083815481106102275761022661045e565b5b905f5260205f20015f9054906101000a900473ffffffffffffffffffffffffffffffffffffffff1690508073ffffffffffffffffffffffffffffffffffffffff16631d3849e4836040518263ffffffff1660e01b815260040161028a9190610374565b5f604051808303815f87803b1580156102a1575f80fd5b505af11580156102b3573d5f803e3d5ffd5b50505050505050565b5f81815481106102ca575f80fd5b905f5260205f20015f915054906101000a900473ffffffffffffffffffffffffffffffffffffffff1681565b610990806104cb83390190565b5f80fd5b5f819050919050565b61031981610307565b8114610323575f80fd5b50565b5f8135905061033481610310565b92915050565b5f6020828403121561034f5761034e610303565b5b5f61035c84828501610326565b91505092915050565b61036e81610307565b82525050565b5f6020820190506103875f830184610365565b92915050565b5f80604083850312156103a3576103a2610303565b5b5f6103b085828601610326565b92505060206103c185828601610326565b9150509250929050565b5f73ffffffffffffffffffffffffffffffffffffffff82169050919050565b5f819050919050565b5f61040d610408610403846103cb565b6103ea565b6103cb565b9050919050565b5f61041e826103f3565b9050919050565b5f61042f82610414565b9050919050565b61043f81610425565b82525050565b5f6020820190506104585f830184610436565b92915050565b7f4e487b71000000000000000000000000000000000000000000000000000000005f52603260045260245ffd5b5f8151905061049981610310565b92915050565b5f602082840312156104b4576104b3610303565b5b5f6104c18482850161048b565b9150509291505056fe6080604052348015600e575f80fd5b506109748061001c5f395ff3fe608060405234801561000f575f80fd5b5060043610610055575f3560e01c80631d3849e4146100595780636663e66d146100755780636f760f41146100a65780638bab8dd5146100c2578063993a04b7146100f2575b5f80fd5b610073600480360381019061006e9190610311565b610110565b005b61008f600480360381019061008a9190610311565b610119565b60405161009d9291906103bb565b60405180910390f35b6100c060048036038101906100bb919061044a565b6101ce565b005b6100dc60048036038101906100d791906105cf565b610298565b6040516100e99190610616565b60405180910390f35b6100fa6102c5565b6040516101079190610616565b60405180910390f35b805f8190555050565b60018181548110610128575f80fd5b905f5260205f2090600202015f91509050805f01549080600101805461014d9061065c565b80601f01602080910402602001604051908101604052809291908181526020018280546101799061065c565b80156101c45780601f1061019b576101008083540402835291602001916101c4565b820191905f5260205f20905b8154815290600101906020018083116101a757829003601f168201915b5050505050905082565b6001604051806040016040528083815260200185858080601f0160208091040260200160405190810160405280939291908181526020018383808284375f81840152601f19601f82011690508083019250505050505050815250908060018154018082558091505060019003905f5260205f2090600202015f909190919091505f820151815f0155602082015181600101908161026b9190610829565b5050508060028484604051610281929190610926565b908152602001604051809103902081905550505050565b6002818051602081018201805184825260208301602085012081835280955050505050505f915090505481565b5f8054905090565b5f604051905090565b5f80fd5b5f80fd5b5f819050919050565b6102f0816102de565b81146102fa575f80fd5b50565b5f8135905061030b816102e7565b92915050565b5f60208284031215610326576103256102d6565b5b5f610333848285016102fd565b91505092915050565b610345816102de565b82525050565b5f81519050919050565b5f82825260208201905092915050565b8281835e5f83830152505050565b5f601f19601f8301169050919050565b5f61038d8261034b565b6103978185610355565b93506103a7818560208601610365565b6103b081610373565b840191505092915050565b5f6040820190506103ce5f83018561033c565b81810360208301526103e08184610383565b90509392505050565b5f80fd5b5f80fd5b5f80fd5b5f8083601f84011261040a576104096103e9565b5b8235905067ffffffffffffffff811115610427576104266103ed565b5b602083019150836001820283011115610443576104426103f1565b5b9250929050565b5f805f60408486031215610461576104606102d6565b5b5f84013567ffffffffffffffff81111561047e5761047d6102da565b5b61048a868287016103f5565b9350935050602061049d868287016102fd565b9150509250925092565b5f80fd5b7f4e487b71000000000000000000000000000000000000000000000000000000005f52604160045260245ffd5b6104e182610373565b810181811067ffffffffffffffff82111715610500576104ff6104ab565b5b80604052505050565b5f6105126102cd565b905061051e82826104d8565b919050565b5f67ffffffffffffffff82111561053d5761053c6104ab565b5b61054682610373565b9050602081019050919050565b828183375f83830152505050565b5f61057361056e84610523565b610509565b90508281526020810184848401111561058f5761058e6104a7565b5b61059a848285610553565b509392505050565b5f82601f8301126105b6576105b56103e9565b5b81356105c6848260208601610561565b91505092915050565b5f602082840312156105e4576105e36102d6565b5b5f82013567ffffffffffffffff811115610601576106006102da565b5b61060d848285016105a2565b91505092915050565b5f6020820190506106295f83018461033c565b92915050565b7f4e487b71000000000000000000000000000000000000000000000000000000005f52602260045260245ffd5b5f600282049050600182168061067357607f821691505b6020821081036106865761068561062f565b5b50919050565b5f819050815f5260205f209050919050565b5f6020601f8301049050919050565b5f82821b905092915050565b5f600883026106e87fffffffffffffffffffffffffffffffffffffffffffffffffffffffffffffffff826106ad565b6106f286836106ad565b95508019841693508086168417925050509392505050565b5f819050919050565b5f61072d610728610723846102de565b61070a565b6102de565b9050919050565b5f819050919050565b61074683610713565b61075a61075282610734565b8484546106b9565b825550505050565b5f90565b61076e610762565b61077981848461073d565b505050565b5b8181101561079c576107915f82610766565b60018101905061077f565b5050565b601f8211156107e1576107b28161068c565b6107bb8461069e565b810160208510156107ca578190505b6107de6107d68561069e565b83018261077e565b50505b505050565b5f82821c905092915050565b5f6108015f19846008026107e6565b1980831691505092915050565b5f61081983836107f2565b9150826002028217905092915050565b6108328261034b565b67ffffffffffffffff81111561084b5761084a6104ab565b5b610855825461065c565b6108608282856107a0565b5f60209050601f831160018114610891575f841561087f578287015190505b610889858261080e565b8655506108f0565b601f19841661089f8661068c565b5f5b828110156108c6578489015182556001820191506020850194506020810190506108a1565b868310156108e357848901516108df601f8916826107f2565b8355505b6001600288020188555050505b505050505050565b5f81905092915050565b5f61090d83856108f8565b935061091a838584610553565b82840190509392505050565b5f610932828486610902565b9150819050939250505056fea2646970667358221220b8368f4c27f51eca793c2db16cd4512590fbc544d6d6f5101c507821acaa208f64736f6c634300081a0033a2646970667358221220671199e9f368296d45e08c8a6e2f42f769a9dba7fcb90737832d63703d72a0d264736f6c634300081a0033",
					"opcodes": "PUSH1 0x80 PUSH1 0x40 MSTORE CALLVALUE DUP1 ISZERO PUSH1 0xE JUMPI PUSH0 DUP1 REVERT JUMPDEST POP PUSH2 0xE90 DUP1 PUSH2 0x1C PUSH0 CODECOPY PUSH0 RETURN INVALID PUSH1 0x80 PUSH1 0x40 MSTORE CALLVALUE DUP1 ISZERO PUSH2 0xF JUMPI PUSH0 DUP1 REVERT JUMPDEST POP PUSH1 0x4 CALLDATASIZE LT PUSH2 0x4A JUMPI PUSH0 CALLDATALOAD PUSH1 0xE0 SHR DUP1 PUSH4 0x1DDA6541 EQ PUSH2 0x4E JUMPI DUP1 PUSH4 0xC5F19C20 EQ PUSH2 0x58 JUMPI DUP1 PUSH4 0xDCEBE8B2 EQ PUSH2 0x88 JUMPI DUP1 PUSH4 0xF39F3035 EQ PUSH2 0xA4 JUMPI JUMPDEST PUSH0 DUP1 REVERT JUMPDEST PUSH2 0x56 PUSH2 0xD4 JUMP JUMPDEST STOP JUMPDEST PUSH2 0x72 PUSH1 0x4 DUP1 CALLDATASIZE SUB DUP2 ADD SWAP1 PUSH2 0x6D SWAP2 SWAP1 PUSH2 0x33A JUMP JUMPDEST PUSH2 0x15F JUMP JUMPDEST PUSH1 0x40 MLOAD PUSH2 0x7F SWAP2 SWAP1 PUSH2 0x374 JUMP JUMPDEST PUSH1 0x40 MLOAD DUP1 SWAP2 SUB SWAP1 RETURN JUMPDEST PUSH2 0xA2 PUSH1 0x4 DUP1 CALLDATASIZE SUB DUP2 ADD SWAP1 PUSH2 0x9D SWAP2 SWAP1 PUSH2 0x38D JUMP JUMPDEST PUSH2 0x213 JUMP JUMPDEST STOP JUMPDEST PUSH2 0xBE PUSH1 0x4 DUP1 CALLDATASIZE SUB DUP2 ADD SWAP1 PUSH2 0xB9 SWAP2 SWAP1 PUSH2 0x33A JUMP JUMPDEST PUSH2 0x2BC JUMP JUMPDEST PUSH1 0x40 MLOAD PUSH2 0xCB SWAP2 SWAP1 PUSH2 0x445 JUMP JUMPDEST PUSH1 0x40 MLOAD DUP1 SWAP2 SUB SWAP1 RETURN JUMPDEST PUSH0 PUSH1 0x40 MLOAD PUSH2 0xE1 SWAP1 PUSH2 0x2F6 JUMP JUMPDEST PUSH1 0x40 MLOAD DUP1 SWAP2 SUB SWAP1 PUSH0 CREATE DUP1 ISZERO DUP1 ISZERO PUSH2 0xFA JUMPI RETURNDATASIZE PUSH0 DUP1 RETURNDATACOPY RETURNDATASIZE PUSH0 REVERT JUMPDEST POP SWAP1 POP PUSH0 DUP2 SWAP1 DUP1 PUSH1 0x1 DUP2 SLOAD ADD DUP1 DUP3 SSTORE DUP1 SWAP2 POP POP PUSH1 0x1 SWAP1 SUB SWAP1 PUSH0 MSTORE PUSH1 0x20 PUSH0 KECCAK256 ADD PUSH0 SWAP1 SWAP2 SWAP1 SWAP2 SWAP1 SWAP2 PUSH2 0x100 EXP DUP2 SLOAD DUP2 PUSH20 0xFFFFFFFFFFFFFFFFFFFFFFFFFFFFFFFFFFFFFFFF MUL NOT AND SWAP1 DUP4 PUSH20 0xFFFFFFFFFFFFFFFFFFFFFFFFFFFFFFFFFFFFFFFF AND MUL OR SWAP1 SSTORE POP POP JUMP JUMPDEST PUSH0 DUP1 PUSH0 DUP4 DUP2 SLOAD DUP2 LT PUSH2 0x174 JUMPI PUSH2 0x173 PUSH2 0x45E JUMP JUMPDEST JUMPDEST SWAP1 PUSH0 MSTORE PUSH1 0x20 PUSH0 KECCAK256 ADD PUSH0 SWAP1 SLOAD SWAP1 PUSH2 0x100 EXP SWAP1 DIV PUSH20 0xFFFFFFFFFFFFFFFFFFFFFFFFFFFFFFFFFFFFFFFF AND SWAP1 POP DUP1 PUSH20 0xFFFFFFFFFFFFFFFFFFFFFFFFFFFFFFFFFFFFFFFF AND PUSH4 0x993A04B7 PUSH1 0x40 MLOAD DUP2 PUSH4 0xFFFFFFFF AND PUSH1 0xE0 SHL DUP2 MSTORE PUSH1 0x4 ADD PUSH1 0x20 PUSH1 0x40 MLOAD DUP1 DUP4 SUB DUP2 DUP7 GAS STATICCALL ISZERO DUP1 ISZERO PUSH2 0x1E7 JUMPI RETURNDATASIZE PUSH0 DUP1 RETURNDATACOPY RETURNDATASIZE PUSH0 REVERT JUMPDEST POP POP POP POP PUSH1 0x40 MLOAD RETURNDATASIZE PUSH1 0x1F NOT PUSH1 0x1F DUP3 ADD AND DUP3 ADD DUP1 PUSH1 0x40 MSTORE POP DUP2 ADD SWAP1 PUSH2 0x20B SWAP2 SWAP1 PUSH2 0x49F JUMP JUMPDEST SWAP2 POP POP SWAP2 SWAP1 POP JUMP JUMPDEST PUSH0 DUP1 DUP4 DUP2 SLOAD DUP2 LT PUSH2 0x227 JUMPI PUSH2 0x226 PUSH2 0x45E JUMP JUMPDEST JUMPDEST SWAP1 PUSH0 MSTORE PUSH1 0x20 PUSH0 KECCAK256 ADD PUSH0 SWAP1 SLOAD SWAP1 PUSH2 0x100 EXP SWAP1 DIV PUSH20 0xFFFFFFFFFFFFFFFFFFFFFFFFFFFFFFFFFFFFFFFF AND SWAP1 POP DUP1 PUSH20 0xFFFFFFFFFFFFFFFFFFFFFFFFFFFFFFFFFFFFFFFF AND PUSH4 0x1D3849E4 DUP4 PUSH1 0x40 MLOAD DUP3 PUSH4 0xFFFFFFFF AND PUSH1 0xE0 SHL DUP2 MSTORE PUSH1 0x4 ADD PUSH2 0x28A SWAP2 SWAP1 PUSH2 0x374 JUMP JUMPDEST PUSH0 PUSH1 0x40 MLOAD DUP1 DUP4 SUB DUP2 PUSH0 DUP8 DUP1 EXTCODESIZE ISZERO DUP1 ISZERO PUSH2 0x2A1 JUMPI PUSH0 DUP1 REVERT JUMPDEST POP GAS CALL ISZERO DUP1 ISZERO PUSH2 0x2B3 JUMPI RETURNDATASIZE PUSH0 DUP1 RETURNDATACOPY RETURNDATASIZE PUSH0 REVERT JUMPDEST POP POP POP POP POP POP POP JUMP JUMPDEST PUSH0 DUP2 DUP2 SLOAD DUP2 LT PUSH2 0x2CA JUMPI PUSH0 DUP1 REVERT JUMPDEST SWAP1 PUSH0 MSTORE PUSH1 0x20 PUSH0 KECCAK256 ADD PUSH0 SWAP2 POP SLOAD SWAP1 PUSH2 0x100 EXP SWAP1 DIV PUSH20 0xFFFFFFFFFFFFFFFFFFFFFFFFFFFFFFFFFFFFFFFF AND DUP2 JUMP JUMPDEST PUSH2 0x990 DUP1 PUSH2 0x4CB DUP4 CODECOPY ADD SWAP1 JUMP JUMPDEST PUSH0 DUP1 REVERT JUMPDEST PUSH0 DUP2 SWAP1 POP SWAP2 SWAP1 POP JUMP JUMPDEST PUSH2 0x319 DUP2 PUSH2 0x307 JUMP JUMPDEST DUP2 EQ PUSH2 0x323 JUMPI PUSH0 DUP1 REVERT JUMPDEST POP JUMP JUMPDEST PUSH0 DUP2 CALLDATALOAD SWAP1 POP PUSH2 0x334 DUP2 PUSH2 0x310 JUMP JUMPDEST SWAP3 SWAP2 POP POP JUMP JUMPDEST PUSH0 PUSH1 0x20 DUP3 DUP5 SUB SLT ISZERO PUSH2 0x34F JUMPI PUSH2 0x34E PUSH2 0x303 JUMP JUMPDEST JUMPDEST PUSH0 PUSH2 0x35C DUP5 DUP3 DUP6 ADD PUSH2 0x326 JUMP JUMPDEST SWAP2 POP POP SWAP3 SWAP2 POP POP JUMP JUMPDEST PUSH2 0x36E DUP2 PUSH2 0x307 JUMP JUMPDEST DUP3 MSTORE POP POP JUMP JUMPDEST PUSH0 PUSH1 0x20 DUP3 ADD SWAP1 POP PUSH2 0x387 PUSH0 DUP4 ADD DUP5 PUSH2 0x365 JUMP JUMPDEST SWAP3 SWAP2 POP POP JUMP JUMPDEST PUSH0 DUP1 PUSH1 0x40 DUP4 DUP6 SUB SLT ISZERO PUSH2 0x3A3 JUMPI PUSH2 0x3A2 PUSH2 0x303 JUMP JUMPDEST JUMPDEST PUSH0 PUSH2 0x3B0 DUP6 DUP3 DUP7 ADD PUSH2 0x326 JUMP JUMPDEST SWAP3 POP POP PUSH1 0x20 PUSH2 0x3C1 DUP6 DUP3 DUP7 ADD PUSH2 0x326 JUMP JUMPDEST SWAP2 POP POP SWAP3 POP SWAP3 SWAP1 POP JUMP JUMPDEST PUSH0 PUSH20 0xFFFFFFFFFFFFFFFFFFFFFFFFFFFFFFFFFFFFFFFF DUP3 AND SWAP1 POP SWAP2 SWAP1 POP JUMP JUMPDEST PUSH0 DUP2 SWAP1 POP SWAP2 SWAP1 POP JUMP JUMPDEST PUSH0 PUSH2 0x40D PUSH2 0x408 PUSH2 0x403 DUP5 PUSH2 0x3CB JUMP JUMPDEST PUSH2 0x3EA JUMP JUMPDEST PUSH2 0x3CB JUMP JUMPDEST SWAP1 POP SWAP2 SWAP1 POP JUMP JUMPDEST PUSH0 PUSH2 0x41E DUP3 PUSH2 0x3F3 JUMP JUMPDEST SWAP1 POP SWAP2 SWAP1 POP JUMP JUMPDEST PUSH0 PUSH2 0x42F DUP3 PUSH2 0x414 JUMP JUMPDEST SWAP1 POP SWAP2 SWAP1 POP JUMP JUMPDEST PUSH2 0x43F DUP2 PUSH2 0x425 JUMP JUMPDEST DUP3 MSTORE POP POP JUMP JUMPDEST PUSH0 PUSH1 0x20 DUP3 ADD SWAP1 POP PUSH2 0x458 PUSH0 DUP4 ADD DUP5 PUSH2 0x436 JUMP JUMPDEST SWAP3 SWAP2 POP POP JUMP JUMPDEST PUSH32 0x4E487B7100000000000000000000000000000000000000000000000000000000 PUSH0 MSTORE PUSH1 0x32 PUSH1 0x4 MSTORE PUSH1 0x24 PUSH0 REVERT JUMPDEST PUSH0 DUP2 MLOAD SWAP1 POP PUSH2 0x499 DUP2 PUSH2 0x310 JUMP JUMPDEST SWAP3 SWAP2 POP POP JUMP JUMPDEST PUSH0 PUSH1 0x20 DUP3 DUP5 SUB SLT ISZERO PUSH2 0x4B4 JUMPI PUSH2 0x4B3 PUSH2 0x303 JUMP JUMPDEST JUMPDEST PUSH0 PUSH2 0x4C1 DUP5 DUP3 DUP6 ADD PUSH2 0x48B JUMP JUMPDEST SWAP2 POP POP SWAP3 SWAP2 POP POP JUMP INVALID PUSH1 0x80 PUSH1 0x40 MSTORE CALLVALUE DUP1 ISZERO PUSH1 0xE JUMPI PUSH0 DUP1 REVERT JUMPDEST POP PUSH2 0x974 DUP1 PUSH2 0x1C PUSH0 CODECOPY PUSH0 RETURN INVALID PUSH1 0x80 PUSH1 0x40 MSTORE CALLVALUE DUP1 ISZERO PUSH2 0xF JUMPI PUSH0 DUP1 REVERT JUMPDEST POP PUSH1 0x4 CALLDATASIZE LT PUSH2 0x55 JUMPI PUSH0 CALLDATALOAD PUSH1 0xE0 SHR DUP1 PUSH4 0x1D3849E4 EQ PUSH2 0x59 JUMPI DUP1 PUSH4 0x6663E66D EQ PUSH2 0x75 JUMPI DUP1 PUSH4 0x6F760F41 EQ PUSH2 0xA6 JUMPI DUP1 PUSH4 0x8BAB8DD5 EQ PUSH2 0xC2 JUMPI DUP1 PUSH4 0x993A04B7 EQ PUSH2 0xF2 JUMPI JUMPDEST PUSH0 DUP1 REVERT JUMPDEST PUSH2 0x73 PUSH1 0x4 DUP1 CALLDATASIZE SUB DUP2 ADD SWAP1 PUSH2 0x6E SWAP2 SWAP1 PUSH2 0x311 JUMP JUMPDEST PUSH2 0x110 JUMP JUMPDEST STOP JUMPDEST PUSH2 0x8F PUSH1 0x4 DUP1 CALLDATASIZE SUB DUP2 ADD SWAP1 PUSH2 0x8A SWAP2 SWAP1 PUSH2 0x311 JUMP JUMPDEST PUSH2 0x119 JUMP JUMPDEST PUSH1 0x40 MLOAD PUSH2 0x9D SWAP3 SWAP2 SWAP1 PUSH2 0x3BB JUMP JUMPDEST PUSH1 0x40 MLOAD DUP1 SWAP2 SUB SWAP1 RETURN JUMPDEST PUSH2 0xC0 PUSH1 0x4 DUP1 CALLDATASIZE SUB DUP2 ADD SWAP1 PUSH2 0xBB SWAP2 SWAP1 PUSH2 0x44A JUMP JUMPDEST PUSH2 0x1CE JUMP JUMPDEST STOP JUMPDEST PUSH2 0xDC PUSH1 0x4 DUP1 CALLDATASIZE SUB DUP2 ADD SWAP1 PUSH2 0xD7 SWAP2 SWAP1 PUSH2 0x5CF JUMP JUMPDEST PUSH2 0x298 JUMP JUMPDEST PUSH1 0x40 MLOAD PUSH2 0xE9 SWAP2 SWAP1 PUSH2 0x616 JUMP JUMPDEST PUSH1 0x40 MLOAD DUP1 SWAP2 SUB SWAP1 RETURN JUMPDEST PUSH2 0xFA PUSH2 0x2C5 JUMP JUMPDEST PUSH1 0x40 MLOAD PUSH2 0x107 SWAP2 SWAP1 PUSH2 0x616 JUMP JUMPDEST PUSH1 0x40 MLOAD DUP1 SWAP2 SUB SWAP1 RETURN JUMPDEST DUP1 PUSH0 DUP2 SWAP1 SSTORE POP POP JUMP JUMPDEST PUSH1 0x1 DUP2 DUP2 SLOAD DUP2 LT PUSH2 0x128 JUMPI PUSH0 DUP1 REVERT JUMPDEST SWAP1 PUSH0 MSTORE PUSH1 0x20 PUSH0 KECCAK256 SWAP1 PUSH1 0x2 MUL ADD PUSH0 SWAP2 POP SWAP1 POP DUP1 PUSH0 ADD SLOAD SWAP1 DUP1 PUSH1 0x1 ADD DUP1 SLOAD PUSH2 0x14D SWAP1 PUSH2 0x65C JUMP JUMPDEST DUP1 PUSH1 0x1F ADD PUSH1 0x20 DUP1 SWAP2 DIV MUL PUSH1 0x20 ADD PUSH1 0x40 MLOAD SWAP1 DUP2 ADD PUSH1 0x40 MSTORE DUP1 SWAP3 SWAP2 SWAP1 DUP2 DUP2 MSTORE PUSH1 0x20 ADD DUP3 DUP1 SLOAD PUSH2 0x179 SWAP1 PUSH2 0x65C JUMP JUMPDEST DUP1 ISZERO PUSH2 0x1C4 JUMPI DUP1 PUSH1 0x1F LT PUSH2 0x19B JUMPI PUSH2 0x100 DUP1 DUP4 SLOAD DIV MUL DUP4 MSTORE SWAP2 PUSH1 0x20 ADD SWAP2 PUSH2 0x1C4 JUMP JUMPDEST DUP3 ADD SWAP2 SWAP1 PUSH0 MSTORE PUSH1 0x20 PUSH0 KECCAK256 SWAP1 JUMPDEST DUP2 SLOAD DUP2 MSTORE SWAP1 PUSH1 0x1 ADD SWAP1 PUSH1 0x20 ADD DUP1 DUP4 GT PUSH2 0x1A7 JUMPI DUP3 SWAP1 SUB PUSH1 0x1F AND DUP3 ADD SWAP2 JUMPDEST POP POP POP POP POP SWAP1 POP DUP3 JUMP JUMPDEST PUSH1 0x1 PUSH1 0x40 MLOAD DUP1 PUSH1 0x40 ADD PUSH1 0x40 MSTORE DUP1 DUP4 DUP2 MSTORE PUSH1 0x20 ADD DUP6 DUP6 DUP1 DUP1 PUSH1 0x1F ADD PUSH1 0x20 DUP1 SWAP2 DIV MUL PUSH1 0x20 ADD PUSH1 0x40 MLOAD SWAP1 DUP2 ADD PUSH1 0x40 MSTORE DUP1 SWAP4 SWAP3 SWAP2 SWAP1 DUP2 DUP2 MSTORE PUSH1 0x20 ADD DUP4 DUP4 DUP1 DUP3 DUP5 CALLDATACOPY PUSH0 DUP2 DUP5 ADD MSTORE PUSH1 0x1F NOT PUSH1 0x1F DUP3 ADD AND SWAP1 POP DUP1 DUP4 ADD SWAP3 POP POP POP POP POP POP POP DUP2 MSTORE POP SWAP1 DUP1 PUSH1 0x1 DUP2 SLOAD ADD DUP1 DUP3 SSTORE DUP1 SWAP2 POP POP PUSH1 0x1 SWAP1 SUB SWAP1 PUSH0 MSTORE PUSH1 0x20 PUSH0 KECCAK256 SWAP1 PUSH1 0x2 MUL ADD PUSH0 SWAP1 SWAP2 SWAP1 SWAP2 SWAP1 SWAP2 POP PUSH0 DUP3 ADD MLOAD DUP2 PUSH0 ADD SSTORE PUSH1 0x20 DUP3 ADD MLOAD DUP2 PUSH1 0x1 ADD SWAP1 DUP2 PUSH2 0x26B SWAP2 SWAP1 PUSH2 0x829 JUMP JUMPDEST POP POP POP DUP1 PUSH1 0x2 DUP5 DUP5 PUSH1 0x40 MLOAD PUSH2 0x281 SWAP3 SWAP2 SWAP1 PUSH2 0x926 JUMP JUMPDEST SWAP1 DUP2 MSTORE PUSH1 0x20 ADD PUSH1 0x40 MLOAD DUP1 SWAP2 SUB SWAP1 KECCAK256 DUP2 SWAP1 SSTORE POP POP POP POP JUMP JUMPDEST PUSH1 0x2 DUP2 DUP1 MLOAD PUSH1 0x20 DUP2 ADD DUP3 ADD DUP1 MLOAD DUP5 DUP3 MSTORE PUSH1 0x20 DUP4 ADD PUSH1 0x20 DUP6 ADD KECCAK256 DUP2 DUP4 MSTORE DUP1 SWAP6 POP POP POP POP POP POP PUSH0 SWAP2 POP SWAP1 POP SLOAD DUP2 JUMP JUMPDEST PUSH0 DUP1 SLOAD SWAP1 POP SWAP1 JUMP JUMPDEST PUSH0 PUSH1 0x40 MLOAD SWAP1 POP SWAP1 JUMP JUMPDEST PUSH0 DUP1 REVERT JUMPDEST PUSH0 DUP1 REVERT JUMPDEST PUSH0 DUP2 SWAP1 POP SWAP2 SWAP1 POP JUMP JUMPDEST PUSH2 0x2F0 DUP2 PUSH2 0x2DE JUMP JUMPDEST DUP2 EQ PUSH2 0x2FA JUMPI PUSH0 DUP1 REVERT JUMPDEST POP JUMP JUMPDEST PUSH0 DUP2 CALLDATALOAD SWAP1 POP PUSH2 0x30B DUP2 PUSH2 0x2E7 JUMP JUMPDEST SWAP3 SWAP2 POP POP JUMP JUMPDEST PUSH0 PUSH1 0x20 DUP3 DUP5 SUB SLT ISZERO PUSH2 0x326 JUMPI PUSH2 0x325 PUSH2 0x2D6 JUMP JUMPDEST JUMPDEST PUSH0 PUSH2 0x333 DUP5 DUP3 DUP6 ADD PUSH2 0x2FD JUMP JUMPDEST SWAP2 POP POP SWAP3 SWAP2 POP POP JUMP JUMPDEST PUSH2 0x345 DUP2 PUSH2 0x2DE JUMP JUMPDEST DUP3 MSTORE POP POP JUMP JUMPDEST PUSH0 DUP2 MLOAD SWAP1 POP SWAP2 SWAP1 POP JUMP JUMPDEST PUSH0 DUP3 DUP3 MSTORE PUSH1 0x20 DUP3 ADD SWAP1 POP SWAP3 SWAP2 POP POP JUMP JUMPDEST DUP3 DUP2 DUP4 MCOPY PUSH0 DUP4 DUP4 ADD MSTORE POP POP POP JUMP JUMPDEST PUSH0 PUSH1 0x1F NOT PUSH1 0x1F DUP4 ADD AND SWAP1 POP SWAP2 SWAP1 POP JUMP JUMPDEST PUSH0 PUSH2 0x38D DUP3 PUSH2 0x34B JUMP JUMPDEST PUSH2 0x397 DUP2 DUP6 PUSH2 0x355 JUMP JUMPDEST SWAP4 POP PUSH2 0x3A7 DUP2 DUP6 PUSH1 0x20 DUP7 ADD PUSH2 0x365 JUMP JUMPDEST PUSH2 0x3B0 DUP2 PUSH2 0x373 JUMP JUMPDEST DUP5 ADD SWAP2 POP POP SWAP3 SWAP2 POP POP JUMP JUMPDEST PUSH0 PUSH1 0x40 DUP3 ADD SWAP1 POP PUSH2 0x3CE PUSH0 DUP4 ADD DUP6 PUSH2 0x33C JUMP JUMPDEST DUP2 DUP2 SUB PUSH1 0x20 DUP4 ADD MSTORE PUSH2 0x3E0 DUP2 DUP5 PUSH2 0x383 JUMP JUMPDEST SWAP1 POP SWAP4 SWAP3 POP POP POP JUMP JUMPDEST PUSH0 DUP1 REVERT JUMPDEST PUSH0 DUP1 REVERT JUMPDEST PUSH0 DUP1 REVERT JUMPDEST PUSH0 DUP1 DUP4 PUSH1 0x1F DUP5 ADD SLT PUSH2 0x40A JUMPI PUSH2 0x409 PUSH2 0x3E9 JUMP JUMPDEST JUMPDEST DUP3 CALLDATALOAD SWAP1 POP PUSH8 0xFFFFFFFFFFFFFFFF DUP2 GT ISZERO PUSH2 0x427 JUMPI PUSH2 0x426 PUSH2 0x3ED JUMP JUMPDEST JUMPDEST PUSH1 0x20 DUP4 ADD SWAP2 POP DUP4 PUSH1 0x1 DUP3 MUL DUP4 ADD GT ISZERO PUSH2 0x443 JUMPI PUSH2 0x442 PUSH2 0x3F1 JUMP JUMPDEST JUMPDEST SWAP3 POP SWAP3 SWAP1 POP JUMP JUMPDEST PUSH0 DUP1 PUSH0 PUSH1 0x40 DUP5 DUP7 SUB SLT ISZERO PUSH2 0x461 JUMPI PUSH2 0x460 PUSH2 0x2D6 JUMP JUMPDEST JUMPDEST PUSH0 DUP5 ADD CALLDATALOAD PUSH8 0xFFFFFFFFFFFFFFFF DUP2 GT ISZERO PUSH2 0x47E JUMPI PUSH2 0x47D PUSH2 0x2DA JUMP JUMPDEST JUMPDEST PUSH2 0x48A DUP7 DUP3 DUP8 ADD PUSH2 0x3F5 JUMP JUMPDEST SWAP4 POP SWAP4 POP POP PUSH1 0x20 PUSH2 0x49D DUP7 DUP3 DUP8 ADD PUSH2 0x2FD JUMP JUMPDEST SWAP2 POP POP SWAP3 POP SWAP3 POP SWAP3 JUMP JUMPDEST PUSH0 DUP1 REVERT JUMPDEST PUSH32 0x4E487B7100000000000000000000000000000000000000000000000000000000 PUSH0 MSTORE PUSH1 0x41 PUSH1 0x4 MSTORE PUSH1 0x24 PUSH0 REVERT JUMPDEST PUSH2 0x4E1 DUP3 PUSH2 0x373 JUMP JUMPDEST DUP2 ADD DUP2 DUP2 LT PUSH8 0xFFFFFFFFFFFFFFFF DUP3 GT OR ISZERO PUSH2 0x500 JUMPI PUSH2 0x4FF PUSH2 0x4AB JUMP JUMPDEST JUMPDEST DUP1 PUSH1 0x40 MSTORE POP POP POP JUMP JUMPDEST PUSH0 PUSH2 0x512 PUSH2 0x2CD JUMP JUMPDEST SWAP1 POP PUSH2 0x51E DUP3 DUP3 PUSH2 0x4D8 JUMP JUMPDEST SWAP2 SWAP1 POP JUMP JUMPDEST PUSH0 PUSH8 0xFFFFFFFFFFFFFFFF DUP3 GT ISZERO PUSH2 0x53D JUMPI PUSH2 0x53C PUSH2 0x4AB JUMP JUMPDEST JUMPDEST PUSH2 0x546 DUP3 PUSH2 0x373 JUMP JUMPDEST SWAP1 POP PUSH1 0x20 DUP2 ADD SWAP1 POP SWAP2 SWAP1 POP JUMP JUMPDEST DUP3 DUP2 DUP4 CALLDATACOPY PUSH0 DUP4 DUP4 ADD MSTORE POP POP POP JUMP JUMPDEST PUSH0 PUSH2 0x573 PUSH2 0x56E DUP5 PUSH2 0x523 JUMP JUMPDEST PUSH2 0x509 JUMP JUMPDEST SWAP1 POP DUP3 DUP2 MSTORE PUSH1 0x20 DUP2 ADD DUP5 DUP5 DUP5 ADD GT ISZERO PUSH2 0x58F JUMPI PUSH2 0x58E PUSH2 0x4A7 JUMP JUMPDEST JUMPDEST PUSH2 0x59A DUP5 DUP3 DUP6 PUSH2 0x553 JUMP JUMPDEST POP SWAP4 SWAP3 POP POP POP JUMP JUMPDEST PUSH0 DUP3 PUSH1 0x1F DUP4 ADD SLT PUSH2 0x5B6 JUMPI PUSH2 0x5B5 PUSH2 0x3E9 JUMP JUMPDEST JUMPDEST DUP2 CALLDATALOAD PUSH2 0x5C6 DUP5 DUP3 PUSH1 0x20 DUP7 ADD PUSH2 0x561 JUMP JUMPDEST SWAP2 POP POP SWAP3 SWAP2 POP POP JUMP JUMPDEST PUSH0 PUSH1 0x20 DUP3 DUP5 SUB SLT ISZERO PUSH2 0x5E4 JUMPI PUSH2 0x5E3 PUSH2 0x2D6 JUMP JUMPDEST JUMPDEST PUSH0 DUP3 ADD CALLDATALOAD PUSH8 0xFFFFFFFFFFFFFFFF DUP2 GT ISZERO PUSH2 0x601 JUMPI PUSH2 0x600 PUSH2 0x2DA JUMP JUMPDEST JUMPDEST PUSH2 0x60D DUP5 DUP3 DUP6 ADD PUSH2 0x5A2 JUMP JUMPDEST SWAP2 POP POP SWAP3 SWAP2 POP POP JUMP JUMPDEST PUSH0 PUSH1 0x20 DUP3 ADD SWAP1 POP PUSH2 0x629 PUSH0 DUP4 ADD DUP5 PUSH2 0x33C JUMP JUMPDEST SWAP3 SWAP2 POP POP JUMP JUMPDEST PUSH32 0x4E487B7100000000000000000000000000000000000000000000000000000000 PUSH0 MSTORE PUSH1 0x22 PUSH1 0x4 MSTORE PUSH1 0x24 PUSH0 REVERT JUMPDEST PUSH0 PUSH1 0x2 DUP3 DIV SWAP1 POP PUSH1 0x1 DUP3 AND DUP1 PUSH2 0x673 JUMPI PUSH1 0x7F DUP3 AND SWAP2 POP JUMPDEST PUSH1 0x20 DUP3 LT DUP2 SUB PUSH2 0x686 JUMPI PUSH2 0x685 PUSH2 0x62F JUMP JUMPDEST JUMPDEST POP SWAP2 SWAP1 POP JUMP JUMPDEST PUSH0 DUP2 SWAP1 POP DUP2 PUSH0 MSTORE PUSH1 0x20 PUSH0 KECCAK256 SWAP1 POP SWAP2 SWAP1 POP JUMP JUMPDEST PUSH0 PUSH1 0x20 PUSH1 0x1F DUP4 ADD DIV SWAP1 POP SWAP2 SWAP1 POP JUMP JUMPDEST PUSH0 DUP3 DUP3 SHL SWAP1 POP SWAP3 SWAP2 POP POP JUMP JUMPDEST PUSH0 PUSH1 0x8 DUP4 MUL PUSH2 0x6E8 PUSH32 0xFFFFFFFFFFFFFFFFFFFFFFFFFFFFFFFFFFFFFFFFFFFFFFFFFFFFFFFFFFFFFFFF DUP3 PUSH2 0x6AD JUMP JUMPDEST PUSH2 0x6F2 DUP7 DUP4 PUSH2 0x6AD JUMP JUMPDEST SWAP6 POP DUP1 NOT DUP5 AND SWAP4 POP DUP1 DUP7 AND DUP5 OR SWAP3 POP POP POP SWAP4 SWAP3 POP POP POP JUMP JUMPDEST PUSH0 DUP2 SWAP1 POP SWAP2 SWAP1 POP JUMP JUMPDEST PUSH0 PUSH2 0x72D PUSH2 0x728 PUSH2 0x723 DUP5 PUSH2 0x2DE JUMP JUMPDEST PUSH2 0x70A JUMP JUMPDEST PUSH2 0x2DE JUMP JUMPDEST SWAP1 POP SWAP2 SWAP1 POP JUMP JUMPDEST PUSH0 DUP2 SWAP1 POP SWAP2 SWAP1 POP JUMP JUMPDEST PUSH2 0x746 DUP4 PUSH2 0x713 JUMP JUMPDEST PUSH2 0x75A PUSH2 0x752 DUP3 PUSH2 0x734 JUMP JUMPDEST DUP5 DUP5 SLOAD PUSH2 0x6B9 JUMP JUMPDEST DUP3 SSTORE POP POP POP POP JUMP JUMPDEST PUSH0 SWAP1 JUMP JUMPDEST PUSH2 0x76E PUSH2 0x762 JUMP JUMPDEST PUSH2 0x779 DUP2 DUP5 DUP5 PUSH2 0x73D JUMP JUMPDEST POP POP POP JUMP JUMPDEST JUMPDEST DUP2 DUP2 LT ISZERO PUSH2 0x79C JUMPI PUSH2 0x791 PUSH0 DUP3 PUSH2 0x766 JUMP JUMPDEST PUSH1 0x1 DUP2 ADD SWAP1 POP PUSH2 0x77F JUMP JUMPDEST POP POP JUMP JUMPDEST PUSH1 0x1F DUP3 GT ISZERO PUSH2 0x7E1 JUMPI PUSH2 0x7B2 DUP2 PUSH2 0x68C JUMP JUMPDEST PUSH2 0x7BB DUP5 PUSH2 0x69E JUMP JUMPDEST DUP2 ADD PUSH1 0x20 DUP6 LT ISZERO PUSH2 0x7CA JUMPI DUP2 SWAP1 POP JUMPDEST PUSH2 0x7DE PUSH2 0x7D6 DUP6 PUSH2 0x69E JUMP JUMPDEST DUP4 ADD DUP3 PUSH2 0x77E JUMP JUMPDEST POP POP JUMPDEST POP POP POP JUMP JUMPDEST PUSH0 DUP3 DUP3 SHR SWAP1 POP SWAP3 SWAP2 POP POP JUMP JUMPDEST PUSH0 PUSH2 0x801 PUSH0 NOT DUP5 PUSH1 0x8 MUL PUSH2 0x7E6 JUMP JUMPDEST NOT DUP1 DUP4 AND SWAP2 POP POP SWAP3 SWAP2 POP POP JUMP JUMPDEST PUSH0 PUSH2 0x819 DUP4 DUP4 PUSH2 0x7F2 JUMP JUMPDEST SWAP2 POP DUP3 PUSH1 0x2 MUL DUP3 OR SWAP1 POP SWAP3 SWAP2 POP POP JUMP JUMPDEST PUSH2 0x832 DUP3 PUSH2 0x34B JUMP JUMPDEST PUSH8 0xFFFFFFFFFFFFFFFF DUP2 GT ISZERO PUSH2 0x84B JUMPI PUSH2 0x84A PUSH2 0x4AB JUMP JUMPDEST JUMPDEST PUSH2 0x855 DUP3 SLOAD PUSH2 0x65C JUMP JUMPDEST PUSH2 0x860 DUP3 DUP3 DUP6 PUSH2 0x7A0 JUMP JUMPDEST PUSH0 PUSH1 0x20 SWAP1 POP PUSH1 0x1F DUP4 GT PUSH1 0x1 DUP2 EQ PUSH2 0x891 JUMPI PUSH0 DUP5 ISZERO PUSH2 0x87F JUMPI DUP3 DUP8 ADD MLOAD SWAP1 POP JUMPDEST PUSH2 0x889 DUP6 DUP3 PUSH2 0x80E JUMP JUMPDEST DUP7 SSTORE POP PUSH2 0x8F0 JUMP JUMPDEST PUSH1 0x1F NOT DUP5 AND PUSH2 0x89F DUP7 PUSH2 0x68C JUMP JUMPDEST PUSH0 JUMPDEST DUP3 DUP2 LT ISZERO PUSH2 0x8C6 JUMPI DUP5 DUP10 ADD MLOAD DUP3 SSTORE PUSH1 0x1 DUP3 ADD SWAP2 POP PUSH1 0x20 DUP6 ADD SWAP5 POP PUSH1 0x20 DUP2 ADD SWAP1 POP PUSH2 0x8A1 JUMP JUMPDEST DUP7 DUP4 LT ISZERO PUSH2 0x8E3 JUMPI DUP5 DUP10 ADD MLOAD PUSH2 0x8DF PUSH1 0x1F DUP10 AND DUP3 PUSH2 0x7F2 JUMP JUMPDEST DUP4 SSTORE POP JUMPDEST PUSH1 0x1 PUSH1 0x2 DUP9 MUL ADD DUP9 SSTORE POP POP POP JUMPDEST POP POP POP POP POP POP JUMP JUMPDEST PUSH0 DUP2 SWAP1 POP SWAP3 SWAP2 POP POP JUMP JUMPDEST PUSH0 PUSH2 0x90D DUP4 DUP6 PUSH2 0x8F8 JUMP JUMPDEST SWAP4 POP PUSH2 0x91A DUP4 DUP6 DUP5 PUSH2 0x553 JUMP JUMPDEST DUP3 DUP5 ADD SWAP1 POP SWAP4 SWAP3 POP POP POP JUMP JUMPDEST PUSH0 PUSH2 0x932 DUP3 DUP5 DUP7 PUSH2 0x902 JUMP JUMPDEST SWAP2 POP DUP2 SWAP1 POP SWAP4 SWAP3 POP POP POP JUMP INVALID LOG2 PUSH5 0x6970667358 0x22 SLT KECCAK256 0xB8 CALLDATASIZE DUP16 0x4C 0x27 CREATE2 0x1E 0xCA PUSH26 0x3C2DB16CD4512590FBC544D6D6F5101C507821ACAA208F64736F PUSH13 0x634300081A0033A26469706673 PC 0x22 SLT KECCAK256 PUSH8 0x1199E9F368296D45 0xE0 DUP13 DUP11 PUSH15 0x2F42F769A9DBA7FCB90737832D6370 RETURNDATASIZE PUSH19 0xA0D264736F6C634300081A0033000000000000 "
				},
				"gasEstimates": {
					"creation": {
						"codeDepositCost": "745600",
						"executionCost": "777",
						"totalCost": "746377"
					},
					"external": {
						"createSimpleStorageContract()": "infinite",
						"listOfSimpleStorageContracts(uint256)": "infinite",
						"sdStore(uint256,uint256)": "infinite",
						"sfGet(uint256)": "infinite"
					}
				},
				"methodIdentifiers": {
					"createSimpleStorageContract()": "1dda6541",
					"listOfSimpleStorageContracts(uint256)": "f39f3035",
					"sdStore(uint256,uint256)": "dcebe8b2",
					"sfGet(uint256)": "c5f19c20"
				}
			},
			"storageLayout": {
				"storage": [
					{
						"astId": 66,
						"contract": "contracts/StorageFactory.sol:StorageFactory",
						"label": "listOfSimpleStorageContracts",
						"offset": 0,
						"slot": "0",
						"type": "t_array(t_contract(SimpleStorage)58)dyn_storage"
					}
				],
				"types": {
					"t_array(t_contract(SimpleStorage)58)dyn_storage": {
						"base": "t_contract(SimpleStorage)58",
						"encoding": "dynamic_array",
						"label": "contract SimpleStorage[]",
						"numberOfBytes": "32"
					},
					"t_contract(SimpleStorage)58": {
						"encoding": "inplace",
						"label": "contract SimpleStorage",
						"numberOfBytes": "20"
					}
				}
			},
			"userdoc": {
				"kind": "user",
				"methods": {},
				"version": 1
			}
		}
	}
}